:020000040800F2
:10000000A80C0020BDEE01080DED01080FED010860
:1000100011ED010813ED010815ED010800000000C5
:1000200000000000000000000000000017ED0108C3
:1000300019ED0108000000001BED01081DED01088D
:1000400011EF010815EF010819EF01081DEF010874
:1000500021EF010825EF010825ED01082DEF01082A
:1000600031EF010835EF010839EF01083DEF0108D4
:1000700041EF010845EF010849EF01084DEF010884
:1000800051EF010855EF010859EF01085DEF010834
:1000900061EF010865EF010869EF01086DEF0108E4
:1000A00071EF010875EF010879EF01087DEF010894
:1000B00081EF010885EF010889EF01088DEF010844
:1000C00091EF010895EF010899EF01089DEF0108F4
:1000D000A1EF0108A5EF0108A9EF0108ADEF0108A4
:1000E000B1EF0108B5EF010835ED0108BDEF0108DA
:1000F000C1EF0108C5EF0108C9EF0108CDEF010804
:10010000D1EF0108D5EF0108D9EF0108DDEF0108B3
:10011000E1EF0108E5EF0108E9EF0108EDEF010863
:10012000F1EF0108F5EF0108F9EF0108FDEF010813
:1001300001F0010805F0010809F001080DF00108BF
:1001400011F0010815F0010819F001085FED010830
:1001500021F0010825F0010829F001082DF001081F
:1001600031F0010835F0010839F001083DF00108CF
:1001700041F0010845F0010849F001084DF001087F
:1001800051F0010855F00108FFFFFFFFFFFFFFFFDF
:10019000FFFFFFFFFFFFFFFFFFFFFFFFFFFFFFFF6F
:1001A000FFFFFFFFFFFFFFFFFFFFFFFFFFFFFFFF5F
:1001B000FFFFFFFFFFFFFFFFFFFFFFFFFFFFFFFF4F
:1001C000FFFFFFFFFFFFFFFFFFFFFFFFFFFFFFFF3F
:10176000FFFFF3E4D9D0CBC8C7C9CBD2DBE7F8FF82
:10177000FFFFFFFFFFFFFFFFFFFFFFFFFFFFFFFF79
:10178000FFFFFFFFFFFFFFFFFFFFFFFFFFFFFFFF69
:10179000FFFFFFFFFFFFFFFFFFFFFFFFFFFFFFFF59
:1017A000FFFFFFFFFFFFFFFFFFFFFFFFFFFFFFFF49
:1017B000FFFFFFFFFFFFFFFFFFFFFFFFFFFFFFFF39
:1017C000FFFFFFFFFFFFFFFFFFFFFFFFFFFFFFFF29
:1017D000FFFFFFFFFFFFFFFFFFFFFFFFFFFFFFFF19
:1017E000FFFFFFFFFFFFFFFFFFFFFFFFFFFFFFFF09
:1017F000FFFFFFFFFFFFFFFFFFFFFFFFFFFFFFFFF9
:10180000FFFFFFFFFFFFFFFFFFFFFFFFFFFFFFFFE8
:10181000FFFFFFFFFFFFFFFFFFFFFFFFFFFFFFFFD8
:10182000FFFFFFFFFFFFFFFFFFFFFFFFFFFFFFFFC8
:10183000FFFFFFFFFFFFFFFFFFFFFFFFFFFFFFFFB8
:10184000FFFFFFFFFFFFFFFFFFFFFFFFFFFFFFFFA8
:10185000FFFFFFFFFFFFFFFFFFFFFFFFFFFFFFFF98
:10186000FFFFFFFFFFFFFFFFFFFFFFFFFFFFFFFF88
:10187000FFFFFFFFFFFFFFFFFFFFFFFFFFFFFFFF78
:10188000FFFFFFFFFFFFFFFFFFFFFFFFFFFFFFFF68
:10189000FFFFFFFFFFFFFFFFFFFFFFFFFFEACFB5E7
:1018A0009C8D8E91909191918F8E8C89888580836B
:1018B0009CB9D4F3FFFFFFFFFFFFFFFFFFFFFFFF18
:1018C000FFFFFFFFFFFFFFFFFFFFFFFFFFFFFFFF28
:1018D000FFFFFFFFFFFFFFFFFFFFFFFFFFFFFFFF18
:1018E000FFFFFFFFFFFFFFFFFFFFFFFFFFFFFFFF08
:1018F000FFFFFFFFFFFFFFFFFFFFFFFFFFFFFFFFF8
:10190000FFFFFFFFFFFFFFFFFFFFFFFFFFFFFFFFE7
:10191000FFFFFFFFFFFFFFFFFFFFFFFFFFFFFFFFD7
:10192000FFFFFFFFFFFFFFFFFFFFFFFFFFFFFFFFC7
:10193000FFFFFFFFFFFFFFFFFFFFFFFFFFFFFFFFB7
:10194000FFFFFFFFFFFFFFFFFFFFFFFFFFFFFFFFA7
:10195000FFFFFFFFFFFFFFFFFFFFFFFFFFFFFFFF97
:10196000FFFFFFFFFFFFFFFFFFFFFFFFFFFFFFFF87
:10197000FFFFFFFFFFFFFFFFFFFFFFFFFFFFFFFF77
:10198000FFFFFFFFFFFFFFFFFFFFFFFFFFFFFFFF67
:10199000FFFFFFFFFFFFFFFFFFFFFFFFFFFFFFFF57
:1019A000FFFFFFFFFFFFFFFFFFFFFFFFFFFFFFFF47
:1019B000FFFFFFFFFFFFFFFFFFFFFFFFFFFFFFFF37
:1019C000FFFFFFFFFFFFFFFFFFFFFFFFFFFFFFFF27
:1019D000FFFFFFFFFFFFFFFFFFFBD9B49693999A2C
:1019E0009B9EA1A19EA2A09E9E9A9C9B9894928D44
:1019F0008A86817C8BB9E1FFFFFFFFFFFFFFFFFFBE
:101A0000FFFFFFFFFFFFFFFFFFFFFFFFFFFFFFFFE6
:101A1000FFFFFFFFFFFFFFFFFFFFFFFFFFFFFFFFD6
:101A2000FFFFFFFFFFFFFFFFFFFFFFFFFFFFFFFFC6
:101A3000FFFFFFFFFFFFFFFFFFFFFFFFFFFFFFFFB6
:101A4000FFFFFFFFFFFFFFFFFFFFFFFFFFFFFFFFA6
:101A5000FFFFFFFFFFFFFFFFFFFFFFFFFFFFFFFF96
:101A6000FFFFFFFFFFFFFFFFFFFFFFFFFFFFFFFF86
:101A7000FFFFFFFFFFFFFFFFFFFFFFFFFFFFFFFF76
:101A8000FFFFFFFFFFFFFFFFFFFFFFFFFFFFFFFF66
:101A9000FFFFFFFFFFFFFFFFFFFFFFFFFFFFFFFF56
:101AA000FFFFFFFFFFFFFFFFFFFFFFFFFFFFFFFF46
:101AB000FFFFFFFFFFFFFFFFFFFFFFFFFFFFFFFF36
:101AC000FFFFFFFFFFFFFFFFFFFFFFFFFFFFFFFF26
:101AD000FFFFFFFFFFFFFFFFFFFFFFFFFFFFFFFF16
:101AE000FFFFFFFFFFFFFFFFFFFFFFFFFFFFFFFF06
:101AF000FFFFFFFFFFFFFFFFFFFFFFFFFFFFFFFFF6
:101B0000FFFFFFFFFFFFFFFFFFFFFFFFFFFFFFFFE5
:101B1000FFFFFFFFFFFFFFE1B3959A9EA1A5A7A9D5
:101B2000A9ABACAAAAA7A8A8A7A6A2A2A09E9B9A66
:101B300096948F8B86817A81B8EFFFFFFFFFFFFFBE
:101B4000FFFFFFFFFFFFFFFFFFFFFFFFFFFFFFFFA5
:101B5000FFFFFFFFFFFFFFFFFFFFFFFFFFFFFFFF95
:101B6000FFFFFFFFFFFFFFFFFFFFFFFFFFFFFFFF85
:101B7000FFFFFFFFFFFFFFFFFFFFFFFFFFFFFFFF75
:101B8000FFFFFFFFFFFFFFFFFFFFFFFFFFFFFFFF65
:101B9000FFFFFFFFFFFFFFFFFFFFFFFFFFFFFFFF55
:101BA000FFFFFFFFFFFFFFFFFFFFFFFFFFFFFFFF45
:101BB000FFFFFFFFFFFFFFFFFFFFFFFFFFFFFFFF35
:101BC000FFFFFFFFFFFFFFFFFFFFFFFFFFFFFFFF25
:101BD000FFFFFFFFFFFFFFFFFFFFFFFFFFFFFFFF15
:101BE000FFFFFFFFFFFFFFFFFFFFFFFFFFFFFFFF05
:101BF000FFFFFFFFFFFFFFFFFFFFFFFFFFFFFFFFF5
:101C0000FFFFFFFFFFFFFFFFFFFFFFFFFFFFFFFFE4
:101C1000FFFFFFFFFFFFFFFFFFFFFFFFFFFFFFFFD4
:101C2000FFFFFFFFFFFFFFFFFFFFFFFFFFFFFFFFC4
:101C3000FFFFFFFFFFFFFFFFFFFFFFFFFFFFFFFFB4
:101C4000FFFFFFFFFFFFFFFFFFFFFFFFFFFFFFFFA4
:101C5000FFFFFFFFFBD09D9BA1A7A9ABAEB1B2B325
:101C6000B0B4B4B2AEB0AFAFADABA9A6A4A4A4A0BB
:101C70009D9C9996918B8A857E759EDDFFFFFFFF67
:101C8000FFFFFFFFFFFFFFFFFFFFFFFFFFFFFFFF64
:101C9000FFFFFFFFFFFFFFFFFFFFFFFFFFFFFFFF54
:101CA000FFFFFFFFFFFFFFFFFFFFFFFFFFFFFFFF44
:101CB000FFFFFFFFFFFFFFFFFFFFFFFFFFFFFFFF34
:101CC000FFFFFFFFFFFFFFFFFFFFFFFFFFFFFFFF24
:101CD000FFFFFFFFFFFFFFFFFFFFFFFFFFFFFFFF14
:101CE000FFFFFFFFFFFFFFFFFFFFFFFFFFFFFFFF04
:101CF000FFFFFFFFFFFFFFFFFFFFFFFFFFFFFFFFF4
:101D0000FFFFFFFFFFFFFFFFFFFFFFFFFFFFFFFFE3
:101D1000FFFFFFFFFFFFFFFFFFFFFFFFFFFFFFFFD3
:101D2000FFFFFFFFFFFFFFFFFFFFFFFFFFFFFFFFC3
:101D3000FFFFFFFFFFFFFFFFFFFFFFFFFFFFFFFFB3
:101D4000FFFFFFFFFFFFFFFFFFFFFFFFFFFFFFFFA3
:101D5000FFFFFFFFFFFFFFFFFFFFFFFFFFFFFFFF93
:101D6000FFFFFFFFFFFFFFFFFFFFFFFFFFFFFFFF83
:101D7000FFFFFFFFFFFFFFFFFFFFFFFFFFFFFFFF73
:101D8000FFFFFFFFFFFFFFFFFFFFFFFFFFFFFFFF63
:101D9000FFFFFCCD9A9DA5A9ADB0B3B5B6B7B5B65A
:101DA000B6B4B3B4B3B1B1AFB0ACAAABA7A7A4A358
:101DB000A19E9D9B9796928C8B847C748EDBFFFFFB
:101DC000FFFFFFFFFFFFFFFFFFFFFFFFFFFFFFFF23
:101DD000FFFFFFFFFFFFFFFFFFFFFFFFFFFFFFFF13
:101DE000FFFFFFFFFFFFFFFFFFFFFFFFFFFFFFFF03
:101DF000FFFFFFFFFFFFFFFFFFFFFFFFFFFFFFFFF3
:101E0000FFFFFFFFFFFFFFFFFFFFFFFFFFFFFFFFE2
:101E1000FFFFFFFFFFFFFFFFFFFFFFFFFFFFFFFFD2
:101E2000FFFFFFFFFFFFFFFFFFFFFFFFFFFFFFFFC2
:101E3000FFFFFFFFFFFFFFFFFFFFFFFFFFFFFFFFB2
:101E4000FFFFFFFFFFFFFFFFFFFFFFFFFFFFFFFFA2
:101E5000FFFFFFFFFFFFFFFFFFFFFFFFFFFFFFFF92
:101E6000FFFFFFFFFFFFFFFFFFFFFFFFFFFFFFFF82
:101E7000FFFFFFFFFFFFFFFFFFFFFFFFFFFFFFFF72
:101E8000FFFFFFFFFFFFFFFFFFFFFFFFFFFFFFFF62
:101E9000FFFFFFFFFFFFFFFFFFFFFFFFFFFFFFFF52
:101EA000FFFFFFFFFFFFFFFFFFFFFFFFFFFFFFFF42
:101EB000FFFFFFFFFFFFFFFFFFFFFFFFFFFFFFFF32
:101EC000FFFFFFFFFFFFFFFFFFFFFFFFFFFFFFFF22
:101ED000FFD79D9FA5AEB1B4B5B8B9BAB7B9BBB776
:101EE000B7B8B7B5B5B5B3B1B0ACADACAAA7A8A3F8
:101EF000A39F9E9E9D979796918D88837A7296EA6E
:101F0000FFFFFFFFFFFFFFFFFFFFFFFFFFFFFFFFE1
:101F1000FFFFFFFFFFFFFFFFFFFFFFFFFFFFFFFFD1
:101F2000FFFFFFFFFFFFFFFFFFFFFFFFFFFFFFFFC1
:101F3000FFFFFFFFFFFFFFFFFFFFFFFFFFFFFFFFB1
:101F4000FFFFFFFFFFFFFFFFFFFFFFFFFFFFFFFFA1
:101F5000FFFFFFFFFFFFFFFFFFFFFFFFFFFFFFFF91
:101F6000FFFFFFFFFFFFFFFFFFFFFFFFFFFFFFFF81
:101F7000FFFFFFFFFFFFFFFFFFFFFFFFFFFFFFFF71
:101F8000FFFFFFFFFFFFFFFFFFFFFFFFFFFFFFFF61
:101F9000FFFFFFFFFFFFFFFFFFFFFFFFFFFFFFFF51
:101FA000FFFFFFFFFFFFFFFFFFFFFFFFFFFFFFFF41
:101FB000FFFFFFFFFFFFFFFFFFFFFFFFFFFFFFFF31
:101FC000FFFFFFFFFFFFFFFFFFFFFFFFFFFFFFFF21
:101FD000FFFFFFFFFFFFFFFFFFFFFFFFFFFFFFFF11
:101FE000FFFFFFFFFFFFFFFFFFFFFFFFFFFFFFFF01
:101FF000FFFFFFFFFFFFFFFFFFFFFFFFFFFFFFFFF1
:10200000FFFFFFFFFFFFFFFFFFFFFFFFFFFFFFEEF1
:10201000AA9EA5ACB2B3B9B8B9B9BCBBBEBDBDBB75
:10202000BBBAB9BAB7B6B3B4B1B0B0ACAAAAA6A796
:10203000A3A29F9D9A9B9A9895908F8A867E776D92
:10204000AFFDFFFFFFFFFFFFFFFFFFFFFFFFFFFFF2
:10205000FFFFFFFFFFFFFFFFFFFFFFFFFFFFFFFF90
:10206000FFFFFFFFFFFFFFFFFFFFFFFFFFFFFFFF80
:10207000FFFFFFFFFFFFFFFFFFFFFFFFFFFFFFFF70
:10208000FFFFFFFFFFFFFFFFFFFFFFFFFFFFFFFF60
:10209000FFFFFFFFFFFFFFFFFFFFFFFFFFFFFFFF50
:1020A000FFFFFFFFFFFFFFFFFFFFFFFFFFFFFFFF40
:1020B000FFFFFFFFFFFFFFFFFFFFFFFFFFFFFFFF30
:1020C000FFFFFFFFFFFFFFFFFFFFFFFFFFFFFFFF20
:1020D000FFFFFFFFFFFFFFFFFFFFFFFFFFFFFFFF10
:1020E000FFFFFFFFFFFFFFFFFFFFFFFFFFFFFFFF00
:1020F000FFFFFFFFFFFFFFFFFFFFFFFFFFFFFFFFF0
:10210000FFFFFFFFFFFFFFFFFFFFFFFFFFFFFFFFDF
:10211000FFFFFFFFFFFFFFFFFFFFFFFFFFFFFFFFCF
:10212000FFFFFFFFFFFFFFFFFFFFFFFFFFFFFFFFBF
:10213000FFFFFFFFFFFFFFFFFFFFFFFFFFFFFFFFAF
:10214000FFFFFFFFFFFFFFFFFFFFFFFFFFFFCA993A
:10215000A4ABB0B5B8BCBABDBFC0BFC1BEC1BFC0E3
:10216000C0C0BFBDBDBCBAB5B5B3B1B0ADAAABA61A
:10217000A6A3A19E9E999A969695928E8C89837A13
:102180006E79E1FFFFFFFFFFFFFFFFFFFFFFFFFF94
:10219000FFFFFFFFFFFFFFFFFFFFFFFFFFFFFFFF4F
:1021A000FFFFFFFFFFFFFFFFFFFFFFFFFFFFFFFF3F
:1021B000FFFFFFFFFFFFFFFFFFFFFFFFFFFFFFFF2F
:1021C000FFFFFFFFFFFFFFFFFFFFFFFFFFFFFFFF1F
:1021D000FFFFFFFFFFFFFFFFFFFFFFFFFFFFFFFF0F
:1021E000FFFFFFFFFFFFFFFFFFFFFFFFFFFFFFFFFF
:1021F000FFFFFFFFFFFFFFFFFFFFFFFFFFFFFFFFEF
:10220000FFFFFFFFFFFFFFFFFFFFFFFFFFFFFFFFDE
:10221000FFFFFFFFFFFFFFFFFFFFFFFFFFFFFFFFCE
:10222000FFFFFFFFFFFFFFFFFFFFFFFFFFFFFFFFBE
:10223000FFFFFFFFFFFFFFFFFFFFFFFFFFFFFFFFAE
:10224000FFFFFFFFFFFFFFFFFFFFFFFFFFFFFFFF9E
:10225000FFFFFFFFFFFFFFFFFFFFFFFFFFFFFFFF8E
:10226000FFFFFFFFFFFFFFFFFFFFFFFFFFFFFFFF7E
:10227000FFFFFFFFFFFFFFFFFFFFFFFFFFFFFFFF6E
:10228000FFFFFFFFFFFFFFFFFFFFFFFFF5AB9EA973
:10229000AEB4B9BABCBFC0BFC2C0C1C2C6C5C4C358
:1022A000C3C3C2C1C0BEBCBCBAB6B5B5B0AFACA9A1
:1022B000A6A6A19F9D9E9A98959592928F8E8983AE
:1022C0007C7369B5FFFFFFFFFFFFFFFFFFFFFFFF0D
:1022D000FFFFFFFFFFFFFFFFFFFFFFFFFFFFFFFF0E
:1022E000FFFFFFFFFFFFFFFFFFFFFFFFFFFFFFFFFE
:1022F000FFFFFFFFFFFFFFFFFFFFFFFFFFFFFFFFEE
:10230000FFFFFFFFFFFFFFFFFFFFFFFFFFFFFFFFDD
:10231000FFFFFFFFFFFFFFFFFFFFFFFFFFFFFFFFCD
:10232000FFFFFFFFFFFFFFFFFFFFFFFFFFFFFFFFBD
:10233000FFFFFFFFFFFFFFFFFFFFFFFFFFFFFFFFAD
:10234000FFFFFFFFFFFFFFFFFFFFFFFFFFFFFFFF9D
:10235000FFFFFFFFFFFFFFFFFFFFFFFFFFFFFFFF8D
:10236000FFFFFFFFFFFFFFFFFFFFFFFFFFFFFFFF7D
:10237000FFFFFFFFFFFFFFFFFFFFFFFFFFFFFFFF6D
:10238000FFFFFFFFFFFFFFFFFFFFFFFFFFFFFFFF5D
:10239000FFFFFFFFFFFFFFFFFFFFFFFFFFFFFFFF4D
:1023A000FFFFFFFFFFFFFFFFFFFFFFFFFFFFFFFF3D
:1023B000FFFFFFFFFFFFFFFFFFFFFFFFFFFFFFFF2D
:1023C000FFFFFFFFFFFFFFFFFFFFFFE59CA1ABB19A
:1023D000B7BABCBEC0C3C2C5C5C7C7C7C9CAC9C8CA
:1023E000C6C6C7C4C3C3C0C0BBBCB8B7B5B3AFAB28
:1023F000ABA7A6A29F9E9D98979392928F908E894D
:10240000857B766993F9FFFFFFFFFFFFFFFFFFFF6B
:10241000FFFFFFFFFFFFFFFFFFFFFFFFFFFFFFFFCC
:10242000FFFFFFFFFFFFFFFFFFFFFFFFFFFFFFFFBC
:10243000FFFFFFFFFFFFFFFFFFFFFFFFFFFFFFFFAC
:10244000FFFFFFFFFFFFFFFFFFFFFFFFFFFFFFFF9C
:10245000FFFFFFFFFFFFFFFFFFFFFFFFFFFFFFFF8C
:10246000FFFFFFFFFFFFFFFFFFFFFFFFFFFFFFFF7C
:10247000FFFFFFFFFFFFFFFFFFFFFFFFFFFFFFFF6C
:10248000FFFFFFFFFFFFFFFFFFFFFFFFFFFFFFFF5C
:10249000FFFFFFFFFFFFFFFFFFFFFFFFFFFFFFFF4C
:1024A000FFFFFFFFFFFFFFFFFFFFFFFFFFFFFFFF3C
:1024B000FFFFFFFFFFFFFFFFFFFFFFFFFFFFFFFF2C
:1024C000FFFFFFFFFFFFFFFFFFFFFFFFFFFFFFFF1C
:1024D000FFFFFFFFFFFFFFFFFFFFFFFFFFFFFFFF0C
:1024E000FFFFFFFFFFFFFFFFFFFFFFFFFFFFFFFFFC
:1024F000FFFFFFFFFFFFFFFFFFFFFFFFFFFFFFFFEC
:10250000FFFFFFFFFFFFFFFFFFFFD498A5AEB2B9AB
:10251000BCBFC0C1C4C5C8C7CACACCCACCCDCBCD4C
:10252000CBCDCAC9C9C6C6C1C2BFBFB9B8B4B3B0A2
:10253000ABABA7A5A09E9B97989394908E8F8D8C04
:1025400086857F7A6A79EDFFFFFFFFFFFFFFFFFFC0
:10255000FFFFFFFFFFFFFFFFFFFFFFFFFFFFFFFF8B
:10256000FFFFFFFFFFFFFFFFFFFFFFFFFFFFFFFF7B
:10257000FFFFFFFFFFFFFFFFFFFFFFFFFFFFFFFF6B
:10258000FFFFFFFFFFFFFFFFFFFFFFFFFFFFFFFF5B
:10259000FFFFFFFFFFFFFFFFFFFFFFFFFFFFFFFF4B
:1025A000FFFFFFFFFFFFFFFFFFFFFFFFFFFFFFFF3B
:1025B000FFFFFFFFFFFFFFFFFFFFFFFFFFFFFFFF2B
:1025C000FFFFFFFFFFFFFFFFFFFFFFFFFFFFFFFF1B
:1025D000FFFFFFFFFFFFFFFFFFFFFFFFFFFFFFFF0B
:1025E000FFFFFFFFFFFFFFFFFFFFFFFFFFFFFFFFFB
:1025F000FFFFFFFFFFFFFFFFFFFFFFFFFFFFFFFFEB
:10260000FFFFFFFFFFFFFFFFFFFFFFFFFFFFFFFFDA
:10261000FFFFFFFFFFFFFFFFFFFFFFFFFFFFFFFFCA
:10262000FFFFFFFFFFFFFFFFFFFFFFFFFFFFFFFFBA
:10263000FFFFFFFFFFFFFFFFFFFFFFFFFFFFFFFFAA
:10264000FFFFFFFFFFFFFFFFFFC59BA6AEB3B8BABA
:10265000BFC0C5C4C8C9CBCCCECECFD0D2D2D0D1CA
:10266000D1D0CDCECDCBC8C7C3C2BFBEB9B8B4B32D
:10267000AFADA8A6A3A29D989997938F918D8B89B2
:102680008985847C776A69E5FFFFFFFFFFFFFFFF15
:10269000FFFFFFFFFFFFFFFFFFFFFFFFFFFFFFFF4A
:1026A000FFFFFFFFFFFFFFFFFFFFFFFFFFFFFFFF3A
:1026B000FFFFFFFFFFFFFFFFFFFFFFFFFFFFFFFF2A
:1026C000FFFFFFFFFFFFFFFFFFFFFFFFFFFFFFFF1A
:1026D000FFFFFFFFFFFFFFFFFFFFFFFFFFFFFFFF0A
:1026E000FFFFFFFFFFFFFFFFFFFFFFFFFFFFFFFFFA
:1026F000FFFFFFFFFFFFFFFFFFFFFFFFFFFFFFFFEA
:10270000FFFFFFFFFFFFFFFFFFFFFFFFFFFFFFFFD9
:10271000FFFFFFFFFFFFFFFFFFFFFFFFFFFFFFFFC9
:10272000FFFFFFFFFFFFFFFFFFFFFFFFFFFFFFFFB9
:10273000FFFFFFFFFFFFFFFFFFFFFFFFFFFFFFFFA9
:10274000FFFFFFFFFFFFFFFFFFFFFFFFFFFFFFFF99
:10275000FFFFFFFFFFFFFFFFFFFFFFFFFFFFFFFF89
:10276000FFFFFFFFFFFFFFFFFFFFFFFFFFFFFFFF79
:10277000FFFFFFFFFFFFFFFFFFFFFFFFFFFFFFFF69
:10278000FFFFFFFFFFFFFFFFBF9BA8ACB5B9BDC0B8
:10279000C0C7C7CACDCDCED0D2D4D4D5D4D6D5D447
:1027A000D3D5D4D3CECFCECCCAC5C5C1BFBDB9B5A4
:1027B000B1AEADAAA5A2A19B97969691918B8C8A5A
:1027C0008D8B84857E766E63E1FFFFFFFFFFFFFF49
:1027D000FFFFFFFFFFFFFFFFFFFFFFFFFFFFFFFF09
:1027E000FFFFFFFFFFFFFFFFFFFFFFFFFFFFFFFFF9
:1027F000FFFFFFFFFFFFFFFFFFFFFFFFFFFFFFFFE9
:10280000FFFFFFFFFFFFFFFFFFFFFFFFFFFFFFFFD8
:10281000FFFFFFFFFFFFFFFFFFFFFFFFFFFFFFFFC8
:10282000FFFFFFFFFFFFFFFFFFFFFFFFFFFFFFFFB8
:10283000FFFFFFFFFFFFFFFFFFFFFFFFFFFFFFFFA8
:10284000FFFFFFFFFFFFFFFFFFFFFFFFFFFFFFFF98
:10285000FFFFFFFFFFFFFFFFFFFFFFFFFFFFFFFF88
:10286000FFFFFFFFFFFFFFFFFFFFFFFFFFFFFFFF78
:10287000FFFFFFFFFFFFFFFFFFFFFFFFFFFFFFFF68
:10288000FFFFFFFFFFFFFFFFFFFFFFFFFFFFFFFF58
:10289000FFFFFFFFFFFFFFFFFFFFFFFFFFFFFFFF48
:1028A000FFFFFFFFFFFFFFFFFFFFFFFFFFFFFFFF38
:1028B000FFFFFFFFFFFFFFFFFFFFFFFFFFFFFFFF28
:1028C000FFFFFFFFFFFFFFC09BA7B1B5B9BBBFC1B3
:1028D000C4C7CACCCFD0D3D5D6D7D7D9D9D8D9D9D0
:1028E000D7D8D7D6D4D3D1CECBCAC8C4C2BFBBBA2F
:1028F000B7B3AFA9A8A49F9E99979592928E8B8B00
:1029000088868887807E756962E4FFFFFFFFFFFF8E
:10291000FFFFFFFFFFFFFFFFFFFFFFFFFFFFFFFFC7
:10292000FFFFFFFFFFFFFFFFFFFFFFFFFFFFFFFFB7
:10293000FFFFFFFFFFFFFFFFFFFFFFFFFFFFFFFFA7
:10294000FFFFFFFFFFFFFFFFFFFFFFFFFFFFFFFF97
:10295000FFFFFFFFFFFFFFFFFFFFFFFFFFFFFFFF87
:10296000FFFFFFFFFFFFFFFFFFFFFFFFFFFFFFFF77
:10297000FFFFFFFFFFFFFFFFFFFFFFFFFFFFFFFF67
:10298000FFFFFFFFFFFFFFFFFFFFFFFFFFFFFFFF57
:10299000FFFFFFFFFFFFFFFFFFFFFFFFFFFFFFFF47
:1029A000FFFFFFFFFFFFFFFFFFFFFFFFFFFFFFFF37
:1029B000FFFFFFFFFFFFFFFFFFFFFFFFFFFFFFFF27
:1029C000FFFFFFFFFFFFFFFFFFFFFFFFFFFFFFFF17
:1029D000FFFFFFFFFFFFFFFFFFFFFFFFFFFFFFFF07
:1029E000FFFFFFFFFFFFFFFFFFFFFFFFFFFFFFFFF7
:1029F000FFFFFFFFFFFFFFFFFFFFFFFFFFFFFFFFE7
:102A0000FFFFFFFFFFFFC59AA6AEB4B8BABFC1C6AD
:102A1000C8CBCDD0D3D4D4D8D9D9DCDCDDDEDCDD55
:102A2000DDDCDBD9D8D6D3D2D1CDCBC9C4C2BEB9B7
:102A3000B9B5AFAEA8A5A49F9C9A94918F8C8A88B3
:102A40008989878885817C706664E9FFFFFFFFFFC5
:102A5000FFFFFFFFFFFFFFFFFFFFFFFFFFFFFFFF86
:102A6000FFFFFFFFFFFFFFFFFFFFFFFFFFFFFFFF76
:102A7000FFFFFFFFFFFFFFFFFFFFFFFFFFFFFFFF66
:102A8000FFFFFFFFFFFFFFFFFFFFFFFFFFFFFFFF56
:102A9000FFFFFFFFFFFFFFFFFFFFFFFFFFFFFFFF46
:102AA000FFFFFFFFFFFFFFFFFFFFFFFFFFFFFFFF36
:102AB000FFFFFFFFFFFFFFFFFFFFFFFFFFFFFFFF26
:102AC000FFFFFFFFFFFFFFFFFFFFFFFFFFFFFFFF16
:102AD000FFFFFFFFFFFFFFFFFFFFFFFFFFFFFFFF06
:102AE000FFFFFFFFFFFFFFFFFFFFFFFFFFFFFFFFF6
:102AF000FFFFFFFFFFFFFFFFFFFFFFFFFFFFFFFFE6
:102B0000FFFFFFFFFFFFFFFFFFFFFFFFFFFFFFFFD5
:102B1000FFFFFFFFFFFFFFFFFFFFFFFFFFFFFFFFC5
:102B2000FFFFFFFFFFFFFFFFFFFFFFFFFFFFFFFFB5
:102B3000FFFFFFFFFFFFFFFFFFFFFFFFFFFFFFFFA5
:102B4000FFFFFFFFFFD697A4ADB4B8BBBFC3C4C798
:102B5000CBCECFD3D5D7D8DADCDFE0E1E1E1E1E1DC
:102B6000DFE0DFDEDCDAD8D4D3D0CEC9C8C4C1BD43
:102B7000B8B6B3AFACA8A4A19D999895918C8A8A58
:102B80008585848681827C7970666DF3FFFFFFFF07
:102B9000FFFFFFFFFFFFFFFFFFFFFFFFFFFFFFFF45
:102BA000FFFFFFFFFFFFFFFFFFFFFFFFFFFFFFFF35
:102BB000FFFFFFFFFFFFFFFFFFFFFFFFFFFFFFFF25
:102BC000FFFFFFFFFFFFFFFFFFFFFFFFFFFFFFFF15
:102BD000FFFFFFFFFFFFFFFFFFFFFFFFFFFFFFFF05
:102BE000FFFFFFFFFFFFFFFFFFFFFFFFFFFFFFFFF5
:102BF000FFFFFFFFFFFFFFFFFFFFFFFFFFFFFFFFE5
:102C0000FFFFFFFFFFFFFFFFFFFFFFFFFFFFFFFFD4
:102C1000FFFFFFFFFFFFFFFFFFFFFFFFFFFFFFFFC4
:102C2000FFFFFFFFFFFFFFFFFFFFFFFFFFFFFFFFB4
:102C3000FFFFFFFFFFFFFFFFFFFFFFFFFFFFFFFFA4
:102C4000FFFFFFFFFFFFFFFFFFFFFFFFFFFFFFFF94
:102C5000FFFFFFFFFFFFFFFFFFFFFFFFFFFFFFFF84
:102C6000FFFFFFFFFFFFFFFFFFFFFFFFFFFFFFFF74
:102C7000FFFFFFFFFFFFFFFFFFFFFFFFFFFFFFFF64
:102C8000FFFFFFFFE892A3ABB1B7B8BFC2C3C9CC87
:102C9000CED2D4D7D7DBDEDFE2E3E3E4E4E5E3E55D
:102CA000E5E3E2E0E0DEDADBD8D3D2CFCBC7C2C1C6
:102CB000BBBAB5B0ADAAA7A1A09D9894908E8D8700
:102CC0008987868385847F7B776E6482FFFFFFFF21
:102CD000FFFFFFFFFFFFFFFFFFFFFFFFFFFFFFFF04
:102CE000FFFFFFFFFFFFFFFFFFFFFFFFFFFFFFFFF4
:102CF000FFFFFFFFFFFFFFFFFFFFFFFFFFFFFFFFE4
:102D0000FFFFFFFFFFFFFFFFFFFFFFFFFFFFFFFFD3
:102D1000FFFFFFFFFFFFFFFFFFFFFFFFFFFFFFFFC3
:102D2000FFFFFFFFFFFFFFFFFFFFFFFFFFFFFFFFB3
:102D3000FFFFFFFFFFFFFFFFFFFFFFFFFFFFFFFFA3
:102D4000FFFFFFFFFFFFFFFFFFFFFFFFFFFFFFFF93
:102D5000FFFFFFFFFFFFFFFFFFFFFFFFFFFFFFFF83
:102D6000FFFFFFFFFFFFFFFFFFFFFFFFFFFFFFFF73
:102D7000FFFFFFFFFFFFFFFFFFFFFFFFFFFFFFFF63
:102D8000FFFFFFFFFFFFFFFFFFFFFFFFFFFFFFFF53
:102D9000FFFFFFFFFFFFFFFFFFFFFFFFFFFFFFFF43
:102DA000FFFFFFFFFFFFFFFFFFFFFFFFFFFFFFFF33
:102DB000FFFFFFFFFFFFFFFFFFFFFFFFFFFFFFFF23
:102DC000FFFFFFF7969EA9AFB3B8BDC1C1C6CACE7B
:102DD000D1D4D6D8DDDFE1E1E5E5E7E8E9E7E9E9E7
:102DE000E8E5E5E5E3DFDFDDDAD7D4D1CECBC8C156
:102DF000BDBCB6B4AFADA7A5A19A969693908A88AC
:102E000087868382828184817C746E5F9FFFFFFF4F
:102E1000FFFFFFFFFFFFFFFFFFFFFFFFFFFFFFFFC2
:102E2000FFFFFFFFFFFFFFFFFFFFFFFFFFFFFFFFB2
:102E3000FFFFFFFFFFFFFFFFFFFFFFFFFFFFFFFFA2
:102E4000FFFFFFFFFFFFFFFFFFFFFFFFFFFFFFFF92
:102E5000FFFFFFFFFFFFFFFFFFFFFFFFFFFFFFFF82
:102E6000FFFFFFFFFFFFFFFFFFFFFFFFFFFFFFFF72
:102E7000FFFFFFFFFFFFFFFFFFFFFFFFFFFFFFFF62
:102E8000FFFFFFFFFFFFFFFFFFFFFFFFFFFFFFFF52
:102E9000FFFFFFFFFFFFFFFFFFFFFFFFFFFFFFFF42
:102EA000FFFFFFFFFFFFFFFFFFFFFFFFFFFFFFFF32
:102EB000FFFFFFFFFFFFFFFFFFFFFFFFFFFFFFFF22
:102EC000FFFFFFFFFFFFFFFFFFFFFFFFFFFFFFFF12
:102ED000FFFFFFFFFFFFFFFFFFFFFFFFFFFFFFFF02
:102EE000FFFFFFFFFFFFFFFFFFFFFFFFFFFFFFFFF2
:102EF000FFFFFFFFFFFFFFFFFFFFFFFFFFFFFFFFE2
:102F0000FFFFFFAB9BA6ABB3B6BBBDC0C6C9CFD15D
:102F1000D4D6DADEE1E1E5E6E6EAECEBEDEDEDEC68
:102F2000EBEBEAE9E6E4E2E0DDDAD7D4D1CFC8C6DC
:102F3000C0BBB9B5B2ADAAA5A09C9A97918F8D8858
:102F4000898381808282847F8077716A5DD0FFFF70
:102F5000FFFFFFFFFFFFFFFFFFFFFFFFFFFFFFFF81
:102F6000FFFFFFFFFFFFFFFFFFFFFFFFFFFFFFFF71
:102F7000FFFFFFFFFFFFFFFFFFFFFFFFFFFFFFFF61
:102F8000FFFFFFFFFFFFFFFFFFFFFFFFFFFFFFFF51
:102F9000FFFFFFFFFFFFFFFFFFFFFFFFFFFFFFFF41
:102FA000FFFFFFFFFFFFFFFFFFFFFFFFFFFFFFFF31
:102FB000FFFFFFFFFFFFFFFFFFFFFFFFFFFFFFFF21
:102FC000FFFFFFFFFFFFFFFFFFFFFFFFFFFFFFFF11
:102FD000FFFFFFFFFFFFFFFFFFFFFFFFFFFFFFFF01
:102FE000FFFFFFFFFFFFFFFFFFFFFFFFFFFFFFFFF1
:102FF000FFFFFFFFFFFFFFFFFFFFFFFFFFFFFFFFE1
:10300000FFFFFFFFFFFFFFFFFFFFFFFFFFFFFFFFD0
:10301000FFFFFFFFFFFFFFFFFFFFFFFFFFFFFFFFC0
:10302000FFFFFFFFFFFFFFFFFFFFFFFFFFFFFFFFB0
:10303000FFFFFFFFFFFFFFFFFFFFFFFFFFFFFFFFA0
:10304000FFFFCD94A1A8B0B5B9BCBFC3C7CDCFD346
:10305000D7DADDDEE2E5E7EAEBEDEEF0F0F1F1F1F3
:10306000F0EFECECEAE8E6E1DFDDDAD7D2D0CCC66F
:10307000C3BDBCB6B2AEAAA7A1A09C9694918C8CFD
:10308000858283827F7D7F817D7C74726461F2FFA3
:10309000FFFFFFFFFFFFFFFFFFFFFFFFFFFFFFFF40
:1030A000FFFFFFFFFFFFFFFFFFFFFFFFFFFFFFFF30
:1030B000FFFFFFFFFFFFFFFFFFFFFFFFFFFFFFFF20
:1030C000FFFFFFFFFFFFFFFFFFFFFFFFFFFFFFFF10
:1030D000FFFFFFFFFFFFFFFFFFFFFFFFFFFFFFFF00
:1030E000FFFFFFFFFFFFFFFFFFFFFFFFFFFFFFFFF0
:1030F000FFFFFFFFFFFFFFFFFFFFFFFFFFFFFFFFE0
:10310000FFFFFFFFFFFFFFFFFFFFFFFFFFFFFFFFCF
:10311000FFFFFFFFFFFFFFFFFFFFFFFFFFFFFFFFBF
:10312000FFFFFFFFFFFFFFFFFFFFFFFFFFFFFFFFAF
:10313000FFFFFFFFFFFFFFFFFFFFFFFFFFFFFFFF9F
:10314000FFFFFFFFFFFFFFFFFFFFFFFFFFFFFFFF8F
:10315000FFFFFFFFFFFFFFFFFFFFFFFFFFFFFFFF7F
:10316000FFFFFFFFFFFFFFFFFFFFFFFFFFFFFFFF6F
:10317000FFFFFFFFFFFFFFFFFFFFFFFFFFFFFFFF5F
:10318000FFF18E9BA6ADB2B5BBBDC0C6CBCCD0D631
:10319000D7DDE0E3E5E8EAECEEF0F2F2F4F3F4F484
:1031A000F3F2F1EFEDECE8E6E4DEDDD9D6D1CCCAFE
:1031B000C6C1BDB8B5AEABA7A5A09D9792908F88AC
:1031C0008686808281807E81807F7A756C5F92FFA7
:1031D000FFFFFFFFFFFFFFFFFFFFFFFFFFFFFFFFFF
:1031E000FFFFFFFFFFFFFFFFFFFFFFFFFFFFFFFFEF
:1031F000FFFFFFFFFFFFFFFFFFFFFFFFFFFFFFFFDF
:10320000FFFFFFFFFFFFFFFFFFFFFFFFFFFFFFFFCE
:10321000FFFFFFFFFFFFFFFFFFFFFFFFFFFFFFFFBE
:10322000FFFFFFFFFFFFFFFFFFFFFFFFFFFFFFFFAE
:10323000FFFFFFFFFFFFFFFFFFFFFFFFFFFFFFFF9E
:10324000FFFFFFFFFFFFFFFFFFFFFFFFFFFFFFFF8E
:10325000FFFFFFFFFFFFFFFFFFFFFFFFFFFFFFFF7E
:10326000FFFFFFFFFFFFFFFFFFFFFFFFFFFFFFFF6E
:10327000FFFFFFFFFFFFFFFFFFFFFFFFFFFFFFFF5E
:10328000FFFFFFFFFFFFFFFFFFFFFFFFFFFFFFFF4E
:10329000FFFFFFFFFFFFFFFFFFFFFFFFFFFFFFFF3E
:1032A000FFFFFFFFFFFFFFFFFFFFFFFFFFFFFFFF2E
:1032B000FFFFFFFFFFFFFFFFFFFFFFFFFFFFFFFF1E
:1032C000FFA996A3AAAFB2B6BBC0C2C9CBD0D4D611
:1032D000DBDEE0E4E7EAEDEFF1F4F5F7F7F9F7F715
:1032E000F6F6F4F2F0EDEBE9E4E2DEDBD8D3D0CC95
:1032F000C8C2BFBCB6B0AEA9A49F9C9993928C895A
:103300008883807F7E7D7F7D7E7F7B7A746959D2C2
:10331000FFFFFFFFFFFFFFFFFFFFFFFFFFFFFFFFBD
:10332000FFFFFFFFFFFFFFFFFFFFFFFFFFFFFFFFAD
:10333000FFFFFFFFFFFFFFFFFFFFFFFFFFFFFFFF9D
:10334000FFFFFFFFFFFFFFFFFFFFFFFFFFFFFFFF8D
:10335000FFFFFFFFFFFFFFFFFFFFFFFFFFFFFFFF7D
:10336000FFFFFFFFFFFFFFFFFFFFFFFFFFFFFFFF6D
:10337000FFFFFFFFFFFFFFFFFFFFFFFFFFFFFFFF5D
:10338000FFFFFFFFFFFFFFFFFFFFFFFFFFFFFFFF4D
:10339000FFFFFFFFFFFFFFFFFFFFFFFFFFFFFFFF3D
:1033A000FFFFFFFFFFFFFFFFFFFFFFFFFFFFFFFF2D
:1033B000FFFFFFFFFFFFFFFFFFFFFFFFFFFFFFFF1D
:1033C000FFFFFFFFFFFFFFFFFFFFFFFFFFFFFFFF0D
:1033D000FFFFFFFFFFFFFFFFFFFFFFFFFFFFFFFFFD
:1033E000FFFFFFFFFFFFFFFFFFFFFFFFFFFFFFFFED
:1033F000FFFFFFFFFFFFFFFFFFFFFFFFFFFFFFFFDD
:10340000DA8F9DA6ACB1B4B8BEBFC4CACED2D4D8F0
:10341000DDE1E2E5EAEDF0F2F5F7F8FAFAFBFBFBA5
:10342000FBFAF6F5F4EFEEEBE8E5E1DDD9D3D1CD2B
:10343000C9C6C0B9B7B3AEABA5A1A09895938F8C00
:10344000888280807D7B7B7C7E7D7F79746F636BDF
:10345000FEFFFFFFFFFFFFFFFFFFFFFFFFFFFFFF7D
:10346000FFFFFFFFFFFFFFFFFFFFFFFFFFFFFFFF6C
:10347000FFFFFFFFFFFFFFFFFFFFFFFFFFFFFFFF5C
:10348000FFFFFFFFFFFFFFFFFFFFFFFFFFFFFFFF4C
:10349000FFFFFFFFFFFFFFFFFFFFFFFFFFFFFFFF3C
:1034A000FFFFFFFFFFFFFFFFFFFFFFFFFFFFFFFF2C
:1034B000FFFFFFFFFFFFFFFFFFFFFFFFFFFFFFFF1C
:1034C000FFFFFFFFFFFFFFFFFFFFFFFFFFFFFFFF0C
:1034D000FFFFFFFFFFFFFFFFFFFFFFFFFFFFFFFFFC
:1034E000FFFFFFFFFFFFFFFFFFFFFFFFFFFFFFFFEC
:1034F000FFFFFFFFFFFFFFFFFFFFFFFFFFFFFFFFDC
:10350000FFFFFFFFFFFFFFFFFFFFFFFFFFFFFFFFCB
:10351000FFFFFFFFFFFFFFFFFFFFFFFFFFFFFFFFBB
:10352000FFFFFFFFFFFFFFFFFFFFFFFFFFFFFFFFAB
:10353000FFFFFFFFFFFFFFFFFFFFFFFFFFFFFFFF9B
:103540009896A0A8ACB2B6B8BCC2C5CBCFD1D7DDD7
:10355000E0E1E6EAEDEFF1F5F7FAFBFCFDFCFEFE3B
:10356000FCFCFAF9F4F4EEEDEAE7E3DFDCD7D1CDC9
:10357000CAC4C2BCB6B3AEABA6A19E9995919089C0
:103580008885837D7D7E7E7C7A7D7A7F7A726A5B98
:10359000B6FFFFFFFFFFFFFFFFFFFFFFFFFFFFFF84
:1035A000FFFFFFFFFFFFFFFFFFFFFFFFFFFFFFFF2B
:1035B000FFFFFFFFFFFFFFFFFFFFFFFFFFFFFFFF1B
:1035C000FFFFFFFFFFFFFFFFFFFFFFFFFFFFFFFF0B
:1035D000FFFFFFFFFFFFFFFFFFFFFFFFFFFFFFFFFB
:1035E000FFFFFFFFFFFFFFFFFFFFFFFFFFFFFFFFEB
:1035F000FFFFFFFFFFFFFFFFFFFFFFFFFFFFFFFFDB
:10360000FFFFFFFFFFFFFFFFFFFFFFFFFFFFFFFFCA
:10361000FFFFFFFFFFFFFFFFFFFFFFFFFFFFFFFFBA
:10362000FFFFFFFFFFFFFFFFFFFFFFFFFFFFFFFFAA
:10363000FFFFFFFFFFFFFFFFFFFFFFFFFFFFFFFF9A
:10364000FFFFFFFFFFFFFFFFFFFFFFFFFFFFFFFF8A
:10365000FFFFFFFFFFFFFFFFFFFFFFFFFFFFFFFF7A
:10366000FFFFFFFFFFFFFFFFFFFFFFFFFFFFFFFF6A
:10367000FFFFFFFFFFFFFFFFFFFFFFFFFFFFFFD287
:103680008F9BA5ABAEB1B4BABFC4C9CCCED4D8DB86
:10369000DFE5E8EBEEF1F5F8FAFBFDFEFFFFFFFFDB
:1036A000FEFEFDFAF9F6F2EFEBE7E5E2DDD6D5D066
:1036B000CCC7C2BDB9B4B0AAA5A29F9B96918D8B71
:1036C000878380817F7C7A7E7E7E7E807D7A706338
:1036D0005DFAFFFFFFFFFFFFFFFFFFFFFFFFFFFFA1
:1036E000FFFFFFFFFFFFFFFFFFFFFFFFFFFFFFFFEA
:1036F000FFFFFFFFFFFFFFFFFFFFFFFFFFFFFFFFDA
:10370000FFFFFFFFFFFFFFFFFFFFFFFFFFFFFFFFC9
:10371000FFFFFFFFFFFFFFFFFFFFFFFFFFFFFFFFB9
:10372000FFFFFFFFFFFFFFFFFFFFFFFFFFFFFFFFA9
:10373000FFFFFFFFFFFFFFFFFFFFFFFFFFFFFFFF99
:10374000FFFFFFFFFFFFFFFFFFFFFFFFFFFFFFFF89
:10375000FFFFFFFFFFFFFFFFFFFFFFFFFFFFFFFF79
:10376000FFFFFFFFFFFFFFFFFFFFFFFFFFFFFFFF69
:10377000FFFFFFFFFFFFFFFFFFFFFFFFFFFFFFFF59
:10378000FFFFFFFFFFFFFFFFFFFFFFFFFFFFFFFF49
:10379000FFFFFFFFFFFFFFFFFFFFFFFFFFFFFFFF39
:1037A000FFFFFFFFFFFFFFFFFFFFFFFFFFFFFFFF29
:1037B000FFFFFFFFFFFFFFFFFFFFFFFFFFFFFF9187
:1037C000939EA5A9B2B1B6BABDC2C9CED2D6D9DE32
:1037D000E2E5E9ECEFF0F6F8FCFEFFFFFFFFFFFF8C
:1037E000FFFFFEFDFBF8F4F0EDEAE6E1DED9D3D110
:1037F000CBC8C1BCB9B3B3AAA7A39E9995938E8A2F
:103800008883827E7A7C7B777B787D7C7D7A736D02
:103810005AB3FFFFFFFFFFFFFFFFFFFFFFFFFFFFA9
:10382000FFFFFFFFFFFFFFFFFFFFFFFFFFFFFFFFA8
:10383000FFFFFFFFFFFFFFFFFFFFFFFFFFFFFFFF98
:10384000FFFFFFFFFFFFFFFFFFFFFFFFFFFFFFFF88
:10385000FFFFFFFFFFFFFFFFFFFFFFFFFFFFFFFF78
:10386000FFFFFFFFFFFFFFFFFFFFFFFFFFFFFFFF68
:10387000FFFFFFFFFFFFFFFFFFFFFFFFFFFFFFFF58
:10388000FFFFFFFFFFFFFFFFFFFFFFFFFFFFFFFF48
:10389000FFFFFFFFFFFFFFFFFFFFFFFFFFFFFFFF38
:1038A000FFFFFFFFFFFFFFFFFFFFFFFFFFFFFFFF28
:1038B000FFFFFFFFFFFFFFFFFFFFFFFFFFFFFFFF18
:1038C000FFFFFFFFFFFFFFFFFFFFFFFFFFFFFFFF08
:1038D000FFFFFFFFFFFFFFFFFFFFFFFFFFFFFFFFF8
:1038E000FFFFFFFFFFFFFFFFFFFFFFFFFFFFFFFFE8
:1038F000FFFFFFFFFFFFFFFFFFFFFFFFFFFFD78B74
:10390000989FA6ACADB4B8BBBEC5CACCD2D6DADFE0
:10391000E3E6EBEEF1F4F8FBFEFFFFFFFFFFFFFF36
:10392000FFFFFFFEFCFAF6F0EEEAE7E4DFDAD5D0BF
:10393000CEC8C2BDB9B7AFACA7A39D9B9791908BE2
:1039400086857F7D7E7C7879777B7A7B7D7B7A6CC0
:103950006262FFFFFFFFFFFFFFFFFFFFFFFFFFFFB1
:10396000FFFFFFFFFFFFFFFFFFFFFFFFFFFFFFFF67
:10397000FFFFFFFFFFFFFFFFFFFFFFFFFFFFFFFF57
:10398000FFFFFFFFFFFFFFFFFFFFFFFFFFFFFFFF47
:10399000FFFFFFFFFFFFFFFFFFFFFFFFFFFFFFFF37
:1039A000FFFFFFFFFFFFFFFFFFFFFFFFFFFFFFFF27
:1039B000FFFFFFFFFFFFFFFFFFFFFFFFFFFFFFFF17
:1039C000FFFFFFFFFFFFFFFFFFFFFFFFFFFFFFFF07
:1039D000FFFFFFFFFFFFFFFFFFFFFFFFFFFFFFFFF7
:1039E000FFFFFFFFFFFFFFFFFFFFFFFFFFFFFFFFE7
:1039F000FFFFFFFFFFFFFFFFFFFFFFFFFFFFFFFFD7
:103A0000FFFFFFFFFFFFFFFFFFFFFFFFFFFFFFFFC6
:103A1000FFFFFFFFFFFFFFFFFFFFFFFFFFFFFFFFB6
:103A2000FFFFFFFFFFFFFFFFFFFFFFFFFFFFFFFFA6
:103A3000FFFFFFFFFFFFFFFFFFFFFFFFFFFF9A906A
:103A40009AA3A7AAAEB2B7BCC0C6C9CED0D7DBDF97
:103A5000E3E7EBEEF1F5FAFCFFFFFFFFFFFFFFFFEF
:103A6000FFFFFFFFFDF9F7F3EDEBE6E4DFDBD5D376
:103A7000CDC9C3BEBBB5B0ACA7A39E9B95938C8AA2
:103A80008684827C7C7879777A787B7B7E7E7B7378
:103A90006759C8FFFFFFFFFFFFFFFFFFFFFFFFFFAB
:103AA000FFFFFFFFFFFFFFFFFFFFFFFFFFFFFFFF26
:103AB000FFFFFFFFFFFFFFFFFFFFFFFFFFFFFFFF16
:103AC000FFFFFFFFFFFFFFFFFFFFFFFFFFFFFFFF06
:103AD000FFFFFFFFFFFFFFFFFFFFFFFFFFFFFFFFF6
:103AE000FFFFFFFFFFFFFFFFFFFFFFFFFFFFFFFFE6
:103AF000FFFFFFFFFFFFFFFFFFFFFFFFFFFFFFFFD6
:103B0000FFFFFFFFFFFFFFFFFFFFFFFFFFFFFFFFC5
:103B1000FFFFFFFFFFFFFFFFFFFFFFFFFFFFFFFFB5
:103B2000FFFFFFFFFFFFFFFFFFFFFFFFFFFFFFFFA5
:103B3000FFFFFFFFFFFFFFFFFFFFFFFFFFFFFFFF95
:103B4000FFFFFFFFFFFFFFFFFFFFFFFFFFFFFFFF85
:103B5000FFFFFFFFFFFFFFFFFFFFFFFFFFFFFFFF75
:103B6000FFFFFFFFFFFFFFFFFFFFFFFFFFFFFFFF65
:103B7000FFFFFFFFFFFFFFFFFFFFFFFFFFEA86944E
:103B80009EA3A4A9B0B4B8BAC2C6CACDD4D8DCDE4C
:103B9000E2E8EAEFF1F6FAFDFFFFFFFFFFFFFFFFAC
:103BA000FFFFFFFFFDFBF9F4F0ECE8E3DDDBD7D22C
:103BB000CDCAC4BFB8B3B1ADA8A1A19C97908F8C5A
:103BC0008A84807C7977777977777A7C7D7C79763F
:103BD0006E607EFFFFFFFFFFFFFFFFFFFFFFFFFFA6
:103BE000FFFFFFFFFFFFFFFFFFFFFFFFFFFFFFFFE5
:103BF000FFFFFFFFFFFFFFFFFFFFFFFFFFFFFFFFD5
:103C0000FFFFFFFFFFFFFFFFFFFFFFFFFFFFFFFFC4
:103C1000FFFFFFFFFFFFFFFFFFFFFFFFFFFFFFFFB4
:103C2000FFFFFFFFFFFFFFFFFFFFFFFFFFFFFFFFA4
:103C3000FFFFFFFFFFFFFFFFFFFFFFFFFFFFFFFF94
:103C4000FFFFFFFFFFFFFFFFFFFFFFFFFFFFFFFF84
:103C5000FFFFFFFFFFFFFFFFFFFFFFFFFFFFFFFF74
:103C6000FFFFFFFFFFFFFFFFFFFFFFFFFFFFFFFF64
:103C7000FFFFFFFFFFFFFFFFFFFFFFFFFFFFFFFF54
:103C8000FFFFFFFFFFFFFFFFFFFFFFFFFFFFFFFF44
:103C9000FFFFFFFFFFFFFFFFFFFFFFFFFFFFFFFF34
:103CA000FFFFFFFFFFFFFFFFFFFFFFFFFFFFFFFF24
:103CB000FFFFFFFFFFFFFFFFFFFFFFFFFFB88A943B
:103CC0009CA3A5ACAEB1B7BCBFC4CACED2D8DAE013
:103CD000E4E8ECF0F3F7FBFEFFFFFFFFFFFFFFFF61
:103CE000FFFFFFFFFEFCF8F4EFECE8E4DFDBD6D2E9
:103CF000CDC7C2BDB8B5B0A9A6A39D9895928D8C2D
:103D00008686817C7C787976767676787C7C7F79FD
:103D10006E6554E8FFFFFFFFFFFFFFFFFFFFFFFFA0
:103D2000FFFFFFFFFFFFFFFFFFFFFFFFFFFFFFFFA3
:103D3000FFFFFFFFFFFFFFFFFFFFFFFFFFFFFFFF93
:103D4000FFFFFFFFFFFFFFFFFFFFFFFFFFFFFFFF83
:103D5000FFFFFFFFFFFFFFFFFFFFFFFFFFFFFFFF73
:103D6000FFFFFFFFFFFFFFFFFFFFFFFFFFFFFFFF63
:103D7000FFFFFFFFFFFFFFFFFFFFFFFFFFFFFFFF53
:103D8000FFFFFFFFFFFFFFFFFFFFFFFFFFFFFFFF43
:103D9000FFFFFFFFFFFFFFFFFFFFFFFFFFFFFFFF33
:103DA000FFFFFFFFFFFFFFFFFFFFFFFFFFFFFFFF23
:103DB000FFFFFFFFFFFFFFFFFFFFFFFFFFFFFFFF13
:103DC000FFFFFFFFFFFFFFFFFFFFFFFFFFFFFFFF03
:103DD000FFFFFFFFFFFFFFFFFFFFFFFFFFFFFFFFF3
:103DE000FFFFFFFFFFFFFFFFFFFFFFFFFFFFFFFFE3
:103DF000FFFFFFFFFFFFFFFFFFFFFFFFFF898E9524
:103E00009FA4A8A9AFB4B5BBC0C5CACDD4D8DBDFC9
:103E1000E2E8ECEEF1F7FAFDFFFFFFFFFFFFFFFF27
:103E2000FFFFFFFFFEFCF8F4EFEAE8E3DFDBD7D2A9
:103E3000CDC8C3BFBAB3B0ACA6A29E9A9493908CDF
:103E400086847D7E7C7A7677757775787D807C7CBC
:103E5000766959B0FFFFFFFFFFFFFFFFFFFFFFFF86
:103E6000FFFFFFFFFFFFFFFFFFFFFFFFFFFFFFFF62
:103E7000FFFFFFFFFFFFFFFFFFFFFFFFFFFFFFFF52
:103E8000FFFFFFFFFFFFFFFFFFFFFFFFFFFFFFFF42
:103E9000FFFFFFFFFFFFFFFFFFFFFFFFFFFFFFFF32
:103EA000FFFFFFFFFFFFFFFFFFFFFFFFFFFFFFFF22
:103EB000FFFFFFFFFFFFFFFFFFFFFFFFFFFFFFFF12
:103EC000FFFFFFFFFFFFFFFFFFFFFFFFFFFFFFFF02
:103ED000FFFFFFFFFFFFFFFFFFFFFFFFFFFFFFFFF2
:103EE000FFFFFFFFFFFFFFFFFFFFFFFFFFFFFFFFE2
:103EF000FFFFFFFFFFFFFFFFFFFFFFFFFFFFFFFFD2
:103F0000FFFFFFFFFFFFFFFFFFFFFFFFFFFFFFFFC1
:103F1000FFFFFFFFFFFFFFFFFFFFFFFFFFFFFFFFB1
:103F2000FFFFFFFFFFFFFFFFFFFFFFFFFFFFFFFFA1
:103F3000FFFFFFFFFFFFFFFFFFFFFFFFE084909900
:103F40009CA3A4ABAEB3B6BBBFC3C9CDD3D6DDE093
:103F5000E6EAEDEFF2F6FBFDFFFFFFFFFFFFFFFFDD
:103F6000FFFFFFFFFEFBF7F4EDEBE8E1DEDBD5D270
:103F7000CBC8C1BEB7B5AEABA6A19D9896938E88AF
:103F80008782807E79767773767475767B7A7F7D8B
:103F9000786D5E6FFFFFFFFFFFFFFFFFFFFFFFFF7B
:103FA000FFFFFFFFFFFFFFFFFFFFFFFFFFFFFFFF21
:103FB000FFFFFFFFFFFFFFFFFFFFFFFFFFFFFFFF11
:103FC000FFFFFFFFFFFFFFFFFFFFFFFFFFFFFFFF01
:103FD000FFFFFFFFFFFFFFFFFFFFFFFFFFFFFFFFF1
:103FE000FFFFFFFFFFFFFFFFFFFFFFFFFFFFFFFFE1
:103FF000FFFFFFFFFFFFFFFFFFFFFFFFFFFFFFFFD1
:10400000FFFFFFFFFFFFFFFFFFFFFFFFFFFFFFFFC0
:10401000FFFFFFFFFFFFFFFFFFFFFFFFFFFFFFFFB0
:10402000FFFFFFFFFFFFFFFFFFFFFFFFFFFFFFFFA0
:10403000FFFFFFFFFFFFFFFFFFFFFFFFFFFFFFFF90
:10404000FFFFFFFFFFFFFFFFFFFFFFFFFFFFFFFF80
:10405000FFFFFFFFFFFFFFFFFFFFFFFFFFFFFFFF70
:10406000FFFFFFFFFFFFFFFFFFFFFFFFFFFFFFFF60
:10407000FFFFFFFFFFFFFFFFFFFFFFFFBA83919AE4
:104080009FA1A6A7ADAFB6BABFC4C8CED2C892A9E9
:10409000A39ABAE5F3F5F9FCFEFFFFFFFFFFFFFF70
:1040A000FFFFFFFFFDFAF7F2EEEAE6E2DDD9D5CE3B
:1040B000CCC7C2BBB8B1AFA8A5A29C999493908B72
:1040C0008482817C7977747671757577787E7B7E52
:1040D00077706352EDFFFFFFFFFFFFFFFFFFFFFF62
:1040E000FFFFFFFFFFFFFFFFFFFFFFFFFFFFFFFFE0
:1040F000FFFFFFFFFFFFFFFFFFFFFFFFFFFFFFFFD0
:10410000FFFFFFFFFFFFFFFFFFFFFFFFFFFFFFFFBF
:10411000FFFFFFFFFFFFFFFFFFFFFFFFFFFFFFFFAF
:10412000FFFFFFFFFFFFFFFFFFFFFFFFFFFFFFFF9F
:10413000FFFFFFFFFFFFFFFFFFFFFFFFFFFFFFFF8F
:10414000FFFFFFFFFFFFFFFFFFFFFFFFFFFFFFFF7F
:10415000FFFFFFFFFFFFFFFFFFFFFFFFFFFFFFFF6F
:10416000FFFFFFFFFFFFFFFFFFFFFFFFFFFFFFFF5F
:10417000FFFFFFFFFFFFFFFFFFFFFFFFFFFFFFFF4F
:10418000FFFFFFFFFFFFFFFFFFFFFFFFFFFFFFFF3F
:10419000FFFFFFFFFFFFFFFFFFFFFFFFFFFFFFFF2F
:1041A000FFFFFFFFFFFFFFFFFFFFFFFFFFFFFFFF1F
:1041B000FFFFFFFFFFFFFFFFFFFFFFFF91879099CA
:1041C0009B9FA3A9AEAFB6BABEC1C6CDD38FB7FC75
:1041D000F9F2C79EABE6F8FBFEFFFFFFFFFFFFFF14
:1041E000FFFFFFFEFCF9F5F1EDE9E4E1DCD8D4CF07
:1041F000C9C5BEBBB5B3AFA8A59F9C9994918D8945
:1042000086847E7B7B75767473727474767A808014
:104210007A736656BCFFFFFFFFFFFFFFFFFFFFFF44
:10422000FFFFFFFFFFFFFFFFFFFFFFFFFFFFFFFF9E
:10423000FFFFFFFFFFFFFFFFFFFFFFFFFFFFFFFF8E
:10424000FFFFFFFFFFFFFFFFFFFFFFFFFFFFFFFF7E
:10425000FFFFFFFFFFFFFFFFFFFFFFFFFFFFFFFF6E
:10426000FFFFFFFFFFFFFFFFFFFFFFFFFFFFFFFF5E
:10427000FFFFFFFFFFFFFFFFFFFFFFFFFFFFFFFF4E
:10428000FFFFFFFFFFFFFFFFFFFFFFFFFFFFFFFF3E
:10429000FFFFFFFFFFFFFFFFFFFFFFFFFFFFFFFF2E
:1042A000FFFFFFFFFFFFFFFFFFFFFFFFFFFFFFFF1E
:1042B000FFFFFFFFFFFFFFFFFFFFFFFFFFFFFFFF0E
:1042C000FFFFFFFFFFFFFFFFFFFFFFFFFFFFFFFFFE
:1042D000FFFFFFFFFFFFFFFFFFFFFFFFFFFFFFFFEE
:1042E000FFFFFFFFFFFFFFFFFFFFFFFFFFFFFFFFDE
:1042F000FFFFFFFFFFFFFFFFFFFFFFF97B879498A2
:104300009E9FA1A6ADAFB3B6BDC1C5CCD07FB4CE84
:10431000D4E4F1F1E0CDF6F9FCFEFFFFFFFFFFFF73
:10432000FFFFFEFDFAF7F2F0EBE7E3DFDBD5D2CDDE
:10433000C9C2BFBAB5B1ADA7A49E9C9793908E8811
:104340008681807A787573727073727575797E80E4
:104350007B75675998FFFFFFFFFFFFFFFFFFFFFF20
:10436000FFFFFFFFFFFFFFFFFFFFFFFFFFFFFFFF5D
:10437000FFFFFFFFFFFFFFFFFFFFFFFFFFFFFFFF4D
:10438000FFFFFFFFFFFFFFFFFFFFFFFFFFFFFFFF3D
:10439000FFFFFFFFFFFFFFFFFFFFFFFFFFFFFFFF2D
:1043A000FFFFFFFFFFFFFFFFFFFFFFFFFFFFFFFF1D
:1043B000FFFFFFFFFFFFFFFFFFFFFFFFFFFFFFFF0D
:1043C000FFFFFFFFFFFFFFFFFFFFFFFFFFFFFFFFFD
:1043D000FFFFFFFFFFFFFFFFFFFFFFFFFFFFFFFFED
:1043E000FFFFFFFFFFFFFFFFFFFFFFFFFFFFFFFFDD
:1043F000FFFFFFFFFFFFFFFFFFFFFFFFFFFFFFFFCD
:10440000FFFFFFFFFFFFFFFFFFFFFFFFFFFFFFFFBC
:10441000FFFFFFFFFFFFFFFFFFFFFFFFFFFFFFFFAC
:10442000FFFFFFFFFFFFFFFFFFFFFFFFFFFFFFFF9C
:10443000FFFFFFFFFFFFFFFFFFFFFFD87F8A91997C
:104440009CA0A0A6A8ADB4B7BEC1BCBCAF7DA6AFB2
:10445000AFADAFC8E2D1FBF6FAFCFEFFFFFFFFFFF6
:10446000FFFEFDFBF8F4F2EDEAE5E2DED9D5D0CCB3
:10447000C5C2BEB9B2AEABA5A49F9D9793918C8ADD
:104480008383807E78757273716F717378777D7DA9
:1044900079776C5F63FFFFFFFFFFFFFFFFFFFFFF09
:1044A000FFFFFFFFFFFFFFFFFFFFFFFFFFFFFFFF1C
:1044B000FFFFFFFFFFFFFFFFFFFFFFFFFFFFFFFF0C
:1044C000FFFFFFFFFFFFFFFFFFFFFFFFFFFFFFFFFC
:1044D000FFFFFFFFFFFFFFFFFFFFFFFFFFFFFFFFEC
:1044E000FFFFFFFFFFFFFFFFFFFFFFFFFFFFFFFFDC
:1044F000FFFFFFFFFFFFFFFFFFFFFFFFFFFFFFFFCC
:10450000FFFFFFFFFFFFFFFFFFFFFFFFFFFFFFFFBB
:10451000FFFFFFFFFFFFFFFFFFFFFFFFFFFFFFFFAB
:10452000FFFFFFFFFFFFFFFFFFFFFFFFFFFFFFFF9B
:10453000FFFFFFFFFFFFFFFFFFFFFFFFFFFFFFFF8B
:10454000FFFFFFFFFFFFFFFFFFFFFFFFFFFFFFFF7B
:10455000FFFFFFFFFFFFFFFFFFFFFFFFFFFFFFFF6B
:10456000FFFFFFFFFFFFFFFFFFFFFFFFFFFFFFFF5B
:10457000FFFFFFFFFFFFFFFFFFFFFFBD7F8C929755
:10458000999B9FA6A8ACAEA092847E7D7A7C7A810E
:104590008B96A7AF9FA9FBF3F7FAFBFCFEFEFEFE8E
:1045A000FDFCFAF8F5F2EEEAE5E3DFDCD5D3CEC99F
:1045B000C5C1BAB5B2B0A9A4A3A09A94948F8A86B3
:1045C000837E7E79797374707270727174787F7D76
:1045D0007A7971624CF5FFFFFFFFFFFFFFFFFFFFDE
:1045E000FFFFFFFFFFFFFFFFFFFFFFFFFFFFFFFFDB
:1045F000FFFFFFFFFFFFFFFFFFFFFFFFFFFFFFFFCB
:10460000FFFFFFFFFFFFFFFFFFFFFFFFFFFFFFFFBA
:10461000FFFFFFFFFFFFFFFFFFFFFFFFFFFFFFFFAA
:10462000FFFFFFFFFFFFFFFFFFFFFFFFFFFFFFFF9A
:10463000FFFFFFFFFFFFFFFFFFFFFFFFFFFFFFFF8A
:10464000FFFFFFFFFFFFFFFFFFFFFFFFFFFFFFFF7A
:10465000FFFFFFFFFFFFFFFFFFFFFFFFFFFFFFFF6A
:10466000FFFFFFFFFFFFFFFFFFFFFFFFFFFFFFFF5A
:10467000FFFFFFFFFFFFFFFFFFFFFFFFFFFFFFFF4A
:10468000FFFFFFFFFFFFFFFFFFFFFFFFFFFFFFFF3A
:10469000FFFFFFFFFFFFFFFFFFFFFFFFFFFFFFFF2A
:1046A000FFFFFFFFFFFFFFFFFFFFFFFFFFFFFFFF1A
:1046B000FFFFFFFFFFFFFFFFFFFFFFA58089929431
:1046C0009B9D9EA2A8A0969490888B8787848783C1
:1046D00080827F898DD1F5F0F3F6F8FAFBFBFBFBC6
:1046E000FAF8F6F4F0EFEBE8E4DFDDD8D4D2CBC88B
:1046F000C3BDBAB6B2ADABA69F9C9B95948C8B857F
:1047000086817B7C76747570706F6F74767A7D812C
:104710007D78716551D5FFFFFFFFFFFFFFFFFFFFB2
:10472000FFFFFFFFFFFFFFFFFFFFFFFFFFFFFFFF99
:10473000FFFFFFFFFFFFFFFFFFFFFFFFFFFFFFFF89
:10474000FFFFFFFFFFFFFFFFFFFFFFFFFFFFFFFF79
:10475000FFFFFFFFFFFFFFFFFFFFFFFFFFFFFFFF69
:10476000FFFFFFFFFFFFFFFFFFFFFFFFFFFFFFFF59
:10477000FFFFFFFFFFFFFFFFFFFFFFFFFFFFFFFF49
:10478000FFFFFFFFFFFFFFFFFFFFFFFFFFFFFFFF39
:10479000FFFFFFFFFFFFFFFFFFFFFFFFFFFFFFFF29
:1047A000FFFFFFFFFFFFFFFFFFFFFFFFFFFFFFFF19
:1047B000FFFFFFFFFFFFFFFFFFFFFFFFFFFFFFFF09
:1047C000FFFFFFFFFFFFFFFFFFFFFFFFFFFFFFFFF9
:1047D000FFFFFFFFFFFFFFFFFFFFFFFFFFFFFFFFE9
:1047E000FFFFFFFFFFFFFFFFFFFFFFFFFFFFFFFFD9
:1047F000FFFFFFFFFFFFFFFFFFFFFF8A808A91950A
:1048000098989FAAA6A19A979293908B8B8E8E8C44
:104810008A89847C7C8BC3F3F0F3F4F5F7F6F7F523
:10482000F6F4F3F1EEEBE8E4E0DEDAD5D3CDCAC678
:10483000C1BDB8B2B1ACA6A49F9C9894938D888654
:10484000817C7C787474716F70717171737A7B7B09
:104850007E78726553B8FFFFFFFFFFFFFFFFFFFF8A
:10486000FFFFFFFFFFFFFFFFFFFFFFFFFFFFFFFF58
:10487000FFFFFFFFFFFFFFFFFFFFFFFFFFFFFFFF48
:10488000FFFFFFFFFFFFFFFFFFFFFFFFFFFFFFFF38
:10489000FFFFFFFFFFFFFFFFFFFFFFFFFFFFFFFF28
:1048A000FFFFFFFFFFFFFFFFFFFFFFFFFFFFFFFF18
:1048B000FFFFFFFFFFFFFFFFFFFFFFFFFFFFFFFF08
:1048C000FFFFFFFFFFFFFFFFFFFFFFFFFFFFFFFFF8
:1048D000FFFFFFFFFFFFFFFFFFFFFFFFFFFFFFFFE8
:1048E000FFFFFFFFFFFFFFFFFFFFFFFFFFFFFFFFD8
:1048F000FFFFFFFFFFFFFFFFFFFFFFFFFFFFFFFFC8
:10490000FFFFFFFFFFFFFFFFFFFFFFFFFFFFFFFFB7
:10491000FFFFFFFFFFFFFFFFFFFFFFFFFFFFFFFFA7
:10492000FFFFFFFFFFFFFFFFFFFFFFFFFFFFFFFF97
:10493000FFFFFFFFFFFFFFFFFFFFFF777E879093E3
:10494000949CB4B2AEA5A59D9B939391909296959D
:1049500097948F887F736E8BDFF0F0F2F2F4F3F3AD
:10496000F2F1EEEDEBE6E4E2DFDAD7D5D0CCC7C06A
:10497000BEBAB4B2AEA9A7A29E9D95928F8B878333
:1049800082807A797672726D6C6F6F6F7576787FD0
:104990007E79746555AFFFFFFFFFFFFFFFFFFFFF4D
:1049A000FFFFFFFFFFFFFFFFFFFFFFFFFFFFFFFF17
:1049B000FFFFFFFFFFFFFFFFFFFFFFFFFFFFFFFF07
:1049C000FFFFFFFFFFFFFFFFFFFFFFFFFFFFFFFFF7
:1049D000FFFFFFFFFFFFFFFFFFFFFFFFFFFFFFFFE7
:1049E000FFFFFFFFFFFFFFFFFFFFFFFFFFFFFFFFD7
:1049F000FFFFFFFFFFFFFFFFFFFFFFFFFFFFFFFFC7
:104A0000FFFFFFFFFFFFFFFFFFFFFFFFFFFFFFFFB6
:104A1000FFFFFFFFFFFFFFFFFFFFFFFFFFFFFFFFA6
:104A2000FFFFFFFFFFFFFFFFFFFFFFFFFFFFFFFF96
:104A3000FFFFFFFFFFFFFFFFFFFFFFFFFFFFFFFF86
:104A4000FFFFFFFFFFFFFFFFFFFFFFFFFFFFFFFF76
:104A5000FFFFFFFFFFFFFFFFFFFFFFFFFFFFFFFF66
:104A6000FFFFFFFFFFFFFFFFFFFFFFFFFFFFFFFF56
:104A7000FFFFFFFFFFFFFFFFFFFFF57380878C90B5
:104A800098C0BDB7B0ABA8A39B999393989C9B9FEC
:104A90009F9B9A93877D706567BCF1EEEEEFEFEF19
:104AA000EEEDECE9E5E4E2DCDAD8D4CFCCC8C3BE65
:104AB000BAB8B4AFADA8A4A19C9797938E8A868408
:104AC0007E7B787672706D6E6D6C6E7071787A7CAC
:104AD0007D7971695793FFFFFFFFFFFFFFFFFFFF26
:104AE000FFFFFFFFFFFFFFFFFFFFFFFFFFFFFFFFD6
:104AF000FFFFFFFFFFFFFFFFFFFFFFFFFFFFFFFFC6
:104B0000FFFFFFFFFFFFFFFFFFFFFFFFFFFFFFFFB5
:104B1000FFFFFFFFFFFFFFFFFFFFFFFFFFFFFFFFA5
:104B2000FFFFFFFFFFFFFFFFFFFFFFFFFFFFFFFF95
:104B3000FFFFFFFFFFFFFFFFFFFFFFFFFFFFFFFF85
:104B4000FFFFFFFFFFFFFFFFFFFFFFFFFFFFFFFF75
:104B5000FFFFFFFFFFFFFFFFFFFFFFFFFFFFFFFF65
:104B6000FFFFFFFFFFFFFFFFFFFFFFFFFFFFFFFF55
:104B7000FFFFFFFFFFFFFFFFFFFFFFFFFFFFFFFF45
:104B8000FFFFFFFFFFFFFFFFFFFFFFFFFFFFFFFF35
:104B9000FFFFFFFFFFFFFFFFFFFFFFFFFFFFFFFF25
:104BA000FFFFFFFFFFFFFFFFFFFFFFFFFFFFFFFF15
:104BB000FFFFFFFFFFFFFFFFFFFFE9737E888C9180
:104BC000C9C8C4BBB5ACA9A19E95969A999EA2A44A
:104BD000A8A7A59D918475695E599CEDE9EAE9E96C
:104BE000E9E8E7E5E3E0DDDBD9D5D1CECAC3BFBE56
:104BF000B9B6B2ACABA6A49D9C9995918B8B8681DE
:104C0000817D787574716D6B6E6C6D7171787A8061
:104C10007A7B7569597FFFFFFFFFFFFFFFFFFFFFF3
:104C2000FFFFFFFFFFFFFFFFFFFFFFFFFFFFFFFF94
:104C3000FFFFFFFFFFFFFFFFFFFFFFFFFFFFFFFF84
:104C4000FFFFFFFFFFFFFFFFFFFFFFFFFFFFFFFF74
:104C5000FFFFFFFFFFFFFFFFFFFFFFFFFFFFFFFF64
:104C6000FFFFFFFFFFFFFFFFFFFFFFFFFFFFFFFF54
:104C7000FFFFFFFFFFFFFFFFFFFFFFFFFFFFFFFF44
:104C8000FFFFFFFFFFFFFFFFFFFFFFFFFFFFFFFF34
:104C9000FFFFFFFFFFFFFFFFFFFFFFFFFFFFFFFF24
:104CA000FFFFFFFFFFFFFFFFFFFFFFFFFFFFFFFF14
:104CB000FFFFFFFFFFFFFFFFFFFFFFFFFFFFFFFF04
:104CC000FFFFFFFFFFFFFFFFFFFFFFFFFFFFFFFFF4
:104CD000FFFFFFFFFFFFFFFFFFFFFFFFFFFFFFFFE4
:104CE000FFFFFFFFFFFFFFFFFFFFFFFFFFFFFFFFD4
:104CF000FFFFFFFFFFFFFFFFFFFFDF75808587C41A
:104D0000D5CCC5BEB9B1A8A3A09C98979CA1A5ACD1
:104D1000AFB0ABA4988A7D7063595085E9E5E5E5AD
:104D2000E4E3E2E0DEDCDAD7D4CFCDC9C3C2BFBA58
:104D3000B5B4AFADA7A6A09C9A95908E8C89837FC1
:104D40007D797675706E706E6C6B6F6F74757D7C2F
:104D50007E7B7366586EFFFFFFFFFFFFFFFFFFFFC5
:104D6000FFFFFFFFFFFFFFFFFFFFFFFFFFFFFFFF53
:104D7000FFFFFFFFFFFFFFFFFFFFFFFFFFFFFFFF43
:104D8000FFFFFFFFFFFFFFFFFFFFFFFFFFFFFFFF33
:104D9000FFFFFFFFFFFFFFFFFFFFFFFFFFFFFFFF23
:104DA000FFFFFFFFFFFFFFFFFFFFFFFFFFFFFFFF13
:104DB000FFFFFFFFFFFFFFFFFFFFFFFFFFFFFFFF03
:104DC000FFFFFFFFFFFFFFFFFFFFFFFFFFFFFFFFF3
:104DD000FFFFFFFFFFFFFFFFFFFFFFFFFFFFFFFFE3
:104DE000FFFFFFFFFFFFFFFFFFFFFFFFFFFFFFFFD3
:104DF000FFFFFFFFFFFFFFFFFFFFFFFFFFFFFFFFC3
:104E0000FFFFFFFFFFFFFFFFFFFFFFFFFFFFFFFFB2
:104E1000FFFFFFFFFFFFFFFFFFFFFFFFFFFFFFFFA2
:104E2000FFFFFFFFFFFFFFFFFFFFFFFFFFFFFFFF92
:104E3000FFFFFFFFFFFFFFFFFFFFD8757F86A5E1A4
:104E4000D8D1CBC5BCB3B0A89F9A9C989AA0AAB160
:104E5000B5B7B3A99D918274695C524B80E5E0E0DF
:104E6000DFDEDDDCDAD9D6D3D0CDC9C5C2C0BAB950
:104E7000B5B0AEAAA7A29F9C9693908E8886837F9A
:104E80007D797472706E706C6E6B6C7174777B7EF2
:104E90007E7973695961FFFFFFFFFFFFFFFFFFFF8F
:104EA000FFFFFFFFFFFFFFFFFFFFFFFFFFFFFFFF12
:104EB000FFFFFFFFFFFFFFFFFFFFFFFFFFFFFFFF02
:104EC000FFFFFFFFFFFFFFFFFFFFFFFFFFFFFFFFF2
:104ED000FFFFFFFFFFFFFFFFFFFFFFFFFFFFFFFFE2
:104EE000FFFFFFFFFFFFFFFFFFFFFFFFFFFFFFFFD2
:104EF000FFFFFFFFFFFFFFFFFFFFFFFFFFFFFFFFC2
:104F0000FFFFFFFFFFFFFFFFFFFFFFFFFFFFFFFFB1
:104F1000FFFFFFFFFFFFFFFFFFFFFFFFFFFFFFFFA1
:104F2000FFFFFFFFFFFFFFFFFFFFFFFFFFFFFFFF91
:104F3000FFFFFFFFFFFFFFFFFFFFFFFFFFFFFFFF81
:104F4000FFFFFFFFFFFFFFFFFFFFFFFFFFFFFFFF71
:104F5000FFFFFFFFFFFFFFFFFFFFFFFFFFFFFFFF61
:104F6000FFFFFFFFFFFFFFFFFFFFFFFFFFFFFFFF51
:104F7000FFFFFFFFFFFFFFFFFFFFD5727D80DFE236
:104F8000DDD7D2C8C1B8B0A9A8A09B9A9BA5AEB5E1
:104F9000BBBDB7AFA194877B6A60544D4584E1DA0D
:104FA000DBDAD9D7D6D4D2CDCAC8C5C2BDBBB9B455
:104FB000B1ACACA6A39E9C9894938E8A8785808082
:104FC000797575736F6C6A6C696C6A717176767DD0
:104FD0007D777469585BFFFFFFFFFFFFFFFFFFFF57
:104FE000FFFFFFFFFFFFFFFFFFFFFFFFFFFFFFFFD1
:104FF000FFFFFFFFFFFFFFFFFFFFFFFFFFFFFFFFC1
:10500000FFFFFFFFFFFFFFFFFFFFFFFFFFFFFFFFB0
:10501000FFFFFFFFFFFFFFFFFFFFFFFFFFFFFFFFA0
:10502000FFFFFFFFFFFFFFFFFFFFFFFFFFFFFFFF90
:10503000FFFFFFFFFFFFFFFFFFFFFFFFFFFFFFFF80
:10504000FFFFFFFFFFFFFFFFFFFFFFFFFFFFFFFF70
:10505000FFFFFFFFFFFFFFFFFFFFFFFFFFFFFFFF60
:10506000FFFFFFFFFFFFFFFFFFFFFFFFFFFFFFFF50
:10507000FFFFFFFFFFFFFFFFFFFFFFFFFFFFFFFF40
:10508000FFFFFFFFFFFFFFFFFFFFFFFFFFFFFFFF30
:10509000FFFFFFFFFFFFFFFFFFFFFFFFFFFFFFFF20
:1050A000FFFFFFFFFFFFFFFFFFFFFFFFFFFFFFFF10
:1050B000FFFFFFFFFFFFFFFFFFFFD56F79A7EFE8BF
:1050C000E3DDD5D0C9AF8D6E5C5C657D97A7B1B9C6
:1050D000C2C0B9B0A4958A7A6F62594D464299DB35
:1050E000D6D6D3D3D1CFCBC9C8C3C2BFBCB8B5B154
:1050F000B0ABA8A4A19D9996958F8C888582817A62
:105100007A787172706D6A6A6B6B6D6F7275797B8C
:105110007C7B73685859FFFFFFFFFFFFFFFFFFFF16
:10512000FFFFFFFFFFFFFFFFFFFFFFFFFFFFFFFF8F
:10513000FFFFFFFFFFFFFFFFFFFFFFFFFFFFFFFF7F
:10514000FFFFFFFFFFFFFFFFFFFFFFFFFFFFFFFF6F
:10515000FFFFFFFFFFFFFFFFFFFFFFFFFFFFFFFF5F
:10516000FFFFFFFFFFFFFFFFFFFFFFFFFFFFFFFF4F
:10517000FFFFFFFFFFFFFFFFFFFFFFFFFFFFFFFF3F
:10518000FFFFFFFFFFFFFFFFFFFFFFFFFFFFFFFF2F
:10519000FFFFFFFFFFFFFFFFFFFFFFFFFFFFFFFF1F
:1051A000FFFFFFFFFFFFFFFFFFFFFFFFFFFFFFFF0F
:1051B000FFFFFFFFFFFFFFFFFFFFFFFFFFFFFFFFFF
:1051C000FFFFFFFFFFFFFFFFFFFFFFFFFFFFFFFFEF
:1051D000FFFFFFFFFFFFFFFFFFFFFFFFFFFFFFFFDF
:1051E000FFFFFFFFFFFFFFFFFFFFFFFFFFFFFFFFCF
:1051F000FFFFFFFFFFFFFFFFFFFFDA6E74DDF2ED41
:10520000E7E2E1BC6526110E110C100A1A4D99C196
:10521000C6C1BCB1A29A8B7D71645A53484044B751
:10522000D2D1D0CECDC9C8C6C3BFBEBBB8B6B2B04E
:10523000ACA7A6A49F9B9993928C8A8883827C7B3F
:105240007974716F6D6B6B69696B6C717577797D52
:105250007C7B7168575FFFFFFFFFFFFFFFFFFFFFD2
:10526000FFFFFFFFFFFFFFFFFFFFFFFFFFFFFFFF4E
:10527000FFFFFFFFFFFFFFFFFFFFFFFFFFFFFFFF3E
:10528000FFFFFFFFFFFFFFFFFFFFFFFFFFFFFFFF2E
:10529000FFFFFFFFFFFFFFFFFFFFFFFFFFFFFFFF1E
:1052A000FFFFFFFFFFFFFFFFFFFFFFFFFFFFFFFF0E
:1052B000FFFFFFFFFFFFFFFFFFFFFFFFFFFFFFFFFE
:1052C000FFFFFFFFFFFFFFFFFFFFFFFFFFFFFFFFEE
:1052D000FFFFFFFFFFFFFFFFFFFFFFFFFFFFFFFFDE
:1052E000FFFFFFFFFFFFFFFFFFFFFFFFFFFFFFFFCE
:1052F000FFFFFFFFFFFFFFFFFFFFFFFFFFFFFFFFBE
:10530000FFFFFFFFFFFFFFFFFFFFFFFFFFFFFFFFAD
:10531000FFFFFFFFFFFFFFFFFFFFFFFFFFFFFFFF9D
:10532000FFFFFFFFFFFFFFFFFFFFFFFFFFFFFFFF8D
:10533000FFFFFFFFFFFFFFFFFFFFE06B80FCF5F2C9
:10534000EEE99C28090F131C586B6C60421A0E5230
:10535000BCC7BAAEA5988B8173675F5249453C566E
:10536000C9CCC9C8C8C5C5C0BDBDBBB6B3B1AFAB5C
:10537000A8A7A29E9C9994938E8C8A8381807D7A23
:10538000757270706B696868686A6F6F71777B7B24
:105390007E7872695468FFFFFFFFFFFFFFFFFFFF8A
:1053A000FFFFFFFFFFFFFFFFFFFFFFFFFFFFFFFF0D
:1053B000FFFFFFFFFFFFFFFFFFFFFFFFFFFFFFFFFD
:1053C000FFFFFFFFFFFFFFFFFFFFFFFFFFFFFFFFED
:1053D000FFFFFFFFFFFFFFFFFFFFFFFFFFFFFFFFDD
:1053E000FFFFFFFFFFFFFFFFFFFFFFFFFFFFFFFFCD
:1053F000FFFFFFFFFFFFFFFFFFFFFFFFFFFFFFFFBD
:10540000FFFFFFFFFFFFFFFFFFFFFFFFFFFFFFFFAC
:10541000FFFFFFFFFFFFFFFFFFFFFFFFFFFFFFFF9C
:10542000FFFFFFFFFFFFFFFFFFFFFFFFFFFFFFFF8C
:10543000FFFFFFFFFFFFFFFFFFFFFFFFFFFFFFFF7C
:10544000FFFFFFFFFFFFFFFFFFFFFFFFFFFFFFFF6C
:10545000FFFFFFFFFFFFFFFFFFFFFFFFFFFFFFFF5C
:10546000FFFFFFFFFFFFFFFFFFFFFFFFFFFFFFFF4C
:10547000FFFFFFFFFFFFFFFFFFFFEB6AA8FEF9F64C
:10548000F39A150C12132197786964605A55350CFC
:105490001D91B9ADA2948C7F766960574D46413F0E
:1054A00080C7C5C3C1C1BDBEBCBAB5B5B3B0ABA89A
:1054B000A7A1A19D989592908D8885837F7C7C750E
:1054C0007474716C6C6C6A68686B6A7373747A7CE0
:1054D0007D7A7163537BFFFFFFFFFFFFFFFFFFFF3D
:1054E000FFFFFFFFFFFFFFFFFFFFFFFFFFFFFFFFCC
:1054F000FFFFFFFFFFFFFFFFFFFFFFFFFFFFFFFFBC
:10550000FFFFFFFFFFFFFFFFFFFFFFFFFFFFFFFFAB
:10551000FFFFFFFFFFFFFFFFFFFFFFFFFFFFFFFF9B
:10552000FFFFFFFFFFFFFFFFFFFFFFFFFFFFFFFF8B
:10553000FFFFFFFFFFFFFFFFFFFFFFFFFFFFFFFF7B
:10554000FFFFFFFFFFFFFFFFFFFFFFFFFFFFFFFF6B
:10555000FFFFFFFFFFFFFFFFFFFFFFFFFFFFFFFF5B
:10556000FFFFFFFFFFFFFFFFFFFFFFFFFFFFFFFF4B
:10557000FFFFFFFFFFFFFFFFFFFFFFFFFFFFFFFF3B
:10558000FFFFFFFFFFFFFFFFFFFFFFFFFFFFFFFF2B
:10559000FFFFFFFFFFFFFFFFFFFFFFFFFFFFFFFF1B
:1055A000FFFFFFFFFFFFFFFFFFFFFFFFFFFFFFFF0B
:1055B000FFFFFFFFFFFFFFFFFFFFF563CAFEFBFDDD
:1055C000B8190E1213179C9B6968645D574E4835D5
:1055D0000F0B73A79D928A82756B64595049453EA3
:1055E00044AFC2BFBEBBBBB8B6B4B4B1ADAAAAA7E4
:1055F000A3A09E9998938F8C898684827E797676F3
:10560000726F6D6E6C68666A6B6C6D7073797C7DA1
:105610007A757064518DFFFFFFFFFFFFFFFFFFFFF3
:10562000FFFFFFFFFFFFFFFFFFFFFFFFFFFFFFFF8A
:10563000FFFFFFFFFFFFFFFFFFFFFFFFFFFFFFFF7A
:10564000FFFFFFFFFFFFFFFFFFFFFFFFFFFFFFFF6A
:10565000FFFFFFFFFFFFFFFFFFFFFFFFFFFFFFFF5A
:10566000FFFFFFFFFFFFFFFFFFFFFFFFFFFFFFFF4A
:10567000FFFFFFFFFFFFFFFFFFFFFFFFFFFFFFFF3A
:10568000FFFFFFFFFFFFFFFFFFFFFFFFFFFFFFFF2A
:10569000FFFFFFFFFFFFFFFFFFFFFFFFFFFFFFFF1A
:1056A000FFFFFFFFFFFFFFFFFFFFFFFFFFFFFFFF0A
:1056B000FFFFFFFFFFFFFFFFFFFFFFFFFFFFFFFFFA
:1056C000FFFFFFFFFFFFFFFFFFFFFFFFFFFFFFFFEA
:1056D000FFFFFFFFFFFFFFFFFFFFFFFFFFFFFFFFDA
:1056E000FFFFFFFFFFFFFFFFFFFFFFFFFFFFFFFFCA
:1056F000FFFFFFFFFFFFFFFFFFFFFF62E2FFFEE98B
:10570000400C12141170B87F6765625D554D433DC2
:10571000231008659D9489817B74695D544C4641D2
:105720003D6FBCBBBAB9B7B6B2B2AFABABA8A3A31F
:105730009D9D9996939090898883807D7B797573E0
:10574000726E6E6A676768656A686F7073787B826D
:1057500079776E604DA7FFFFFFFFFFFFFFFFFFFFA1
:10576000FFFFFFFFFFFFFFFFFFFFFFFFFFFFFFFF49
:10577000FFFFFFFFFFFFFFFFFFFFFFFFFFFFFFFF39
:10578000FFFFFFFFFFFFFFFFFFFFFFFFFFFFFFFF29
:10579000FFFFFFFFFFFFFFFFFFFFFFFFFFFFFFFF19
:1057A000FFFFFFFFFFFFFFFFFFFFFFFFFFFFFFFF09
:1057B000FFFFFFFFFFFFFFFFFFFFFFFFFFFFFFFFF9
:1057C000FFFFFFFFFFFFFFFFFFFFFFFFFFFFFFFFE9
:1057D000FFFFFFFFFFFFFFFFFFFFFFFFFFFFFFFFD9
:1057E000FFFFFFFFFFFFFFFFFFFFFFFFFFFFFFFFC9
:1057F000FFFFFFFFFFFFFFFFFFFFFFFFFFFFFFFFB9
:10580000FFFFFFFFFFFFFFFFFFFFFFFFFFFFFFFFA8
:10581000FFFFFFFFFFFFFFFFFFFFFFFFFFFFFFFF98
:10582000FFFFFFFFFFFFFFFFFFFFFFFFFFFFFFFF88
:10583000FFFFFFFFFFFFFFFFFFFFFF6FF4FDFF9D77
:105840000B11141325B5A67164615F5A5249423891
:105850002E100F096C918C837D746C635A514C43EC
:105860003F46A3B8B4B5B3AFB0ABAAAAA7A3A19D56
:105870009D989692908F888885807D7D7A757671C7
:105880006E6E6A696A686666676C6E7173767E7939
:105890007B756B5C4EB0FFFFFFFFFFFFFFFFFFFF5D
:1058A000FFFFFFFFFFFFFFFFFFFFFFFFFFFFFFFF08
:1058B000FFFFFFFFFFFFFFFFFFFFFFFFFFFFFFFFF8
:1058C000FFFFFFFFFFFFFFFFFFFFFFFFFFFFFFFFE8
:1058D000FFFFFFFFFFFFFFFFFFFFFFFFFFFFFFFFD8
:1058E000FFFFFFFFFFFFFFFFFFFFFFFFFFFFFFFFC8
:1058F000FFFFFFFFFFFFFFFFFFFFFFFFFFFFFFFFB8
:10590000FFFFFFFFFFFFFFFFFFFFFFFFFFFFFFFFA7
:10591000FFFFFFFFFFFFFFFFFFFFFFFFFFFFFFFF97
:10592000FFFFFFFFFFFFFFFFFFFFFFFFFFFFFFFF87
:10593000FFFFFFFFFFFFFFFFFFFFFFFFFFFFFFFF77
:10594000FFFFFFFFFFFFFFFFFFFFFFFFFFFFFFFF67
:10595000FFFFFFFFFFFFFFFFFFFFFFFFFFFFFFFF57
:10596000FFFFFFFFFFFFFFFFFFFFFFFFFFFFFFFF47
:10597000FFFFFFFFFFFFFFFFFFFFFF89FEFAF0477A
:105980001015171261A99C665E5E5B564E463E344A
:105990002C14100D0F7F8D867F7A716B5F564E4AE7
:1059A000434075B2B1ADAEADAAA9A6A4A1A09C9C7E
:1059B0009897938F8E8A8884827E7C7B76756E6EB4
:1059C0006C6C6B66666565676B6B6E7074797B7DFE
:1059D0007873695A4BCAFFFFFFFFFFFFFFFFFFFF0E
:1059E000FFFFFFFFFFFFFFFFFFFFFFFFFFFFFFFFC7
:1059F000FFFFFFFFFFFFFFFFFFFFFFFFFFFFFFFFB7
:105A0000FFFFFFFFFFFFFFFFFFFFFFFFFFFFFFFFA6
:105A1000FFFFFFFFFFFFFFFFFFFFFFFFFFFFFFFF96
:105A2000FFFFFFFFFFFFFFFFFFFFFFFFFFFFFFFF86
:105A3000FFFFFFFFFFFFFFFFFFFFFFFFFFFFFFFF76
:105A4000FFFFFFFFFFFFFFFFFFFFFFFFFFFFFFFF66
:105A5000FFFFFFFFFFFFFFFFFFFFFFFFFFFFFFFF56
:105A6000FFFFFFFFFFFFFFFFFFFFFFFFFFFFFFFF46
:105A7000FFFFFFFFFFFFFFFFFFFFFFFFFFFFFFFF36
:105A8000FFFFFFFFFFFFFFFFFFFFFFFFFFFFFFFF26
:105A9000FFFFFFFFFFFFFFFFFFFFFFFFFFFFFFFF16
:105AA000FFFFFFFFFFFFFFFFFFFFFFFFFFFFFFFF06
:105AB000FFFFFFFFFFFFFFFFFFFFFFB9F8F7D01960
:105AC00014181A107F9D915D5958554F494239302D
:105AD0002714110E092998918884796F675C534CBB
:105AE000494353A5ABACAAAAA7A5A3A09F9C9B988A
:105AF0009594918E89868684817B7E7A767071708A
:105B00006F6A68686464666A696C70757677797EB6
:105B10007B73655A47EEFFFFFFFFFFFFFFFFFFFFAD
:105B2000FFFFFFFFFFFFFFFFFFFFFFFFFFFFFFFF85
:105B3000FFFFFFFFFFFFFFFFFFFFFFFFFFFFFFFF75
:105B4000FFFFFFFFFFFFFFFFFFFFFFFFFFFFFFFF65
:105B5000FFFFFFFFFFFFFFFFFFFFFFFFFFFFFFFF55
:105B6000FFFFFFFFFFFFFFFFFFFFFFFFFFFFFFFF45
:105B7000FFFFFFFFFFFFFFFFFFFFFFFFFFFFFFFF35
:105B8000FFFFFFFFFFFFFFFFFFFFFFFFFFFFFFFF25
:105B9000FFFFFFFFFFFFFFFFFFFFFFFFFFFFFFFF15
:105BA000FFFFFFFFFFFFFFFFFFFFFFFFFFFFFFFF05
:105BB000FFFFFFFFFFFFFFFFFFFFFFFFFFFFFFFFF5
:105BC000FFFFFFFFFFFFFFFFFFFFFFFFFFFFFFFFE5
:105BD000FFFFFFFFFFFFFFFFFFFFFFFFFFFFFFFFD5
:105BE000FFFFFFFFFFFFFFFFFFFFFFFFFFFFFFFFC5
:105BF000FFFFFFFFFFFFFFFFFFFFFFD8F1F3A10F44
:105C0000171B1C0E9091885752514E49423B332A24
:105C10002013110F0C076899948A85786C625B5386
:105C20004D464988A8A5A6A3A4A19D9D9A9A95949E
:105C3000918E8C898585817D7D7A767373706C6D8C
:105C4000696A6664666468676A6B6D7276797E7B82
:105C5000736F625250FFFFFFFFFFFFFFFFFFFFFF69
:105C6000FFFFFFFFFFFFFFFFFFFFFFFFFFFFFFFF44
:105C7000FFFFFFFFFFFFFFFFFFFFFFFFFFFFFFFF34
:105C8000FFFFFFFFFFFFFFFFFFFFFFFFFFFFFFFF24
:105C9000FFFFFFFFFFFFFFFFFFFFFFFFFFFFFFFF14
:105CA000FFFFFFFFFFFFFFFFFFFFFFFFFFFFFFFF04
:105CB000FFFFFFFFFFFFFFFFFFFFFFFFFFFFFFFFF4
:105CC000FFFFFFFFFFFFFFFFFFFFFFFFFFFFFFFFE4
:105CD000FFFFFFFFFFFFFFFFFFFFFFFFFFFFFFFFD4
:105CE000FFFFFFFFFFFFFFFFFFFFFFFFFFFFFFFFC4
:105CF000FFFFFFFFFFFFFFFFFFFFFFFFFFFFFFFFB4
:105D0000FFFFFFFFFFFFFFFFFFFFFFFFFFFFFFFFA3
:105D1000FFFFFFFFFFFFFFFFFFFFFFFFFFFFFFFF93
:105D2000FFFFFFFFFFFFFFFFFFFFFFFFFFFFFFFF83
:105D3000FFFFFFFFFFFFFFFFFFFFFFF3E7EC78141C
:105D40001C1F1E0B8D847E534A4945423B332C2534
:105D50001712100F0D0D1AA89F968E81746A5E554A
:105D600050494570A1A3A19F9F9A9B9A98949490A3
:105D70008F8A898986807F7F797674736F6E6E6B68
:105D8000686863646667666A6A6E6E747B7E7A7B37
:105D9000776C5F4E8AFFFFFFFFFFFFFFFFFFFFFFF4
:105DA000FFFFFFFFFFFFFFFFFFFFFFFFFFFFFFFF03
:105DB000FFFFFFFFFFFFFFFFFFFFFFFFFFFFFFFFF3
:105DC000FFFFFFFFFFFFFFFFFFFFFFFFFFFFFFFFE3
:105DD000FFFFFFFFFFFFFFFFFFFFFFFFFFFFFFFFD3
:105DE000FFFFFFFFFFFFFFFFFFFFFFFFFFFFFFFFC3
:105DF000FFFFFFFFFFFFFFFFFFFFFFFFFFFFFFFFB3
:105E0000FFFFFFFFFFFFFFFFFFFFFFFFFFFFFFFFA2
:105E1000FFFFFFFFFFFFFFFFFFFFFFFFFFFFFFFF92
:105E2000FFFFFFFFFFFFFFFFFFFFFFFFFFFFFFFF82
:105E3000FFFFFFFFFFFFFFFFFFFFFFFFFFFFFFFF72
:105E4000FFFFFFFFFFFFFFFFFFFFFFFFFFFFFFFF62
:105E5000FFFFFFFFFFFFFFFFFFFFFFFFFFFFFFFF52
:105E6000FFFFFFFFFFFFFFFFFFFFFFFFFFFFFFFF42
:105E7000FFFFFFFFFFFFFFFFFFFFFFFFD3E46318FC
:105E80001F22210C7C79755042403E3A332D261C4E
:105E900015121111100F087AADA3978A7B6E645CFE
:105EA000524E475E979F9B9C9999989492938D8FA1
:105EB0008A89858580807C7B77747370706C6B6752
:105EC00068656466646569676E6E72747A797E7AF5
:105ED00074695B4AB5FFFFFFFFFFFFFFFFFFFFFF96
:105EE000FFFFFFFFFFFFFFFFFFFFFFFFFFFFFFFFC2
:105EF000FFFFFFFFFFFFFFFFFFFFFFFFFFFFFFFFB2
:105F0000FFFFFFFFFFFFFFFFFFFFFFFFFFFFFFFFA1
:105F1000FFFFFFFFFFFFFFFFFFFFFFFFFFFFFFFF91
:105F2000FFFFFFFFFFFFFFFFFFFFFFFFFFFFFFFF81
:105F3000FFFFFFFFFFFFFFFFFFFFFFFFFFFFFFFF71
:105F4000FFFFFFFFFFFFFFFFFFFFFFFFFFFFFFFF61
:105F5000FFFFFFFFFFFFFFFFFFFFFFFFFFFFFFFF51
:105F6000FFFFFFFFFFFFFFFFFFFFFFFFFFFFFFFF41
:105F7000FFFFFFFFFFFFFFFFFFFFFFFFFFFFFFFF31
:105F8000FFFFFFFFFFFFFFFFFFFFFFFFFFFFFFFF21
:105F9000FFFFFFFFFFFFFFFFFFFFFFFFFFFFFFFF11
:105FA000FFFFFFFFFFFFFFFFFFFFFFFFFFFFFFFF01
:105FB000FFFFFFFFFFFFFFFFFFFFFFFFD3DB5C1DC6
:105FC0002126240B666D684F3B3936322B261D1671
:105FD0001312131212100E34BDADA19382766B61B1
:105FE00058504C57879B9A95959592918E8C8D879A
:105FF0008885837F7F797A757573716D6B6C6B693A
:10600000636365636565656B69707477797E7877BE
:106010006D645645E1FFFFFFFFFFFFFFFFFFFFFF3E
:10602000FFFFFFFFFFFFFFFFFFFFFFFFFFFFFFFF80
:10603000FFFFFFFFFFFFFFFFFFFFFFFFFFFFFFFF70
:10604000FFFFFFFFFFFFFFFFFFFFFFFFFFFFFFFF60
:10605000FFFFFFFFFFFFFFFFFFFFFFFFFFFFFFFF50
:10606000FFFFFFFFFFFFFFFFFFFFFFFFFFFFFFFF40
:10607000FFFFFFFFFFFFFFFFFFFFFFFFFFFFFFFF30
:10608000FFFFFFFFFFFFFFFFFFFFFFFFFFFFFFFF20
:10609000FFFFFFFFFFFFFFFFFFFFFFFFFFFFFFFF10
:1060A000FFFFFFFFFFFFFFFFFFFFFFFFFFFFFFFF00
:1060B000FFFFFFFFFFFFFFFFFFFFFFFFFFFFFFFFF0
:1060C000FFFFFFFFFFFFFFFFFFFFFFFFFFFFFFFFE0
:1060D000FFFFFFFFFFFFFFFFFFFFFFFFFFFFFFFFD0
:1060E000FFFFFFFFFFFFFFFFFFFFFFFFFFFFFFFFC0
:1060F000FFFFFFFFFFFFFFFFFFFFFFFFD4D1632084
:106100002629290E47615B4F31302D29241B161497
:106110001515131412111007BDB8AA9A8A7C6E6364
:106120005B554F537C95949393908D8E8A8A898684
:1061300082827D7B797B7873716F6D6D6A6A676629
:10614000646563636664696A6C6F74767A7A7C7777
:106150006C605055FFFFFFFFFFFFFFFFFFFFFFFFDA
:10616000FFFFFFFFFFFFFFFFFFFFFFFFFFFFFFFF3F
:10617000FFFFFFFFFFFFFFFFFFFFFFFFFFFFFFFF2F
:10618000FFFFFFFFFFFFFFFFFFFFFFFFFFFFFFFF1F
:10619000FFFFFFFFFFFFFFFFFFFFFFFFFFFFFFFF0F
:1061A000FFFFFFFFFFFFFFFFFFFFFFFFFFFFFFFFFF
:1061B000FFFFFFFFFFFFFFFFFFFFFFFFFFFFFFFFEF
:1061C000FFFFFFFFFFFFFFFFFFFFFFFFFFFFFFFFDF
:1061D000FFFFFFFFFFFFFFFFFFFFFFFFFFFFFFFFCF
:1061E000FFFFFFFFFFFFFFFFFFFFFFFFFFFFFFFFBF
:1061F000FFFFFFFFFFFFFFFFFFFFFFFFFFFFFFFFAF
:10620000FFFFFFFFFFFFFFFFFFFFFFFFFFFFFFFF9E
:10621000FFFFFFFFFFFFFFFFFFFFFFFFFFFFFFFF8E
:10622000FFFFFFFFFFFFFFFFFFFFFFFFFFFFFFFF7E
:10623000FFFFFFFFFFFFFFFFFFFFFFFFD7C671223A
:106240002A2D2C1424564E482E28252017161616B3
:1062500016151513131111098BC3B1A19080736822
:106260005E57514F778F90908C8C89898885858077
:10627000817D7D7878777671706B6B6A676768640B
:10628000656263636567686C6C73757B7A7B787332
:10629000685B49A5FFFFFFFFFFFFFFFFFFFFFFFF59
:1062A000FFFFFFFFFFFFFFFFFFFFFFFFFFFFFFFFFE
:1062B000FFFFFFFFFFFFFFFFFFFFFFFFFFFFFFFFEE
:1062C000FFFFFFFFFFFFFFFFFFFFFFFFFFFFFFFFDE
:1062D000FFFFFFFFFFFFFFFFFFFFFFFFFFFFFFFFCE
:1062E000FFFFFFFFFFFFFFFFFFFFFFFFFFFFFFFFBE
:1062F000FFFFFFFFFFFFFFFFFFFFFFFFFFFFFFFFAE
:10630000FFFFFFFFFFFFFFFFFFFFFFFFFFFFFFFF9D
:10631000FFFFFFFFFFFFFFFFFFFFFFFFFFFFFFFF8D
:10632000FFFFFFFFFFFFFFFFFFFFFFFFFFFFFFFF7D
:10633000FFFFFFFFFFFFFFFFFFFFFFFFFFFFFFFF6D
:10634000FFFFFFFFFFFFFFFFFFFFFFFFFFFFFFFF5D
:10635000FFFFFFFFFFFFFFFFFFFFFFFFFFFFFFFF4D
:10636000FFFFFFFFFFFFFFFFFFFFFFFFFFFFFFFF3D
:10637000FFFFFFFFFFFFFFFFFFFFFFFFEFB78B25D3
:106380002E31321E0B3F423E2F1D171616161717C1
:10639000171715151312100B6ACAB7A69484766BDB
:1063A0006059534F73888D898B8A8A858283817F58
:1063B0007A7B787873716F6C6E6A6C6966676465F6
:1063C000616566686567696D7070787B7D77756DEE
:1063D000625544D9FFFFFFFFFFFFFFFFFFFFFFFFF5
:1063E000FFFFFFFFFFFFFFFFFFFFFFFFFFFFFFFFBD
:1063F000FFFFFFFFFFFFFFFFFFFFFFFFFFFFFFFFAD
:10640000FFFFFFFFFFFFFFFFFFFFFFFFFFFFFFFF9C
:10641000FFFFFFFFFFFFFFFFFFFFFFFFFFFFFFFF8C
:10642000FFFFFFFFFFFFFFFFFFFFFFFFFFFFFFFF7C
:10643000FFFFFFFFFFFFFFFFFFFFFFFFFFFFFFFF6C
:10644000FFFFFFFFFFFFFFFFFFFFFFFFFFFFFFFF5C
:10645000FFFFFFFFFFFFFFFFFFFFFFFFFFFFFFFF4C
:10646000FFFFFFFFFFFFFFFFFFFFFFFFFFFFFFFF3C
:10647000FFFFFFFFFFFFFFFFFFFFFFFFFFFFFFFF2C
:10648000FFFFFFFFFFFFFFFFFFFFFFFFFFFFFFFF1C
:10649000FFFFFFFFFFFFFFFFFFFFFFFFFFFFFFFF0C
:1064A000FFFFFFFFFFFFFFFFFFFFFFFFFFFFFFFFFC
:1064B000FFFFFFFFFFFFFFFFFFFFFFFFFFB79E2B69
:1064C0003035372E0A14231E1814161717181818EB
:1064D000171716151412100C43D2BAA99686786CA9
:1064E000635A555170828785838582837E7F7B7C4A
:1064F0007878737271726D6A6A6B686467656260DE
:106500006161656468666B6C7373797979787468B6
:106510005B4F61FFFFFFFFFFFFFFFFFFFFFFFFFF7D
:10652000FFFFFFFFFFFFFFFFFFFFFFFFFFFFFFFF7B
:10653000FFFFFFFFFFFFFFFFFFFFFFFFFFFFFFFF6B
:10654000FFFFFFFFFFFFFFFFFFFFFFFFFFFFFFFF5B
:10655000FFFFFFFFFFFFFFFFFFFFFFFFFFFFFFFF4B
:10656000FFFFFFFFFFFFFFFFFFFFFFFFFFFFFFFF3B
:10657000FFFFFFFFFFFFFFFFFFFFFFFFFFFFFFFF2B
:10658000FFFFFFFFFFFFFFFFFFFFFFFFFFFFFFFF1B
:10659000FFFFFFFFFFFFFFFFFFFFFFFFFFFFFFFF0B
:1065A000FFFFFFFFFFFFFFFFFFFFFFFFFFFFFFFFFB
:1065B000FFFFFFFFFFFFFFFFFFFFFFFFFFFFFFFFEB
:1065C000FFFFFFFFFFFFFFFFFFFFFFFFFFFFFFFFDB
:1065D000FFFFFFFFFFFFFFFFFFFFFFFFFFFFFFFFCB
:1065E000FFFFFFFFFFFFFFFFFFFFFFFFFFFFFFFFBB
:1065F000FFFFFFFFFFFFFFFFFFFFFFFFFFB2A4450D
:1066000034393C39150C10141819161718181918A4
:10661000181616151412100D2DD5BAA99787796D75
:10662000655C56526F7C8486837F817F7D7E7A771E
:10663000757374726F6D6E6B6867686567606362AF
:1066400066656368676B6F717376797E7C766E665C
:106650005647B2FFFFFFFFFFFFFFFFFFFFFFFFFFF8
:10666000FFFFFFFFFFFFFFFFFFFFFFFFFFFFFFFF3A
:10667000FFFFFFFFFFFFFFFFFFFFFFFFFFFFFFFF2A
:10668000FFFFFFFFFFFFFFFFFFFFFFFFFFFFFFFF1A
:10669000FFFFFFFFFFFFFFFFFFFFFFFFFFFFFFFF0A
:1066A000FFFFFFFFFFFFFFFFFFFFFFFFFFFFFFFFFA
:1066B000FFFFFFFFFFFFFFFFFFFFFFFFFFFFFFFFEA
:1066C000FFFFFFFFFFFFFFFFFFFFFFFFFFFFFFFFDA
:1066D000FFFFFFFFFFFFFFFFFFFFFFFFFFFFFFFFCA
:1066E000FFFFFFFFFFFFFFFFFFFFFFFFFFFFFFFFBA
:1066F000FFFFFFFFFFFFFFFFFFFFFFFFFFFFFFFFAA
:10670000FFFFFFFFFFFFFFFFFFFFFFFFFFFFFFFF99
:10671000FFFFFFFFFFFFFFFFFFFFFFFFFFFFFFFF89
:10672000FFFFFFFFFFFFFFFFFFFFFFFFFFFFFFFF79
:10673000FFFFFFFFFFFFFFFFFFFFFFFFFFE99C6879
:10674000363D40402F0A0F13171C1716181918183A
:10675000171716151311100D28D2B7A79586786D47
:10676000645D59537076807D7B7D7B787977757514
:1067700074736F6C6E6A6869666564636561616392
:1067800062616666676B6E70777C7D7C7673695C30
:106790005045F7FFFFFFFFFFFFFFFFFFFFFFFFFF7A
:1067A000FFFFFFFFFFFFFFFFFFFFFFFFFFFFFFFFF9
:1067B000FFFFFFFFFFFFFFFFFFFFFFFFFFFFFFFFE9
:1067C000FFFFFFFFFFFFFFFFFFFFFFFFFFFFFFFFD9
:1067D000FFFFFFFFFFFFFFFFFFFFFFFFFFFFFFFFC9
:1067E000FFFFFFFFFFFFFFFFFFFFFFFFFFFFFFFFB9
:1067F000FFFFFFFFFFFFFFFFFFFFFFFFFFFFFFFFA9
:10680000FFFFFFFFFFFFFFFFFFFFFFFFFFFFFFFF98
:10681000FFFFFFFFFFFFFFFFFFFFFFFFFFFFFFFF88
:10682000FFFFFFFFFFFFFFFFFFFFFFFFFFFFFFFF78
:10683000FFFFFFFFFFFFFFFFFFFFFFFFFFFFFFFF68
:10684000FFFFFFFFFFFFFFFFFFFFFFFFFFFFFFFF58
:10685000FFFFFFFFFFFFFFFFFFFFFFFFFFFFFFFF48
:10686000FFFFFFFFFFFFFFFFFFFFFFFFFFFFFFFF38
:10687000FFFFFFFFFFFFFFFFFFFFFFFFFFFFA58CF5
:106880003D404447411B0E1215181D1716171718C7
:10689000161615141111100D2DCCB2A39283776C1E
:1068A000635D595470717A7B7C7977777475706EFB
:1068B000706F6A6C69666966656662626161616172
:1068C000646765686B6B7171747B7C77756C6159FB
:1068D0004899FFFFFFFFFFFFFFFFFFFFFFFFFFFFE5
:1068E000FFFFFFFFFFFFFFFFFFFFFFFFFFFFFFFFB8
:1068F000FFFFFFFFFFFFFFFFFFFFFFFFFFFFFFFFA8
:10690000FFFFFFFFFFFFFFFFFFFFFFFFFFFFFFFF97
:10691000FFFFFFFFFFFFFFFFFFFFFFFFFFFFFFFF87
:10692000FFFFFFFFFFFFFFFFFFFFFFFFFFFFFFFF77
:10693000FFFFFFFFFFFFFFFFFFFFFFFFFFFFFFFF67
:10694000FFFFFFFFFFFFFFFFFFFFFFFFFFFFFFFF57
:10695000FFFFFFFFFFFFFFFFFFFFFFFFFFFFFFFF47
:10696000FFFFFFFFFFFFFFFFFFFFFFFFFFFFFFFF37
:10697000FFFFFFFFFFFFFFFFFFFFFFFFFFFFFFFF27
:10698000FFFFFFFFFFFFFFFFFFFFFFFFFFFFFFFF17
:10699000FFFFFFFFFFFFFFFFFFFFFFFFFFFFFFFF07
:1069A000FFFFFFFFFFFFFFFFFFFFFFFFFFFFFFFFF7
:1069B000FFFFFFFFFFFFFFFFFFFFFFFFFFFFCD8F89
:1069C0005D43474C4B3C0E0F1316191E1716171636
:1069D00016151412110F0E0B41C1A99C8E7F746AFB
:1069E000625C58566D70797474737370726E6F6DEB
:1069F0006B6C696768666565636163636261616446
:106A000062646668696F6F77797A7B766E695D4FCD
:106A100043EDFFFEFFFFFFFFFFFFFFFFFFFFFFFF55
:106A2000FFFFFFFFFFFFFFFFFFFFFFFFFFFFFFFF76
:106A3000FFFFFFFFFFFFFFFFFFFFFFFFFFFFFFFF66
:106A4000FFFFFFFFFFFFFFFFFFFFFFFFFFFFFFFF56
:106A5000FFFFFFFFFFFFFFFFFFFFFFFFFFFFFFFF46
:106A6000FFFFFFFFFFFFFFFFFFFFFFFFFFFFFFFF36
:106A7000FFFFFFFFFFFFFFFFFFFFFFFFFFFFFFFF26
:106A8000FFFFFFFFFFFFFFFFFFFFFFFFFFFFFFFF16
:106A9000FFFFFFFFFFFFFFFFFFFFFFFFFFFFFFFF06
:106AA000FFFFFFFFFFFFFFFFFFFFFFFFFFFFFFFFF6
:106AB000FFFFFFFFFFFFFFFFFFFFFFFFFFFFFFFFE6
:106AC000FFFFFFFFFFFFFFFFFFFFFFFFFFFFFFFFD6
:106AD000FFFFFFFFFFFFFFFFFFFFFFFFFFFFFFFFC6
:106AE000FFFFFFFFFFFFFFFFFFFFFFFFFFFFFFFFB6
:106AF000FFFFFFFFFFFFFFFFFFFFFFFFFFFFFF9C09
:106B0000884A4B50534E340C101217181F18141685
:106B10001513121312120E0A64B3A295867C7068C4
:106B2000605B585E69707275747170706E6B6A6CC0
:106B30006969686566646560636261626063636217
:106B40006768676B6F7171767D7B7A74696254498F
:106B500096FFFEFFFEFFFFFFFFFFFFFFFFFFFFFFB0
:106B6000FFFFFFFFFFFFFFFFFFFFFFFFFFFFFFFF35
:106B7000FFFFFFFFFFFFFFFFFFFFFFFFFFFFFFFF25
:106B8000FFFFFFFFFFFFFFFFFFFFFFFFFFFFFFFF15
:106B9000FFFFFFFFFFFFFFFFFFFFFFFFFFFFFFFF05
:106BA000FFFFFFFFFFFFFFFFFFFFFFFFFFFFFFFFF5
:106BB000FFFFFFFFFFFFFFFFFFFFFFFFFFFFFFFFE5
:106BC000FFFFFFFFFFFFFFFFFFFFFFFFFFFFFFFFD5
:106BD000FFFFFFFFFFFFFFFFFFFFFFFFFFFFFFFFC5
:106BE000FFFFFFFFFFFFFFFFFFFFFFFFFFFFFFFFB5
:106BF000FFFFFFFFFFFFFFFFFFFFFFFFFFFFFFFFA5
:106C0000FFFFFFFFFFFFFFFFFFFFFFFFFFFFFFFF94
:106C1000FFFFFFFFFFFFFFFFFFFFFFFFFFFFFFFF84
:106C2000FFFFFFFFFFFFFFFFFFFFFFFFFFFFFFFF74
:106C3000FFFFFFFFFFFFFFFFFFFFFFFFFFFFFFD093
:106C40008D714D53585950300A101314151D1B13D4
:106C500013111413151612078CA2968A80756B6493
:106C6000605A5767606D6E6F6E6C6C6A696C6B68AA
:106C70006668646662666162605F5F6163646263E6
:106C80006568686C6E71797C7B77786D6759504860
:106C9000F3FEFEFEFFFEFDFFFFFFFFFFFFFFFFFF16
:106CA000FFFFFFFFFFFFFFFFFFFFFFFFFFFFFFFFF4
:106CB000FFFFFFFFFFFFFFFFFFFFFFFFFFFFFFFFE4
:106CC000FFFFFFFFFFFFFFFFFFFFFFFFFFFFFFFFD4
:106CD000FFFFFFFFFFFFFFFFFFFFFFFFFFFFFFFFC4
:106CE000FFFFFFFFFFFFFFFFFFFFFFFFFFFFFFFFB4
:106CF000FFFFFFFFFFFFFFFFFFFFFFFFFFFFFFFFA4
:106D0000FFFFFFFFFFFFFFFFFFFFFFFFFFFFFFFF93
:106D1000FFFFFFFFFFFFFFFFFFFFFFFFFFFFFFFF83
:106D2000FFFFFFFFFFFFFFFFFFFFFFFFFFFFFFFF73
:106D3000FFFFFFFFFFFFFFFFFFFFFFFFFFFFFFFF63
:106D4000FFFFFFFFFFFFFFFFFFFFFFFFFFFFFFFF53
:106D5000FFFFFFFFFFFFFFFFFFFFFFFFFFFFFFFF43
:106D6000FFFFFFFFFFFFFFFFFFFFFFFFFFFFFFFF33
:106D7000FFFFFFFFFFFFFFFFFFFFFFFFFFFFFFFF23
:106D80009C8C64585C5F5E54330C0E101211161FFD
:106D9000171114151617120FB3948B81766E676056
:106DA0005C59576F566C6D6E6B6A6969686B676981
:106DB00065646563636162605F60616361636465AC
:106DC00069686A6F71777D7A7E776F69605246AFC6
:106DD000FDFDFCFCFDFDFFFDFFFFFFFFFFFFFFFFD3
:106DE000FFFFFFFFFFFFFFFFFFFFFFFFFFFFFFFFB3
:106DF000FFFFFFFFFFFFFFFFFFFFFFFFFFFFFFFFA3
:106E0000FFFFFFFFFFFFFFFFFFFFFFFFFFFFFFFF92
:106E1000FFFFFFFFFFFFFFFFFFFFFFFFFFFFFFFF82
:106E2000FFFFFFFFFFFFFFFFFFFFFFFFFFFFFFFF72
:106E3000FFFFFFFFFFFFFFFFFFFFFFFFFFFFFFFF62
:106E4000FFFFFFFFFFFFFFFFFFFFFFFFFFFFFFFF52
:106E5000FFFFFFFFFFFFFFFFFFFFFFFFFFFFFFFF42
:106E6000FFFFFFFFFFFFFFFFFFFFFFFFFFFFFFFF32
:106E7000FFFFFFFFFFFFFFFFFFFFFFFFFFFFFFFF22
:106E8000FFFFFFFFFFFFFFFFFFFFFFFFFFFFFFFF12
:106E9000FFFFFFFFFFFFFFFFFFFFFFFFFFFFFFFF02
:106EA000FFFFFFFFFFFFFFFFFFFFFFFFFFFFFFFFF2
:106EB000FFFFFFFFFFFFFFFFFFFFFFFFFFFFFFFFE2
:106EC000E98A8D625F6467665A40110B0C0E0E0DE5
:106ED000151E221F1A130A5F9A8880776F67615DFB
:106EE0005957556A5B6B6D68676969666564646369
:106EF000636064615F5E5F5F5F6261616265656A76
:106F000067696E737576797B77736864554968FF36
:106F1000FCFCFBFDFBFDFDFFFDFFFFFFFFFFFFFF97
:106F2000FFFFFFFFFFFFFFFFFFFFFFFFFFFFFFFF71
:106F3000FFFFFFFFFFFFFFFFFFFFFFFFFFFFFFFF61
:106F4000FFFFFFFFFFFFFFFFFFFFFFFFFFFFFFFF51
:106F5000FFFFFFFFFFFFFFFFFFFFFFFFFFFFFFFF41
:106F6000FFFFFFFFFFFFFFFFFFFFFFFFFFFFFFFF31
:106F7000FFFFFFFFFFFFFFFFFFFFFFFFFFFFFFFF21
:106F8000FFFFFFFFFFFFFFFFFFFFFFFFFFFFFFFF11
:106F9000FFFFFFFFFFFFFFFFFFFFFFFFFFFFFFFF01
:106FA000FFFFFFFFFFFFFFFFFFFFFFFFFFFFFFFFF1
:106FB000FFFFFFFFFFFFFFFFFFFFFFFFFFFFFFFFE1
:106FC000FFFFFFFFFFFFFFFFFFFFFFFFFFFFFFFFD1
:106FD000FFFFFFFFFFFFFFFFFFFFFFFFFFFFFFFFC1
:106FE000FFFFFFFFFFFFFFFFFFFFFFFFFFFFFFFFB1
:106FF000FFFFFFFFFFFFFFFFFFFFFFFFFFFFFFFFA1
:10700000FFBF848C68676C6E6D64532B0C080A0993
:1070100008080911171845A9817D756E67615D58CB
:107020005755605A606A666768646766656363633C
:107030006361605F5E5E5F5F626163636366696830
:107040006B716F77797B7A79746E645A4D44D2FB99
:10705000FAF9FBFBFDFBFDFDFFFDFFFFFFFFFFFF5F
:10706000FFFFFFFFFFFFFFFFFFFFFFFFFFFFFFFF30
:10707000FFFFFFFFFFFFFFFFFFFFFFFFFFFFFFFF20
:10708000FFFFFFFFFFFFFFFFFFFFFFFFFFFFFFFF10
:10709000FFFFFFFFFFFFFFFFFFFFFFFFFFFFFFFF00
:1070A000FFFFFFFFFFFFFFFFFFFFFFFFFFFFFFFFF0
:1070B000FFFFFFFFFFFFFFFFFFFFFFFFFFFFFFFFE0
:1070C000FFFFFFFFFFFFFFFFFFFFFFFFFFFFFFFFD0
:1070D000FFFFFFFFFFFFFFFFFFFFFFFFFFFFFFFFC0
:1070E000FFFFFFFFFFFFFFFFFFFFFFFFFFFFFFFFB0
:1070F000FFFFFFFFFFFFFFFFFFFFFFFFFFFFFFFFA0
:10710000FFFFFFFFFFFFFFFFFFFFFFFFFFFFFFFF8F
:10711000FFFFFFFFFFFFFFFFFFFFFFFFFFFFFFFF7F
:10712000FFFFFFFFFFFFFFFFFFFFFFFFFFFFFFFF6F
:10713000FFFFFFFFFFFFFFFFFFFFFFFFFFFFFFFF5F
:10714000FFFEA5858F736E737677726454361C0BC1
:10715000040305102B569F80756F6B655F5A595459
:1071600054526B4D6564666664636362616261601C
:10717000615F5F61605F6260616063656469676CE5
:1071800070707478797A79746E665B5247A0F9F7FB
:10719000F9F9FBFBFBFDFBFDFDFFFDFFFFFFFFFF23
:1071A000FFFFFFFFFFFFFFFFFFFFFFFFFFFFFFFFEF
:1071B000FFFFFFFFFFFFFFFFFFFFFFFFFFFFFFFFDF
:1071C000FFFFFFFFFFFFFFFFFFFFFFFFFFFFFFFFCF
:1071D000FFFFFFFFFFFFFFFFFFFFFFFFFFFFFFFFBF
:1071E000FFFFFFFFFFFFFFFFFFFFFFFFFFFFFFFFAF
:1071F000FFFFFFFFFFFFFFFFFFFFFFFFFFFFFFFF9F
:10720000FFFFFFFFFFFFFFFFFFFFFFFFFFFFFFFF8E
:10721000FFFFFFFFFFFFFFFFFFFFFFFFFFFFFFFF7E
:10722000FFFFFFFFFFFFFFFFFFFFFFFFFFFFFFFF6E
:10723000FFFFFFFFFFFFFFFFFFFFFFFFFFFFFFFF5E
:10724000FFFFFFFFFFFFFFFFFFFFFFFFFFFFFFFF4E
:10725000FFFFFFFFFFFFFFFFFFFFFFFFFFFFFFFF3E
:10726000FFFFFFFFFFFFFFFFFFFFFFFFFFFFFFFF2E
:10727000FFFFFFFFFFFFFFFFFFFFFFFFFFFFFFFF1E
:10728000FFFFF792858F8574797D808078706660C6
:107290005D5B616A779F826E6966615C5855535287
:1072A000515B58576565656461626360605F5F60EC
:1072B0005E615F5E6061606362636864676B6D718D
:1072C0007172787B7977746F685F54476DF9F5F563
:1072D000F5F7F7F9FBFBFDFBFDFDFFFDFFFFFFFFF2
:1072E000FFFFFFFFFFFFFFFFFFFFFFFFFFFFFFFFAE
:1072F000FFFFFFFFFFFFFFFFFFFFFFFFFFFFFFFF9E
:10730000FFFFFFFFFFFFFFFFFFFFFFFFFFFFFFFF8D
:10731000FFFFFFFFFFFFFFFFFFFFFFFFFFFFFFFF7D
:10732000FFFFFFFFFFFFFFFFFFFFFFFFFFFFFFFF6D
:10733000FFFFFFFFFFFFFFFFFFFFFFFFFFFFFFFF5D
:10734000FFFFFFFFFFFFFFFFFFFFFFFFFFFFFFFF4D
:10735000FFFFFFFFFFFFFFFFFFFFFFFFFFFFFFFF3D
:10736000FFFFFFFFFFFFFFFFFFFFFFFFFFFFFFFF2D
:10737000FFFFFFFFFFFFFFFFFFFFFFFFFFFFFFFF1D
:10738000FFFFFFFFFFFFFFFFFFFFFFFFFFFFFFFF0D
:10739000FFFFFFFFFFFFFFFFFFFFFFFFFFFFFFFFFD
:1073A000FFFFFFFFFFFFFFFFFFFFFFFFFFFFFFFFED
:1073B000FFFFFFFFFFFFFFFFFFFFFFFFFFFFFFFFDD
:1073C000FFFFFFF08A848F95887F83878A8A8A8867
:1073D00086878B95A67765625E5A575553504F4FF7
:1073E0004F64495E61635F6162625E5F61605E5DC2
:1073F000605D62605F60616263636568686B716E47
:10740000767B7C787A7770675E554957E4F1F3F3C1
:10741000F3F5F7F9F7F9FBFBFDFBFDFFFDFFFFFFC0
:10742000FFFFFFFFFFFFFFFFFFFFFFFFFFFFFFFF6C
:10743000FFFFFFFFFFFFFFFFFFFFFFFFFFFFFFFF5C
:10744000FFFFFFFFFFFFFFFFFFFFFFFFFFFFFFFF4C
:10745000FFFFFFFFFFFFFFFFFFFFFFFFFFFFFFFF3C
:10746000FFFFFFFFFFFFFFFFFFFFFFFFFFFFFFFF2C
:10747000FFFFFFFFFFFFFFFFFFFFFFFFFFFFFFFF1C
:10748000FFFFFFFFFFFFFFFFFFFFFFFFFFFFFFFF0C
:10749000FFFFFFFFFFFFFFFFFFFFFFFFFFFFFFFFFC
:1074A000FFFFFFFFFFFFFFFFFFFFFFFFFFFFFFFFEC
:1074B000FFFFFFFFFFFFFFFFFFFFFFFFFFFFFFFFDC
:1074C000FFFFFFFFFFFFFFFFFFFFFFFFFFFFFFFFCC
:1074D000FFFFFFFFFFFFFFFFFFFFFFFFFFFFFFFFBC
:1074E000FFFFFFFFFFFFFFFFFFFFFFFFFFFFFFFFAC
:1074F000FFFFFFFFFFFFFFFFFFFFFFFFFFFFFFFF9C
:10750000FFFFFFFFEE817F7F9198968E8D9194967D
:107510009AA1A78E645B5B595552514D4C4D4C4B13
:107520005E4A56615F5E615F5E5E61615F5E626181
:1075300061616161636262626466696C6E6F7077DB
:107540007A78797C776F6763584C49C8EDEFEFEF35
:10755000F3F3F5F5F7F9F9F9FBFDFDFDFFFFFFFF8B
:10756000FFFFFFFFFFFFFFFFFFFFFFFFFFFFFFFF2B
:10757000FFFFFFFFFFFFFFFFFFFFFFFFFFFFFFFF1B
:10758000FFFFFFFFFFFFFFFFFFFFFFFFFFFFFFFF0B
:10759000FFFFFFFFFFFFFFFFFFFFFFFFFFFFFFFFFB
:1075A000FFFFFFFFFFFFFFFFFFFFFFFFFFFFFFFFEB
:1075B000FFFFFFFFFFFFFFFFFFFFFFFFFFFFFFFFDB
:1075C000FFFFFFFFFFFFFFFFFFFFFFFFFFFFFFFFCB
:1075D000FFFFFFFFFFFFFFFFFFFFFFFFFFFFFFFFBB
:1075E000FFFFFFFFFFFFFFFFFFFFFFFFFFFFFFFFAB
:1075F000FFFFFFFFFFFFFFFFFFFFFFFFFFFFFFFF9B
:10760000FFFFFFFFFFFFFFFFFFFFFFFFFFFFFFFF8A
:10761000FFFFFFFFFFFFFFFFFFFFFFFFFFFFFFFF7A
:10762000FFFFFFFFFFFFFFFFFFFFFFFFFFFFFFFF6A
:10763000FFFFFFFFFFFFFFFFFFFFFFFFFFFFFFFF5A
:10764000FFFFFFFFFFEE75787B78818E94999C9BFE
:10765000927D66565856514F4F4D4B4848484957B2
:107660004D4C5D5E5F5E5E5E5E605E5D60615E6154
:107670005F62616163636964676A6A6C6F7476797B
:107680007B7A79756C6961554D42B4E9E9E9EDEDB4
:10769000EDF1F1F5F5F5F7F9FBFBFDFDFDFDFFFF64
:1076A000FFFFFFFFFFFFFFFFFFFFFFFFFFFFFFFFEA
:1076B000FFFFFFFFFFFFFFFFFFFFFFFFFFFFFFFFDA
:1076C000FFFFFFFFFFFFFFFFFFFFFFFFFFFFFFFFCA
:1076D000FFFFFFFFFFFFFFFFFFFFFFFFFFFFFFFFBA
:1076E000FFFFFFFFFFFFFFFFFFFFFFFFFFFFFFFFAA
:1076F000FFFFFFFFFFFFFFFFFFFFFFFFFFFFFFFF9A
:10770000FFFFFFFFFFFFFFFFFFFFFFFFFFFFFFFF89
:10771000FFFFFFFFFFFFFFFFFFFFFFFFFFFFFFFF79
:10772000FFFFFFFFFFFFFFFFFFFFFFFFFFFFFFFF69
:10773000FFFFFFFFFFFFFFFFFFFFFFFFFFFFFFFF59
:10774000FFFFFFFFFFFFFFFFFFFFFFFFFFFFFFFF49
:10775000FFFFFFFFFFFFFFFFFFFFFFFFFFFFFFFF39
:10776000FFFFFFFFFFFFFFFFFFFFFFFFFFFFFFFF29
:10777000FFFFFFFFFFFFFFFFFFFFFFFFFFFFFFFF19
:10778000FFFFFFFFFFFFF36A6B706E6C6A63615E61
:10779000585853514D4B4B47464545444545524D2E
:1077A000485B61615E615F5E615E5F6261606060F7
:1077B00063626463646864696C6B6D7376757C7A0C
:1077C0007979716D6961574D43A5E3E1E5E7E7E933
:1077D000EBEDEDEFF3F5F5F5F9F9F9FDFDFDFFFF43
:1077E000FFFFFFFFFFFFFFFFFFFFFFFFFFFFFFFFA9
:1077F000FFFFFFFFFFFFFFFFFFFFFFFFFFFFFFFF99
:10780000FFFFFFFFFFFFFFFFFFFFFFFFFFFFFFFF88
:10781000FFFFFFFFFFFFFFFFFFFFFFFFFFFFFFFF78
:10782000FFFFFFFFFFFFFFFFFFFFFFFFFFFFFFFF68
:10783000FFFFFFFFFFFFFFFFFFFFFFFFFFFFFFFF58
:10784000FFFFFFFFFFFFFFFFFFFFFFFFFFFFFFFF48
:10785000FFFFFFFFFFFFFFFFFFFFFFFFFFFFFFFF38
:10786000FFFFFFFFFFFFFFFFFFFFFFFFFFFFFFFF28
:10787000FFFFFFFFFFFFFFFFFFFFFFFFFFFFFFFF18
:10788000FFFFFFFFFFFFFFFFFFFFFFFFFFFFFFFF08
:10789000FFFFFFFFFFFFFFFFFFFFFFFFFFFFFFFFF8
:1078A000FFFFFFFFFFFFFFFFFFFFFFFFFFFFFFFFE8
:1078B000FFFFFFFFFFFFFFFFFFFFFFFFFFFFFFFFD8
:1078C000FFFFFFFFFFFFFFF7695664615E5E5753DE
:1078D00051504D484644434140414041434E484A3F
:1078E0005C626160615E5F6060625F606062616493
:1078F0006365646568676B6B6F707378777A7577AB
:1079000076726C645F554D439BDDDBDDDDDFE1E5C9
:10791000E7E9EBEBEDF1F1F5F7F9F9FBFBFFFDFF23
:10792000FFFFFFFFFFFFFFFFFFFFFFFFFFFFFFFF67
:10793000FFFFFFFFFFFFFFFFFFFFFFFFFFFFFFFF57
:10794000FFFFFFFFFFFFFFFFFFFFFFFFFFFFFFFF47
:10795000FFFFFFFFFFFFFFFFFFFFFFFFFFFFFFFF37
:10796000FFFFFFFFFFFFFFFFFFFFFFFFFFFFFFFF27
:10797000FFFFFFFFFFFFFFFFFFFFFFFFFFFFFFFF17
:10798000FFFFFFFFFFFFFFFFFFFFFFFFFFFFFFFF07
:10799000FFFFFFFFFFFFFFFFFFFFFFFFFFFFFFFFF7
:1079A000FFFFFFFFFFFFFFFFFFFFFFFFFFFFFFFFE7
:1079B000FFFFFFFFFFFFFFFFFFFFFFFFFFFFFFFFD7
:1079C000FFFFFFFFFFFFFFFFFFFFFFFFFFFFFFFFC7
:1079D000FFFFFFFFFFFFFFFFFFFFFFFFFFFFFFFFB7
:1079E000FFFFFFFFFFFFFFFFFFFFFFFFFFFFFFFFA7
:1079F000FFFFFFFFFFFFFFFFFFFFFFFFFFFFFFFF97
:107A0000FFFFFFFFFFFFFFFFFF74465056544F4C30
:107A100049474444403E403D3C3E3D444946506118
:107A2000606664635F636364626163626163666529
:107A300065686A69686A707274727D7C7B76797633
:107A4000746A655D534A439CD5D3D7D9DBDBDDDF50
:107A5000E1E5E5E9E9EBEFF1F1F7F7F9FBFBFFFF12
:107A6000FFFFFFFFFFFFFFFFFFFFFFFFFFFFFFFF26
:107A7000FFFFFFFFFFFFFFFFFFFFFFFFFFFFFFFF16
:107A8000FFFFFFFFFFFFFFFFFFFFFFFFFFFFFFFF06
:107A9000FFFFFFFFFFFFFFFFFFFFFFFFFFFFFFFFF6
:107AA000FFFFFFFFFFFFFFFFFFFFFFFFFFFFFFFFE6
:107AB000FFFFFFFFFFFFFFFFFFFFFFFFFFFFFFFFD6
:107AC000FFFFFFFFFFFFFFFFFFFFFFFFFFFFFFFFC6
:107AD000FFFFFFFFFFFFFFFFFFFFFFFFFFFFFFFFB6
:107AE000FFFFFFFFFFFFFFFFFFFFFFFFFFFFFFFFA6
:107AF000FFFFFFFFFFFFFFFFFFFFFFFFFFFFFFFF96
:107B0000FFFFFFFFFFFFFFFFFFFFFFFFFFFFFFFF85
:107B1000FFFFFFFFFFFFFFFFFFFFFFFFFFFFFFFF75
:107B2000FFFFFFFFFFFFFFFFFFFFFFFFFFFFFFFF65
:107B3000FFFFFFFFFFFFFFFFFFFFFFFFFFFFFFFF55
:107B4000FFFFFFFFFFFFFFFFFFFF98474347474649
:107B500043403F3D3B3838393C3C43444C596065D9
:107B600064626264636265636665626664686567D1
:107B700068686A6C6C7271717777777779767070F4
:107B800068645B514C46A2CDCDCFCFD1D3D7D7DBE4
:107B9000DDDDE1E3E7E9E9EDF1F1F5F7FBFBFFFFFF
:107BA000FFFFFFFFFFFFFFFFFFFFFFFFFFFFFFFFE5
:107BB000FFFFFFFFFFFFFFFFFFFFFFFFFFFFFFFFD5
:107BC000FFFFFFFFFFFFFFFFFFFFFFFFFFFFFFFFC5
:107BD000FFFFFFFFFFFFFFFFFFFFFFFFFFFFFFFFB5
:107BE000FFFFFFFFFFFFFFFFFFFFFFFFFFFFFFFFA5
:107BF000FFFFFFFFFFFFFFFFFFFFFFFFFFFFFFFF95
:107C0000FFFFFFFFFFFFFFFFFFFFFFFFFFFFFFFF84
:107C1000FFFFFFFFFFFFFFFFFFFFFFFFFFFFFFFF74
:107C2000FFFFFFFFFFFFFFFFFFFFFFFFFFFFFFFF64
:107C3000FFFFFFFFFFFFFFFFFFFFFFFFFFFFFFFF54
:107C4000FFFFFFFFFFFFFFFFFFFFFFFFFFFFFFFF44
:107C5000FFFFFFFFFFFFFFFFFFFFFFFFFFFFFFFF34
:107C6000FFFFFFFFFFFFFFFFFFFFFFFFFFFFFFFF24
:107C7000FFFFFFFFFFFFFFFFFFFFFFFFFFFFFFFF14
:107C8000FFFFFFFFFFFFFFFFFFFFFFB7544D48451A
:107C9000413F3F3A3B3C3B40434B525C63686A6622
:107CA00065666565676866656863686A6B686C6B5E
:107CB0006E6C70747672767A7878797872716E6597
:107CC00060584D494DACC5C5C7C7C9CDCFCFD1D57B
:107CD000D5D9D9DFE1E5E5E9EBEFF1F5F9F9FDFFFC
:107CE000FFFFFFFFFFFFFFFFFFFFFFFFFFFFFFFFA4
:107CF000FFFFFFFFFFFFFFFFFFFFFFFFFFFFFFFF94
:107D0000FFFFFFFFFFFFFFFFFFFFFFFFFFFFFFFF83
:107D1000FFFFFFFFFFFFFFFFFFFFFFFFFFFFFFFF73
:107D2000FFFFFFFFFFFFFFFFFFFFFFFFFFFFFFFF63
:107D3000FFFFFFFFFFFFFFFFFFFFFFFFFFFFFFFF53
:107D4000FFFFFFFFFFFFFFFFFFFFFFFFFFFFFFFF43
:107D5000FFFFFFFFFFFFFFFFFFFFFFFFFFFFFFFF33
:107D6000FFFFFFFFFFFFFFFFFFFFFFFFFFFFFFFF23
:107D7000FFFFFFFFFFFFFFFFFFFFFFFFFFFFFFFF13
:107D8000FFFFFFFFFFFFFFFFFFFFFFFFFFFFFFFF03
:107D9000FFFFFFFFFFFFFFFFFFFFFFFFFFFFFFFFF3
:107DA000FFFFFFFFFFFFFFFFFFFFFFFFFFFFFFFFE3
:107DB000FFFFFFFFFFFFFFFFFFFFFFFFFFFFFFFFD3
:107DC000FFFFFFFFFFFFFFFFFFFFFFFFDE605454D9
:107DD00055545251545359595F646C6A6D6B6D6AB6
:107DE000686A686A69696669686A6B6A6A6F6D73EE
:107DF000707373777379797B787676706E67635B6F
:107E0000554C475EB7BBBFBFBFC1C5C5C7C9CBCD0A
:107E1000CFD1D5D7D9DFE1E7E7EBF1F5F7F9FBFFF4
:107E2000FFFFFFFFFFFFFFFFFFFFFFFFFFFFFFFF62
:107E3000FFFFFFFFFFFFFFFFFFFFFFFFFFFFFFFF52
:107E4000FFFFFFFFFFFFFFFFFFFFFFFFFFFFFFFF42
:107E5000FFFFFFFFFFFFFFFFFFFFFFFFFFFFFFFF32
:107E6000FFFFFFFFFFFFFFFFFFFFFFFFFFFFFFFF22
:107E7000FFFFFFFFFFFFFFFFFFFFFFFFFFFFFFFF12
:107E8000FFFFFFFFFFFFFFFFFFFFFFFFFFFFFFFF02
:107E9000FFFFFFFFFFFFFFFFFFFFFFFFFFFFFFFFF2
:107EA000FFFFFFFFFFFFFFFFFFFFFFFFFFFFFFFFE2
:107EB000FFFFFFFFFFFFFFFFFFFFFFFFFFFFFFFFD2
:107EC000FFFFFFFFFFFFFFFFFFFFFFFFFFFFFFFFC2
:107ED000FFFFFFFFFFFFFFFFFFFFFFFFFFFFFFFFB2
:107EE000FFFFFFFFFFFFFFFFFFFFFFFFFFFFFFFFA2
:107EF000FFFFFFFFFFFFFFFFFFFFFFFFFFFFFFFF92
:107F0000FFFFFFFFFFFFFFFFFFFFFFFFFF843D506D
:107F1000595C6162646A686E717070716C6F6B6DD0
:107F20006E6E6D6C6F706F6A6D6F7070706F757163
:107F3000777778767A75787374716E6863605A5261
:107F40004A391A8AB7B5B7B9B9BDBDBFC1C1C3C532
:107F5000C9CBCDD1D5D7DDE3E7EBEDF1F5F9F9FFED
:107F6000FFFFFFFFFFFFFFFFFFFFFFFFFFFFFFFF21
:107F7000FFFFFFFFFFFFFFFFFFFFFFFFFFFFFFFF11
:107F8000FFFFFFFFFFFFFFFFFFFFFFFFFFFFFFFF01
:107F9000FFFFFFFFFFFFFFFFFFFFFFFFFFFFFFFFF1
:107FA000FFFFFFFFFFFFFFFFFFFFFFFFFFFFFFFFE1
:107FB000FFFFFFFFFFFFFFFFFFFFFFFFFFFFFFFFD1
:107FC000FFFFFFFFFFFFFFFFFFFFFFFFFFFFFFFFC1
:107FD000FFFFFFFFFFFFFFFFFFFFFFFFFFFFFFFFB1
:107FE000FFFFFFFFFFFFFFFFFFFFFFFFFFFFFFFFA1
:107FF000FFFFFFFFFFFFFFFFFFFFFFFFFFFFFFFF91
:10800000FFFFFFFFFFFFFFFFFFFFFFFFFFFFFFFF80
:10801000FFFFFFFFFFFFFFFFFFFFFFFFFFFFFFFF70
:10802000FFFFFFFFFFFFFFFFFFFFFFFFFFFFFFFF60
:10803000FFFFFFFFFFFFFFFFFFFFFFFFFFFFFFFF50
:10804000FFFFFFFFFFFFFFFFFFFFFFFF88505F4EB7
:1080500043545A5C626668686C6D6D6F72737171BF
:1080600070707270717070707371707571757776F1
:10807000747874767577756F6D6965615A544D447F
:108080002713141988B3B1B3B3B5B7B7B9BBBFBF22
:10809000C1C5C7CBCFD5D7DDE1E5EBEFF3F9F9FFEC
:1080A000FFFFFFFFFFFFFFFFFFFFFFFFFFFFFFFFE0
:1080B000FFFFFFFFFFFFFFFFFFFFFFFFFFFFFFFFD0
:1080C000FFFFFFFFFFFFFFFFFFFFFFFFFFFFFFFFC0
:1080D000FFFFFFFFFFFFFFFFFFFFFFFFFFFFFFFFB0
:1080E000FFFFFFFFFFFFFFFFFFFFFFFFFFFFFFFFA0
:1080F000FFFFFFFFFFFFFFFFFFFFFFFFFFFFFFFF90
:10810000FFFFFFFFFFFFFFFFFFFFFFFFFFFFFFFF7F
:10811000FFFFFFFFFFFFFFFFFFFFFFFFFFFFFFFF6F
:10812000FFFFFFFFFFFFFFFFFFFFFFFFFFFFFFFF5F
:10813000FFFFFFFFFFFFFFFFFFFFFFFFFFFFFFFF4F
:10814000FFFFFFFFFFFFFFFFFFFFFFFFFFFFFFFF3F
:10815000FFFFFFFFFFFFFFFFFFFFFFFFFFFFFFFF2F
:10816000FFFFFFFFFFFFFFFFFFFFFFFFFFFFFFFF1F
:10817000FFFFFFFFFFFFFFFFFFFFFFFFFFFFFFFF0F
:10818000FFFFFFFFFFFFFFFFFFFFFF924F5A5E6100
:10819000604045565A5E6066676B6A6C70737172B8
:1081A0006F73737173767275727573767576777493
:1081B00078767672706F6D69655D5B554D483225D6
:1081C000251E19171C8CAFAFB1B1B1B5B5B5B7B994
:1081D000BBBFC1C5CBCDD3DBE1E3EBEDF1F5F9FDE1
:1081E000FFFFFFFFFFFFFFFFFFFFFFFFFFFFFFFF9F
:1081F000FFFFFFFFFFFFFFFFFFFFFFFFFFFFFFFF8F
:10820000FFFFFFFFFFFFFFFFFFFFFFFFFFFFFFFF7E
:10821000FFFFFFFFFFFFFFFFFFFFFFFFFFFFFFFF6E
:10822000FFFFFFFFFFFFFFFFFFFFFFFFFFFFFFFF5E
:10823000FFFFFFFFFFFFFFFFFFFFFFFFFFFFFFFF4E
:10824000FFFFFFFFFFFFFFFFFFFFFFFFFFFFFFFF3E
:10825000FFFFFFFFFFFFFFFFFFFFFFFFFFFFFFFF2E
:10826000FFFFFFFFFFFFFFFFFFFFFFFFFFFFFFFF1E
:10827000FFFFFFFFFFFFFFFFFFFFFFFFFFFFFFFF0E
:10828000FFFFFFFFFFFFFFFFFFFFFFFFFFFFFFFFFE
:10829000FFFFFFFFFFFFFFFFFFFFFFFFFFFFFFFFEE
:1082A000FFFFFFFFFFFFFFFFFFFFFFFFFFFFFFFFDE
:1082B000FFFFFFFFFFFFFFFFFFFFFFFFFFFFFFFFCE
:1082C000FFFFFFFFFFFFFFFFFFFFAB51595D676E31
:1082D000706D53384656595B616467666A6A6A6FA7
:1082E0006E74717075747571767779747473747255
:1082F0006E716D6C6666615C5A54504835303B391E
:108300003229221D1A2594A9A9ADADADAFAFB1B3E5
:10831000B7B9BBBFC3C9CFD5DDE1E7EDF1F7F9FBD5
:10832000FFFFFFFFFFFFFFFFFFFFFFFFFFFFFFFF5D
:10833000FFFFFFFFFFFFFFFFFFFFFFFFFFFFFFFF4D
:10834000FFFFFFFFFFFFFFFFFFFFFFFFFFFFFFFF3D
:10835000FFFFFFFFFFFFFFFFFFFFFFFFFFFFFFFF2D
:10836000FFFFFFFFFFFFFFFFFFFFFFFFFFFFFFFF1D
:10837000FFFFFFFFFFFFFFFFFFFFFFFFFFFFFFFF0D
:10838000FFFFFFFFFFFFFFFFFFFFFFFFFFFFFFFFFD
:10839000FFFFFFFFFFFFFFFFFFFFFFFFFFFFFFFFED
:1083A000FFFFFFFFFFFFFFFFFFFFFFFFFFFFFFFFDD
:1083B000FFFFFFFFFFFFFFFFFFFFFFFFFFFFFFFFCD
:1083C000FFFFFFFFFFFFFFFFFFFFFFFFFFFFFFFFBD
:1083D000FFFFFFFFFFFFFFFFFFFFFFFFFFFFFFFFAD
:1083E000FFFFFFFFFFFFFFFFFFFFFFFFFFFFFFFF9D
:1083F000FFFFFFFFFFFFFFFFFFFFFFFFFFFFFFFF8D
:10840000FFFFFFFFFFFFFFFFFFCB555B6269686F58
:108410007379756C4836405257595C616566676779
:108420006C6D68706F6B6B6E6C706E716C6F6A6C7C
:10843000686763605E5C56514E4533304146474441
:108440003F372F251F1D35A0A5A5A9A9A9ABADAF05
:10845000B3B3B9BBBFC5CDD5D9E1E5EBEFF3F7FDBC
:10846000FDFFFFFFFFFFFFFFFFFFFFFFFFFFFFFF1E
:10847000FFFFFFFFFFFFFFFFFFFFFFFFFFFFFFFF0C
:10848000FFFFFFFFFFFFFFFFFFFFFFFFFFFFFFFFFC
:10849000FFFFFFFFFFFFFFFFFFFFFFFFFFFFFFFFEC
:1084A000FFFFFFFFFFFFFFFFFFFFFFFFFFFFFFFFDC
:1084B000FFFFFFFFFFFFFFFFFFFFFFFFFFFFFFFFCC
:1084C000FFFFFFFFFFFFFFFFFFFFFFFFFFFFFFFFBC
:1084D000FFFFFFFFFFFFFFFFFFFFFFFFFFFFFFFFAC
:1084E000FFFFFFFFFFFFFFFFFFFFFFFFFFFFFFFF9C
:1084F000FFFFFFFFFFFFFFFFFFFFFFFFFFFFFFFF8C
:10850000FFFFFFFFFFFFFFFFFFFFFFFFFFFFFFFF7B
:10851000FFFFFFFFFFFFFFFFFFFFFFFFFFFFFFFF6B
:10852000FFFFFFFFFFFFFFFFFFFFFFFFFFFFFFFF5B
:10853000FFFFFFFFFFFFFFFFFFFFFFFFFFFFFFFF4B
:10854000FFFFFFFFFFFFFFFFEC585A656B6B74786E
:10855000777F85877E6C5339394954575A5F5F60FE
:10856000626666696568686B6A666968676864619F
:108570005F5B5A57534F4B372B2E3D43484C4F4F61
:108580004C463C332822224CA3A1A1A3A5A5A9A90E
:10859000ABAFB3B9BBC1C9D1D9DDE3EBEFF5F9FBA3
:1085A000FFFFFFFFFFFFFFFFFFFFFFFFFFFFFFFFDB
:1085B000FFFFFFFFFFFFFFFFFFFFFFFFFFFFFFFFCB
:1085C000FFFFFFFFFFFFFFFFFFFFFFFFFFFFFFFFBB
:1085D000FFFFFFFFFFFFFFFFFFFFFFFFFFFFFFFFAB
:1085E000FFFFFFFFFFFFFFFFFFFFFFFFFFFFFFFF9B
:1085F000FFFFFFFFFFFFFFFFFFFFFFFFFFFFFFFF8B
:10860000FFFFFFFFFFFFFFFFFFFFFFFFFFFFFFFF7A
:10861000FFFFFFFFFFFFFFFFFFFFFFFFFFFFFFFF6A
:10862000FFFFFFFFFFFFFFFFFFFFFFFFFFFFFFFF5A
:10863000FFFFFFFFFFFFFFFFFFFFFFFFFFFFFFFF4A
:10864000FFFFFFFFFFFFFFFFFFFFFFFFFFFFFFFF3A
:10865000FFFFFFFFFFFFFFFFFFFFFFFFFFFFFFFF2A
:10866000FFFFFFFFFFFFFFFFFFFFFFFFFFFFFFFF1A
:10867000FFFFFFFFFFFFFFFFFFFFFFFFFFFFFFFF0A
:10868000FFFFFFFFFFFFFFFF6E5C656C6C6F737B8E
:108690007B84868C98978B78674D3E3B444E54552F
:1086A000585A5C5F5E5E5F5F5D5F5E5B5C5A57560B
:1086B00054524E443429222C353A3E444B505456A1
:1086C00056524B40342A2529709D9B9D9FA1A1A500
:1086D000A7ABAFB3B9C1C7CFD7DDE3E9EDF3F7FB84
:1086E000FFFFFFFFFFFFFFFFFFFFFFFFFFFFFFFF9A
:1086F000FFFFFFFFFFFFFFFFFFFFFFFFFFFFFFFF8A
:10870000FFFFFFFFFFFFFFFFFFFFFFFFFFFFFFFF79
:10871000FFFFFFFFFFFFFFFFFFFFFFFFFFFFFFFF69
:10872000FFFFFFFFFFFFFFFFFFFFFFFFFFFFFFFF59
:10873000FFFFFFFFFFFFFFFFFFFFFFFFFFFFFFFF49
:10874000FFFFFFFFFFFFFFFFFFFFFFFFFFFFFFFF39
:10875000FFFFFFFFFFFFFFFFFFFFFFFFFFFFFFFF29
:10876000FFFFFFFFFFFFFFFFFFFFFFFFFFFFFFFF19
:10877000FFFFFFFFFFFFFFFFFFFFFFFFFFFFFFFF09
:10878000FFFFFFFFFFFFFFFFFFFFFFFFFFFFFFFFF9
:10879000FFFFFFFFFFFFFFFFFFFFFFFFFFFFFFFFE9
:1087A000FFFFFFFFFFFFFFFFFFFFFFFFFFFFFFFFD9
:1087B000FFFFFFFFFFFFFFFFFFFFFFFFFFFFFFFFC9
:1087C000FFFFFFFFFFFFFFAF5A65676F71767C7D8C
:1087D00083898D96A0A3ABA89E8F7E705F4E463F87
:1087E0004043494F50505051535251504E4B4239D3
:1087F00030292223292D2F33353B42484C53585CD6
:108800005E5D584F42362C2933909999999B9DA1D2
:10881000A1A5ABB1B5BDC7CDD5DBE3E7EFF1F7F966
:10882000FFFFFFFFFFFFFFFFFFFFFFFFFFFFFFFF58
:10883000FFFFFFFFFFFFFFFFFFFFFFFFFFFFFFFF48
:10884000FFFFFFFFFFFFFFFFFFFFFFFFFFFFFFFF38
:10885000FFFFFFFFFFFFFFFFFFFFFFFFFFFFFFFF28
:10886000FFFFFFFFFFFFFFFFFFFFFFFFFFFFFFFF18
:10887000FFFFFFFFFFFFFFFFFFFFFFFFFFFFFFFF08
:10888000FFFFFFFFFFFFFFFFFFFFFFFFFFFFFFFFF8
:10889000FFFFFFFFFFFFFFFFFFFFFFFFFFFFFFFFE8
:1088A000FFFFFFFFFFFFFFFFFFFFFFFFFFFFFFFFD8
:1088B000FFFFFFFFFFFFFFFFFFFFFFFFFFFFFFFFC8
:1088C000FFFFFFFFFFFFFFFFFFFFFFFFFFFFFFFFB8
:1088D000FFFFFFFFFFFFFFFFFFFFFFFFFFFFFFFFA8
:1088E000FFFFFFFFFFFFFFFFFFFFFFFFFFFFFFFF98
:1088F000FFFFFFFFFFFFFFFFFFFFFFFFFFFFFFFF88
:10890000FFFFFFFFFFFFF15E656A6F74767F7B807C
:10891000898E9598A1ABB0B9BAC0B7AB9C90857F52
:10892000786A5F57504B4643403D3C3A35353536C3
:108930003831332F2F2D3133373F44484F555B604B
:108940006365635C5244362D2E5495939597999B9D
:108950009FA3A7ADB5BBC3CDD3DBE1E9EDF3F5FB39
:10896000FDFFFFFFFFFFFFFFFFFFFFFFFFFFFFFF19
:10897000FFFFFFFFFFFFFFFFFFFFFFFFFFFFFFFF07
:10898000FFFFFFFFFFFFFFFFFFFFFFFFFFFFFFFFF7
:10899000FFFFFFFFFFFFFFFFFFFFFFFFFFFFFFFFE7
:1089A000FFFFFFFFFFFFFFFFFFFFFFFFFFFFFFFFD7
:1089B000FFFFFFFFFFFFFFFFFFFFFFFFFFFFFFFFC7
:1089C000FFFFFFFFFFFFFFFFFFFFFFFFFFFFFFFFB7
:1089D000FFFFFFFFFFFFFFFFFFFFFFFFFFFFFFFFA7
:1089E000FFFFFFFFFFFFFFFFFFFFFFFFFFFFFFFF97
:1089F000FFFFFFFFFFFFFFFFFFFFFFFFFFFFFFFF87
:108A0000FFFFFFFFFFFFFFFFFFFFFFFFFFFFFFFF76
:108A1000FFFFFFFFFFFFFFFFFFFFFFFFFFFFFFFF66
:108A2000FFFFFFFFFFFFFFFFFFFFFFFFFFFFFFFF56
:108A3000FFFFFFFFFFFFFFFFFFFFFFFFFFFFFFFF46
:108A4000FFFFFFFFFFFF98636B6D6F787E7C848C68
:108A50008A969BA2A7B0B6C0C6CFD3D6D4CDC2B695
:108A6000A89D948E86817A746E67625A544D4841EF
:108A70003F373532303031353A4044494F565D60EA
:108A8000676B6B685F524236303580919193959752
:108A90009B9FA5ABB3BBC3CFD5DBE3E7EDF1F7FD00
:108AA000FFFFFFFFFFFFFFFFFFFFFFFFFFFFFFFFD6
:108AB000FFFFFFFFFFFFFFFFFFFFFFFFFFFFFFFFC6
:108AC000FFFFFFFFFFFFFFFFFFFFFFFFFFFFFFFFB6
:108AD000FFFFFFFFFFFFFFFFFFFFFFFFFFFFFFFFA6
:108AE000FFFFFFFFFFFFFFFFFFFFFFFFFFFFFFFF96
:108AF000FFFFFFFFFFFFFFFFFFFFFFFFFFFFFFFF86
:108B0000FFFFFFFFFFFFFFFFFFFFFFFFFFFFFFFF75
:108B1000FFFFFFFFFFFFFFFFFFFFFFFFFFFFFFFF65
:108B2000FFFFFFFFFFFFFFFFFFFFFFFFFFFFFFFF55
:108B3000FFFFFFFFFFFFFFFFFFFFFFFFFFFFFFFF45
:108B4000FFFFFFFFFFFFFFFFFFFFFFFFFFFFFFFF35
:108B5000FFFFFFFFFFFFFFFFFFFFFFFFFFFFFFFF25
:108B6000FFFFFFFFFFFFFFFFFFFFFFFFFFFFFFFF15
:108B7000FFFFFFFFFFFFFFFFFFFFFFFFFFFFFFFF05
:108B8000FFFFFFFFFFF362646E75757D7C858A8B46
:108B900093989EA5AEB3BCC4CAD4DCE1E6ECECEA83
:108BA000E4DBCEC2B5A69A8F847A70675F58514BCA
:108BB00046403E3C3937383A3F40484E535A5E654E
:108BC0006B6F73726C604F403634548D8D919195FC
:108BD000999FA5ABB3BDC7D1D7DDE3E9EFF7FBFDA7
:108BE000FFFFFFFFFFFFFFFFFFFFFFFFFFFFFFFF95
:108BF000FFFFFFFFFFFFFFFFFFFFFFFFFFFFFFFF85
:108C0000FFFFFFFFFFFFFFFFFFFFFFFFFFFFFFFF74
:108C1000FFFFFFFFFFFFFFFFFFFFFFFFFFFFFFFF64
:108C2000FFFFFFFFFFFFFFFFFFFFFFFFFFFFFFFF54
:108C3000FFFFFFFFFFFFFFFFFFFFFFFFFFFFFFFF44
:108C4000FFFFFFFFFFFFFFFFFFFFFFFFFFFFFFFF34
:108C5000FFFFFFFFFFFFFFFFFFFFFFFFFFFFFFFF24
:108C6000FFFFFFFFFFFFFFFFFFFFFFFFFFFFFFFF14
:108C7000FFFFFFFFFFFFFFFFFFFFFFFFFFFFFFFF04
:108C8000FFFFFFFFFFFFFFFFFFFFFFFFFFFFFFFFF4
:108C9000FFFFFFFFFFFFFFFFFFFFFFFFFFFFFFFFE4
:108CA000FFFFFFFFFFFFFFFFFFFFFFFFFFFFFFFFD4
:108CB000FFFFFFFFFFFFFFFFFFFFFFFFFFFFFFFFC4
:108CC000FFFFFFFFFFB3677079737A81858B8C900C
:108CD000999FA3A9B1BAC1C9D1D6DCE5EBF1F5F8EA
:108CE000FAFAF6EFE6DCCEBFB1A497897F736A6328
:108CF0005A574F494848454A4B5058595F666B711F
:108D000074797D7E796E5F4D3E373D858B8D919573
:108D10009BA1A9B1BBC5CDD5DBE1E7EFF7FBFFFF19
:108D2000FFFFFFFFFFFFFFFFFFFFFFFFFFFFFFFF53
:108D3000FFFFFFFFFFFFFFFFFFFFFFFFFFFFFFFF43
:108D4000FFFFFFFFFFFFFFFFFFFFFFFFFFFFFFFF33
:108D5000FFFFFFFFFFFFFFFFFFFFFFFFFFFFFFFF23
:108D6000FFFFFFFFFFFFFFFFFFFFFFFFFFFFFFFF13
:108D7000FFFFFFFFFFFFFFFFFFFFFFFFFFFFFFFF03
:108D8000FFFFFFFFFFFFFFFFFFFFFFFFFFFFFFFFF3
:108D9000FFFFFFFFFFFFFFFFFFFFFFFFFFFFFFFFE3
:108DA000FFFFFFFFFFFFFFFFFFFFFFFFFFFFFFFFD3
:108DB000FFFFFFFFFFFFFFFFFFFFFFFFFFFFFFFFC3
:108DC000FFFFFFFFFFFFFFFFFFFFFFFFFFFFFFFFB3
:108DD000FFFFFFFFFFFFFFFFFFFFFFFFFFFFFFFFA3
:108DE000FFFFFFFFFFFFFFFFFFFFFFFFFFFFFFFF93
:108DF000FFFFFFFFFFFFFFFFFFFFFFFFFFFFFFFF83
:108E0000FFFFFFFFFF7E6D70747B7C848B89929ADD
:108E1000A0A1ABB2B8BDC3CED2DCE2E8EEF1F7FB65
:108E2000FDFDFDFAF4EEE4DCD1C5B5AC9E94867A86
:108E30007468685F5859575B5D60646E73798283AC
:108E40008B909494928878614D3F3E6A898F97A168
:108E5000A7ADB5BFC7CFD7DDE5EBF3F9FDFFFFFF4A
:108E6000FFFFFFFFFFFFFFFFFFFFFFFFFFFFFFFF12
:108E7000FFFFFFFFFFFFFFFFFFFFFFFFFFFFFFFF02
:108E8000FFFFFFFFFFFFFFFFFFFFFFFFFFFFFFFFF2
:108E9000FFFFFFFFFFFFFFFFFFFFFFFFFFFFFFFFE2
:108EA000FFFFFFFFFFFFFFFFFFFFFFFFFFFFFFFFD2
:108EB000FFFFFFFFFFFFFFFFFFFFFFFFFFFFFFFFC2
:108EC000FFFFFFFFFFFFFFFFFFFFFFFFFFFFFFFFB2
:108ED000FFFFFFFFFFFFFFFFFFFFFFFFFFFFFFFFA2
:108EE000FFFFFFFFFFFFFFFFFFFFFFFFFFFFFFFF92
:108EF000FFFFFFFFFFFFFFFFFFFFFFFFFFFFFFFF82
:108F0000FFFFFFFFFFFFFFFFFFFFFFFFFFFFFFFF71
:108F1000FFFFFFFFFFFFFFFFFFFFFFFFFFFFFFFF61
:108F2000FFFFFFFFFFFFFFFFFFFFFFFFFFFFFFFF51
:108F3000FFFFFFFFFFFFFFFFFFFFFFFFFFFFFFFF41
:108F4000FFFFFFFFF96971747C8084858994969B8B
:108F5000A1ABB0B4BBC4CBD2D8DFE3EBEEF4F8FBEB
:108F6000FDFEFDFAF6EFE9DFD5CAC1B5A89B958AEB
:108F700081777169686261616469727A82878E99AA
:108F80009FA5ABB0B0A7977F634F465A8B95A7B309
:108F9000BDC5CBD1D9DFE5EDF3F9FDFFFFFFFFFF45
:108FA000FFFFFFFFFFFFFFFFFFFFFFFFFFFFFFFFD1
:108FB000FFFFFFFFFFFFFFFFFFFFFFFFFFFFFFFFC1
:108FC000FFFFFFFFFFFFFFFFFFFFFFFFFFFFFFFFB1
:108FD000FFFFFFFFFFFFFFFFFFFFFFFFFFFFFFFFA1
:108FE000FFFFFFFFFFFFFFFFFFFFFFFFFFFFFFFF91
:108FF000FFFFFFFFFFFFFFFFFFFFFFFFFFFFFFFF81
:10900000FFFFFFFFFFFFFFFFFFFFFFFFFFFFFFFF70
:10901000FFFFFFFFFFFFFFFFFFFFFFFFFFFFFFFF60
:10902000FFFFFFFFFFFFFFFFFFFFFFFFFFFFFFFF50
:10903000FFFFFFFFFFFFFFFFFFFFFFFFFFFFFFFF40
:10904000FFFFFFFFFFFFFFFFFFFFFFFFFFFFFFFF30
:10905000FFFFFFFFFFFFFFFFFFFFFFFFFFFFFFFF20
:10906000FFFFFFFFFFFFFFFFFFFFFFFFFFFFFFFF10
:10907000FFFFFFFFFFFFFFFFFFFFFFFFFFFFFFFF00
:10908000FFFFFFFFD676757B7C81858D92959C9E38
:10909000A8ACB0BBC1C5CED3DCE0E7EDF2F7FAFC7B
:1090A000FEFEFCF9F5EFE6DFD4CCBEB2ABA1918BAE
:1090B0007E7C716C69656B62656C7177808C969D46
:1090C000A7AEB8BEC1C1B49A7D6251578D9FB9CBCE
:1090D000D9DDE3E9EDF1F7FBFDFFFFFFFFFFFFFF48
:1090E000FFFFFFFFFFFFFFFFFFFFFFFFFFFFFFFF90
:1090F000FFFFFFFFFFFFFFFFFFFFFFFFFFFFFFFF80
:10910000FFFFFFFFFFFFFFFFFFFFFFFFFFFFFFFF6F
:10911000FFFFFFFFFFFFFFFFFFFFFFFFFFFFFFFF5F
:10912000FFFFFFFFFFFFFFFFFFFFFFFFFFFFFFFF4F
:10913000FFFFFFFFFFFFFFFFFFFFFFFFFFFFFFFF3F
:10914000FFFFFFFFFFFFFFFFFFFFFFFFFFFFFFFF2F
:10915000FFFFFFFFFFFFFFFFFFFFFFFFFFFFFFFF1F
:10916000FFFFFFFFFFFFFFFFFFFFFFFFFFFFFFFF0F
:10917000FFFFFFFFFFFFFFFFFFFFFFFFFFFFFFFFFF
:10918000FFFFFFFFFFFFFFFFFFFFFFFFFFFFFFFFEF
:10919000FFFFFFFFFFFFFFFFFFFFFFFFFFFFFFFFDF
:1091A000FFFFFFFFFFFFFFFFFFFFFFFFFFFFFFFFCF
:1091B000FFFFFFFFFFFFFFFFFFFFFFFFFFFFFFFFBF
:1091C000FFFFFFFFCB7E7A7C80898E8F98999EA7C8
:1091D000A9B1B9BFC5CBD0D9DFE3EAEFF4F6FBFD07
:1091E000FEFEFCF9F4EEE6DED5C9C0B7AC9F95896A
:1091F000857D746A686B5E6466676C798186939B13
:10920000A2AFB5BFC9CBBFAA8D6F654C97ADCBE3FD
:10921000F1F5F7F9FBFDFFFFFFFFFFFFFFFFFFFF8A
:10922000FFFFFFFFFFFFFFFFFFFFFFFFFFFFFFFF4E
:10923000FFFFFFFFFFFFFFFFFFFFFFFFFFFFFFFF3E
:10924000FFFFFFFFFFFFFFFFFFFFFFFFFFFFFFFF2E
:10925000FFFFFFFFFFFFFFFFFFFFFFFFFFFFFFFF1E
:10926000FFFFFFFFFFFFFFFFFFFFFFFFFFFFFFFF0E
:10927000FFFFFFFFFFFFFFFFFFFFFFFFFFFFFFFFFE
:10928000FFFFFFFFFFFFFFFFFFFFFFFFFFFFFFFFEE
:10929000FFFFFFFFFFFFFFFFFFFFFFFFFFFFFFFFDE
:1092A000FFFFFFFFFFFFFFFFFFFFFFFFFFFFFFFFCE
:1092B000FFFFFFFFFFFFFFFFFFFFFFFFFFFFFFFFBE
:1092C000FFFFFFFFFFFFFFFFFFFFFFFFFFFFFFFFAE
:1092D000FFFFFFFFFFFFFFFFFFFFFFFFFFFFFFFF9E
:1092E000FFFFFFFFFFFFFFFFFFFFFFFFFFFFFFFF8E
:1092F000FFFFFFFFFFFFFFFFFFFFFFFFFFFFFFFF7E
:10930000FFFFFFFFDE7D7E81898B8E94959CA2A955
:10931000B1B3BCC0C9CED6DCE2E7EBF1F6F9FAFD99
:10932000FEFDFBF8F3EBE5DCD3CBBEB5A9A1958F31
:10933000847C746D6A65656264686F7379838793F2
:109340009DA7B3B9C4C7C1AF93746C509FBDDDF383
:10935000FDFFFFFFFFFFFFFFFFFFFFFFFFFFFFFF1F
:10936000FFFFFFFFFFFFFFFFFFFFFFFFFFFFFFFF0D
:10937000FFFFFFFFFFFFFFFFFFFFFFFFFFFFFFFFFD
:10938000FFFFFFFFFFFFFFFFFFFFFFFFFFFFFFFFED
:10939000FFFFFFFFFFFFFFFFFFFFFFFFFFFFFFFFDD
:1093A000FFFFFFFFFFFFFFFFFFFFFFFFFFFFFFFFCD
:1093B000FFFFFFFFFFFFFFFFFFFFFFFFFFFFFFFFBD
:1093C000FFFFFFFFFFFFFFFFFFFFFFFFFFFFFFFFAD
:1093D000FFFFFFFFFFFFFFFFFFFFFFFFFFFFFFFF9D
:1093E000FFFFFFFFFFFFFFFFFFFFFFFFFFFFFFFF8D
:1093F000FFFFFFFFFFFFFFFFFFFFFFFFFFFFFFFF7D
:10940000FFFFFFFFFFFFFFFFFFFFFFFFFFFFFFFF6C
:10941000FFFFFFFFFFFFFFFFFFFFFFFFFFFFFFFF5C
:10942000FFFFFFFFFFFFFFFFFFFFFFFFFFFFFFFF4C
:10943000FFFFFFFFFFFFFFFFFFFFFFFFFFFFFFFF3C
:10944000FFFFFFFFFF5BA582919396959FA4ACAEB3
:10945000B3BABDC6CCD4D8DFE5EAEFF1F5FAFCFE2D
:10946000FEFDFBF7F2ECE5DED3CBBFB3A9A2998EEC
:10947000877F79726964696869627475797B88929B
:109480009DA2ABB5BDC2BDAE92766261B1D1EDFD1C
:10949000FFFFFFFFFFFFFFFFFFFFFFFFFFFFFFFFDC
:1094A000FFFFFFFFFFFFFFFFFFFFFFFFFFFFFFFFCC
:1094B000FFFFFFFFFFFFFFFFFFFFFFFFFFFFFFFFBC
:1094C000FFFFFFFFFFFFFFFFFFFFFFFFFFFFFFFFAC
:1094D000FFFFFFFFFFFFFFFFFFFFFFFFFFFFFFFF9C
:1094E000FFFFFFFFFFFFFFFFFFFFFFFFFFFFFFFF8C
:1094F000FFFFFFFFFFFFFFFFFFFFFFFFFFFFFFFF7C
:10950000FFFFFFFFFFFFFFFFFFFFFFFFFFFFFFFF6B
:10951000FFFFFFFFFFFFFFFFFFFFFFFFFFFFFFFF5B
:10952000FFFFFFFFFFFFFFFFFFFFFFFFFFFFFFFF4B
:10953000FFFFFFFFFFFFFFFFFFFFFFFFFFFFFFFF3B
:10954000FFFFFFFFFFFFFFFFFFFFFFFFFFFFFFFF2B
:10955000FFFFFFFFFFFFFFFFFFFFFFFFFFFFFFFF1B
:10956000FFFFFFFFFFFFFFFFFFFFFFFFFFFFFFFF0B
:10957000FFFFFFFFFFFFFFFFFFFFFFFFFFFFFFFFFB
:10958000FFFFFFFFFF829F8B8D90989D9FA8ABB43C
:10959000B8BBC5CBD2D5DCE0E5ECEFF4F8F9FDFEC5
:1095A000FEFDFAF6F1E9E4DCD4C9BDB6ABA49790B0
:1095B000867D77706B6A646165656769747B808C92
:1095C000929FA6ACB8BBB8A78B8C3B95C5E5F9FFBD
:1095D000FFFFFFFFFFFFFFFFFFFFFFFFFFFFFFFF9B
:1095E000FFFFFFFFFFFFFFFFFFFFFFFFFFFFFFFF8B
:1095F000FFFFFFFFFFFFFFFFFFFFFFFFFFFFFFFF7B
:10960000FFFFFFFFFFFFFFFFFFFFFFFFFFFFFFFF6A
:10961000FFFFFFFFFFFFFFFFFFFFFFFFFFFFFFFF5A
:10962000FFFFFFFFFFFFFFFFFFFFFFFFFFFFFFFF4A
:10963000FFFFFFFFFFFFFFFFFFFFFFFFFFFFFFFF3A
:10964000FFFFFFFFFFFFFFFFFFFFFFFFFFFFFFFF2A
:10965000FFFFFFFFFFFFFFFFFFFFFFFFFFFFFFFF1A
:10966000FFFFFFFFFFFFFFFFFFFFFFFFFFFFFFFF0A
:10967000FFFFFFFFFFFFFFFFFFFFFFFFFFFFFFFFFA
:10968000FFFFFFFFFFFFFFFFFFFFFFFFFFFFFFFFEA
:10969000FFFFFFFFFFFFFFFFFFFFFFFFFFFFFFFFDA
:1096A000FFFFFFFFFFFFFFFFFFFFFFFFFFFFFFFFCA
:1096B000FFFFFFFFFFFFFFFFFFFFFFFFFFFFFFFFBA
:1096C000FFFFFFFFFFD562BC8E979AA1A7ABAFB794
:1096D000B8C2C9CFD3DADEE5E8EEF3F6F9FCFCFE5A
:1096E000FEFCF9F5F0EAE3D9D3C6BFB7AEA29C9170
:1096F000897F7B76736868696262676C6F76808742
:109700008D989CA9B3B6AE9E965D51BBDDF5FFFF6B
:10971000FFFFFFFFFFFFFFFFFFFFFFFFFFFFFFFF59
:10972000FFFFFFFFFFFFFFFFFFFFFFFFFFFFFFFF49
:10973000FFFFFFFFFFFFFFFFFFFFFFFFFFFFFFFF39
:10974000FFFFFFFFFFFFFFFFFFFFFFFFFFFFFFFF29
:10975000FFFFFFFFFFFFFFFFFFFFFFFFFFFFFFFF19
:10976000FFFFFFFFFFFFFFFFFFFFFFFFFFFFFFFF09
:10977000FFFFFFFFFFFFFFFFFFFFFFFFFFFFFFFFF9
:10978000FFFFFFFFFFFFFFFFFFFFFFFFFFFFFFFFE9
:10979000FFFFFFFFFFFFFFFFFFFFFFFFFFFFFFFFD9
:1097A000FFFFFFFFFFFFFFFFFFFFFFFFFFFFFFFFC9
:1097B000FFFFFFFFFFFFFFFFFFFFFFFFFFFFFFFFB9
:1097C000FFFFFFFFFFFFFFFFFFFFFFFFFFFFFFFFA9
:1097D000FFFFFFFFFFFFFFFFFFFFFFFFFFFFFFFF99
:1097E000FFFFFFFFFFFFFFFFFFFFFFFFFFFFFFFF89
:1097F000FFFFFFFFFFFFFFFFFFFFFFFFFFFFFFFF79
:10980000FFFFFFFFFFFF788CBF98A2A4ABACB4B8FA
:10981000C0C6CCD0D8DBE3E6ECF0F4F7FAFBFEFEF2
:10982000FCFCF7F4EFE9E2DAD2CABEB4ABA5989536
:1098300089817B776D6E68696463646871737C7F0E
:109840008A909CA4AAABA39D7D3999D5F1FDFFFF19
:10985000FFFFFFFFFFFFFFFFFFFFFFFFFFFFFFFF18
:10986000FFFFFFFFFFFFFFFFFFFFFFFFFFFFFFFF08
:10987000FFFFFFFFFFFFFFFFFFFFFFFFFFFFFFFFF8
:10988000FFFFFFFFFFFFFFFFFFFFFFFFFFFFFFFFE8
:10989000FFFFFFFFFFFFFFFFFFFFFFFFFFFFFFFFD8
:1098A000FFFFFFFFFFFFFFFFFFFFFFFFFFFFFFFFC8
:1098B000FFFFFFFFFFFFFFFFFFFFFFFFFFFFFFFFB8
:1098C000FFFFFFFFFFFFFFFFFFFFFFFFFFFFFFFFA8
:1098D000FFFFFFFFFFFFFFFFFFFFFFFFFFFFFFFF98
:1098E000FFFFFFFFFFFFFFFFFFFFFFFFFFFFFFFF88
:1098F000FFFFFFFFFFFFFFFFFFFFFFFFFFFFFFFF78
:10990000FFFFFFFFFFFFFFFFFFFFFFFFFFFFFFFF67
:10991000FFFFFFFFFFFFFFFFFFFFFFFFFFFFFFFF57
:10992000FFFFFFFFFFFFFFFFFFFFFFFFFFFFFFFF47
:10993000FFFFFFFFFFFFFFFFFFFFFFFFFFFFFFFF37
:10994000FFFFFFFFFFFFEF5CA5C69FAAB0B5B5BB49
:10995000C4CAD0D3D8E0E3E9ECF0F5F8FBFDFEFE95
:10996000FDFBF8F3EDE9E2D7CFC9BEB7ABA29E90FD
:109970008C837D7472686962656364696A737B82D3
:10998000818A979DA39FA1923C6ED1EDFDFFFFFFC1
:10999000FFFFFFFFFFFFFFFFFFFFFFFFFFFFFFFFD7
:1099A000FFFFFFFFFFFFFFFFFFFFFFFFFFFFFFFFC7
:1099B000FFFFFFFFFFFFFFFFFFFFFFFFFFFFFFFFB7
:1099C000FFFFFFFFFFFFFFFFFFFFFFFFFFFFFFFFA7
:1099D000FFFFFFFFFFFFFFFFFFFFFFFFFFFFFFFF97
:1099E000FFFFFFFFFFFFFFFFFFFFFFFFFFFFFFFF87
:1099F000FFFFFFFFFFFFFFFFFFFFFFFFFFFFFFFF77
:109A0000FFFFFFFFFFFFFFFFFFFFFFFFFFFFFFFF66
:109A1000FFFFFFFFFFFFFFFFFFFFFFFFFFFFFFFF56
:109A2000FFFFFFFFFFFFFFFFFFFFFFFFFFFFFFFF46
:109A3000FFFFFFFFFFFFFFFFFFFFFFFFFFFFFFFF36
:109A4000FFFFFFFFFFFFFFFFFFFFFFFFFFFFFFFF26
:109A5000FFFFFFFFFFFFFFFFFFFFFFFFFFFFFFFF16
:109A6000FFFFFFFFFFFFFFFFFFFFFFFFFFFFFFFF06
:109A7000FFFFFFFFFFFFFFFFFFFFFFFFFFFFFFFFF6
:109A8000FFFFFFFFFFFFFFCB61ABD6AAB0B7BCC3A0
:109A9000C6CBD3D6DBE2E7EBEFF3F5F9FCFDFEFE38
:109AA000FBFAF7F1EEE6E1D9D2C7BDB7ABA39D94BF
:109AB0008A867B75716F6C67646463686971747A98
:109AC000808B8E9396A7934055CDE9FBFFFFFFFF58
:109AD000FFFFFFFFFFFFFFFFFFFFFFFFFFFFFFFF96
:109AE000FFFFFFFFFFFFFFFFFFFFFFFFFFFFFFFF86
:109AF000FFFFFFFFFFFFFFFFFFFFFFFFFFFFFFFF76
:109B0000FFFFFFFFFFFFFFFFFFFFFFFFFFFFFFFF65
:109B1000FFFFFFFFFFFFFFFFFFFFFFFFFFFFFFFF55
:109B2000FFFFFFFFFFFFFFFFFFFFFFFFFFFFFFFF45
:109B3000FFFFFFFFFFFFFFFFFFFFFFFFFFFFFFFF35
:109B4000FFFFFFFFFFFFFFFFFFFFFFFFFFFFFFFF25
:109B5000FFFFFFFFFFFFFFFFFFFFFFFFFFFFFFFF15
:109B6000FFFFFFFFFFFFFFFFFFFFFFFFFFFFFFFF05
:109B7000FFFFFFFFFFFFFFFFFFFFFFFFFFFFFFFFF5
:109B8000FFFFFFFFFFFFFFFFFFFFFFFFFFFFFFFFE5
:109B9000FFFFFFFFFFFFFFFFFFFFFFFFFFFFFFFFD5
:109BA000FFFFFFFFFFFFFFFFFFFFFFFFFFFFFFFFC5
:109BB000FFFFFFFFFFFFFFFFFFFFFFFFFFFFFFFFB5
:109BC000FFFFFFFFFFFFFFFFBE649FE8BEB8C0C3FB
:109BD000CBCED5DADFE3E9EDF1F5F8FAFCFCFEFED9
:109BE000FCFAF6F0EBE7DFD9CFC9BDB7AEA49D9282
:109BF0008E84807671706F65655F6365666B757660
:109C000080828B8AB6823F4FC7E7FAFFFFFFFFFFD4
:109C1000FFFFFFFFFFFFFFFFFFFFFFFFFFFFFFFF54
:109C2000FFFFFFFFFFFFFFFFFFFFFFFFFFFFFFFF44
:109C3000FFFFFFFFFFFFFFFFFFFFFFFFFFFFFFFF34
:109C4000FFFFFFFFFFFFFFFFFFFFFFFFFFFFFFFF24
:109C5000FFFFFFFFFFFFFFFFFFFFFFFFFFFFFFFF14
:109C6000FFFFFFFFFFFFFFFFFFFFFFFFFFFFFFFF04
:109C7000FFFFFFFFFFFFFFFFFFFFFFFFFFFFFFFFF4
:109C8000FFFFFFFFFFFFFFFFFFFFFFFFFFFFFFFFE4
:109C9000FFFFFFFFFFFFFFFFFFFFFFFFFFFFFFFFD4
:109CA000FFFFFFFFFFFFFFFFFFFFFFFFFFFFFFFFC4
:109CB000FFFFFFFFFFFFFFFFFFFFFFFFFFFFFFFFB4
:109CC000FFFFFFFFFFFFFFFFFFFFFFFFFFFFFFFFA4
:109CD000FFFFFFFFFFFFFFFFFFFFFFFFFFFFFFFF94
:109CE000FFFFFFFFFFFFFFFFFFFFFFFFFFFFFFFF84
:109CF000FFFFFFFFFFFFFFFFFFFFFFFFFFFFFFFF74
:109D0000FFFFFFFFFFFFFFFFFFC4628AE1E1C1C960
:109D1000CED6D7DDE2E7E9EDF3F6F9FBFDFEFEFC7A
:109D2000FCF9F6F1ECE6E0D6D1C8C3B6AEA69E9437
:109D30008B87817C6F70686366636966646C6F761D
:109D4000757DA0BB633E57C9E9FAFFFFFFFFFFFF28
:109D5000FFFFFFFFFFFFFFFFFFFFFFFFFFFFFFFF13
:109D6000FFFFFFFFFFFFFFFFFFFFFFFFFFFFFFFF03
:109D7000FFFFFFFFFFFFFFFFFFFFFFFFFFFFFFFFF3
:109D8000FFFFFFFFFFFFFFFFFFFFFFFFFFFFFFFFE3
:109D9000FFFFFFFFFFFFFFFFFFFFFFFFFFFFFFFFD3
:109DA000FFFFFFFFFFFFFFFFFFFFFFFFFFFFFFFFC3
:109DB000FFFFFFFFFFFFFFFFFFFFFFFFFFFFFFFFB3
:109DC000FFFFFFFFFFFFFFFFFFFFFFFFFFFFFFFFA3
:109DD000FFFFFFFFFFFFFFFFFFFFFFFFFFFFFFFF93
:109DE000FFFFFFFFFFFFFFFFFFFFFFFFFFFFFFFF83
:109DF000FFFFFFFFFFFFFFFFFFFFFFFFFFFFFFFF73
:109E0000FFFFFFFFFFFFFFFFFFFFFFFFFFFFFFFF62
:109E1000FFFFFFFFFFFFFFFFFFFFFFFFFFFFFFFF52
:109E2000FFFFFFFFFFFFFFFFFFFFFFFFFFFFFFFF42
:109E3000FFFFFFFFFFFFFFFFFFFFFFFFFFFFFFFF32
:109E4000FFFFFFFFFFFFFFFFFFFFE16C7BB8F5E1C6
:109E5000D1D5DADEE4E7EDEFF4F7F8FCFDFEFEFD28
:109E6000FBF8F3F1EBE5DDD7CEC8BEB8ACA79D9803
:109E70008C877F7772736A656569655C6B6A6967F1
:109E80008DC1914B3C6FD1EBFCFFFFFFFFFFFFFF4C
:109E9000FFFFFFFFFFFFFFFFFFFFFFFFFFFFFFFFD2
:109EA000FFFFFFFFFFFFFFFFFFFFFFFFFFFFFFFFC2
:109EB000FFFFFFFFFFFFFFFFFFFFFFFFFFFFFFFFB2
:109EC000FFFFFFFFFFFFFFFFFFFFFFFFFFFFFFFFA2
:109ED000FFFFFFFFFFFFFFFFFFFFFFFFFFFFFFFF92
:109EE000FFFFFFFFFFFFFFFFFFFFFFFFFFFFFFFF82
:109EF000FFFFFFFFFFFFFFFFFFFFFFFFFFFFFFFF72
:109F0000FFFFFFFFFFFFFFFFFFFFFFFFFFFFFFFF61
:109F1000FFFFFFFFFFFFFFFFFFFFFFFFFFFFFFFF51
:109F2000FFFFFFFFFFFFFFFFFFFFFFFFFFFFFFFF41
:109F3000FFFFFFFFFFFFFFFFFFFFFFFFFFFFFFFF31
:109F4000FFFFFFFFFFFFFFFFFFFFFFFFFFFFFFFF21
:109F5000FFFFFFFFFFFFFFFFFFFFFFFFFFFFFFFF11
:109F6000FFFFFFFFFFFFFFFFFFFFFFFFFFFFFFFF01
:109F7000FFFFFFFFFFFFFFFFFFFFFFFFFFFFFFFFF1
:109F8000FFFFFFFFFFFFFFFFFFFFFFFA8A738FCB8B
:109F9000F8EEE1E1E6E9EDF2F4F8FAFCFCFEFEFB96
:109FA000F9F8F4F0E8E5DDD8D1C5C1B6B0AA9E96BF
:109FB0009086857E7874726B65646963695E96CA03
:109FC000A45A43459AD9EFFCFFFFFFFFFFFFFFFFB5
:109FD000FFFFFFFFFFFFFFFFFFFFFFFFFFFFFFFF91
:109FE000FFFFFFFFFFFFFFFFFFFFFFFFFFFFFFFF81
:109FF000FFFFFFFFFFFFFFFFFFFFFFFFFFFFFFFF71
:10A00000FFFFFFFFFFFFFFFFFFFFFFFFFFFFFFFF60
:10A01000FFFFFFFFFFFFFFFFFFFFFFFFFFFFFFFF50
:10A02000FFFFFFFFFFFFFFFFFFFFFFFFFFFFFFFF40
:10A03000FFFFFFFFFFFFFFFFFFFFFFFFFFFFFFFF30
:10A04000FFFFFFFFFFFFFFFFFFFFFFFFFFFFFFFF20
:10A05000FFFFFFFFFFFFFFFFFFFFFFFFFFFFFFFF10
:10A06000FFFFFFFFFFFFFFFFFFFFFFFFFFFFFFFF00
:10A07000FFFFFFFFFFFFFFFFFFFFFFFFFFFFFFFFF0
:10A08000FFFFFFFFFFFFFFFFFFFFFFFFFFFFFFFFE0
:10A09000FFFFFFFFFFFFFFFFFFFFFFFFFFFFFFFFD0
:10A0A000FFFFFFFFFFFFFFFFFFFFFFFFFFFFFFFFC0
:10A0B000FFFFFFFFFFFFFFFFFFFFFFFFFFFFFFFFB0
:10A0C000FFFFFFFFFFFFFFFFFFFFFFFFFFD17A7CD6
:10A0D00097C8F3FCF3EDEFF3F7F9FBFDFEFEFEFC92
:10A0E000FAF7F2EFE9E2DED5CDC8BDB5B0A79E9A8A
:10A0F000938D847A7A716C6B62606385BCD39F5D4B
:10A10000474072C7E3F5FDFFFFFFFFFFFFFFFFFFC3
:10A11000FFFFFFFFFFFFFFFFFFFFFFFFFFFFFFFF4F
:10A12000FFFFFFFFFFFFFFFFFFFFFFFFFFFFFFFF3F
:10A13000FFFFFFFFFFFFFFFFFFFFFFFFFFFFFFFF2F
:10A14000FFFFFFFFFFFFFFFFFFFFFFFFFFFFFFFF1F
:10A15000FFFFFFFFFFFFFFFFFFFFFFFFFFFFFFFF0F
:10A16000FFFFFFFFFFFFFFFFFFFFFFFFFFFFFFFFFF
:10A17000FFFFFFFFFFFFFFFFFFFFFFFFFFFFFFFFEF
:10A18000FFFFFFFFFFFFFFFFFFFFFFFFFFFFFFFFDF
:10A19000FFFFFFFFFFFFFFFFFFFFFFFFFFFFFFFFCF
:10A1A000FFFFFFFFFFFFFFFFFFFFFFFFFFFFFFFFBF
:10A1B000FFFFFFFFFFFFFFFFFFFFFFFFFFFFFFFFAF
:10A1C000FFFFFFFFFFFFFFFFFFFFFFFFFFFFFFFF9F
:10A1D000FFFFFFFFFFFFFFFFFFFFFFFFFFFFFFFF8F
:10A1E000FFFFFFFFFFFFFFFFFFFFFFFFFFFFFFFF7F
:10A1F000FFFFFFFFFFFFFFFFFFFFFFFFFFFFFFFF6F
:10A20000FFFFFFFFFFFFFFFFFFFFFFFFFFFFFFC598
:10A210007B7D93B5DBF6FFFBF9FAFAFDFEFEFCFC55
:10A22000FAF5F3EEE9E1DBD6D0C6BFB8AFA99D954C
:10A23000918C7F7B736D7284A2D4E2BE82544A42B9
:10A2400069B8DDEFFAFFFFFFFFFFFFFFFFFFFFFF32
:10A25000FFFFFFFFFFFFFFFFFFFFFFFFFFFFFFFF0E
:10A26000FFFFFFFFFFFFFFFFFFFFFFFFFFFFFFFFFE
:10A27000FFFFFFFFFFFFFFFFFFFFFFFFFFFFFFFFEE
:10A28000FFFFFFFFFFFFFFFFFFFFFFFFFFFFFFFFDE
:10A29000FFFFFFFFFFFFFFFFFFFFFFFFFFFFFFFFCE
:10A2A000FFFFFFFFFFFFFFFFFFFFFFFFFFFFFFFFBE
:10A2B000FFFFFFFFFFFFFFFFFFFFFFFFFFFFFFFFAE
:10A2C000FFFFFFFFFFFFFFFFFFFFFFFFFFFFFFFF9E
:10A2D000FFFFFFFFFFFFFFFFFFFFFFFFFFFFFFFF8E
:10A2E000FFFFFFFFFFFFFFFFFFFFFFFFFFFFFFFF7E
:10A2F000FFFFFFFFFFFFFFFFFFFFFFFFFFFFFFFF6E
:10A30000FFFFFFFFFFFFFFFFFFFFFFFFFFFFFFFF5D
:10A31000FFFFFFFFFFFFFFFFFFFFFFFFFFFFFFFF4D
:10A32000FFFFFFFFFFFFFFFFFFFFFFFFFFFFFFFF3D
:10A33000FFFFFFFFFFFFFFFFFFFFFFFFFFFFFFFF2D
:10A34000FFFFFFFFFFFFFFFFFFFFFFFFFFFFFFFF1D
:10A35000FFD888788B9BB4D2E9FCFFFFFFFEFEFCA0
:10A36000F8F5F2ECE7E1DCD2CCC5BDB3ADA29D942B
:10A37000939DAABAD3E8F8E0B7855D52494D7AC0FB
:10A38000DDEDF8FDFFFFFFFFFFFFFFFFFFFFFFFF1A
:10A39000FFFFFFFFFFFFFFFFFFFFFFFFFFFFFFFFCD
:10A3A000FFFFFFFFFFFFFFFFFFFFFFFFFFFFFFFFBD
:10A3B000FFFFFFFFFFFFFFFFFFFFFFFFFFFFFFFFAD
:10A3C000FFFFFFFFFFFFFFFFFFFFFFFFFFFFFFFF9D
:10A3D000FFFFFFFFFFFFFFFFFFFFFFFFFFFFFFFF8D
:10A3E000FFFFFFFFFFFFFFFFFFFFFFFFFFFFFFFF7D
:10A3F000FFFFFFFFFFFFFFFFFFFFFFFFFFFFFFFF6D
:10A40000FFFFFFFFFFFFFFFFFFFFFFFFFFFFFFFF5C
:10A41000FFFFFFFFFFFFFFFFFFFFFFFFFFFFFFFF4C
:10A42000FFFFFFFFFFFFFFFFFFFFFFFFFFFFFFFF3C
:10A43000FFFFFFFFFFFFFFFFFFFFFFFFFFFFFFFF2C
:10A44000FFFFFFFFFFFFFFFFFFFFFFFFFFFFFFFF1C
:10A45000FFFFFFFFFFFFFFFFFFFFFFFFFFFFFFFF0C
:10A46000FFFFFFFFFFFFFFFFFFFFFFFFFFFFFFFFFC
:10A47000FFFFFFFFFFFFFFFFFFFFFFFFFFFFFFFFEC
:10A48000FFFFFFFFFFFFFFFFFFFFFFFFFFFFFFFFDC
:10A49000FFFFFFEEA0827987929FB2C8D9E9F4FC52
:10A4A000FFFFFFFDFAF7F3F2EFECEBECEFF2F9FF51
:10A4B000FFF4E0C9AD8A6B5F564E4C6BA0D7E5F157
:10A4C000FAFDFFFFFFFFFFFFFFFFFFFFFFFFFFFFA3
:10A4D000FFFFFFFFFFFFFFFFFFFFFFFFFFFFFFFF8C
:10A4E000FFFFFFFFFFFFFFFFFFFFFFFFFFFFFFFF7C
:10A4F000FFFFFFFFFFFFFFFFFFFFFFFFFFFFFFFF6C
:10A50000FFFFFFFFFFFFFFFFFFFFFFFFFFFFFFFF5B
:10A51000FFFFFFFFFFFFFFFFFFFFFFFFFFFFFFFF4B
:10A52000FFFFFFFFFFFFFFFFFFFFFFFFFFFFFFFF3B
:10A53000FFFFFFFFFFFFFFFFFFFFFFFFFFFFFFFF2B
:10A54000FFFFFFFFFFFFFFFFFFFFFFFFFFFFFFFF1B
:10A55000FFFFFFFFFFFFFFFFFFFFFFFFFFFFFFFF0B
:10A56000FFFFFFFFFFFFFFFFFFFFFFFFFFFFFFFFFB
:10A57000FFFFFFFFFFFFFFFFFFFFFFFFFFFFFFFFEB
:10A58000FFFFFFFFFFFFFFFFFFFFFFFFFFFFFFFFDB
:10A59000FFFFFFFFFFFFFFFFFFFFFFFFFFFFFFFFCB
:10A5A000FFFFFFFFFFFFFFFFFFFFFFFFFFFFFFFFBB
:10A5B000FFFFFFFFFFFFFFFFFFFFFFFFFFFFFFFFAB
:10A5C000FFFFFFFFFFFFFFFFFFFFFFFFFFFFFFFF9B
:10A5D000FFFFFFFFFFFFE6A391777A818890979EA8
:10A5E000A5B0B9BFC6C9CBCACBC7C3BDB4AA9A89E7
:10A5F0007B736B635B544F637BA9D9E3EFF8FCFF7C
:10A60000FFFFFFFFFFFFFFFFFFFFFFFFFFFFFFFF5A
:10A61000FFFFFFFFFFFFFFFFFFFFFFFFFFFFFFFF4A
:10A62000FFFFFFFFFFFFFFFFFFFFFFFFFFFFFFFF3A
:10A63000FFFFFFFFFFFFFFFFFFFFFFFFFFFFFFFF2A
:10A64000FFFFFFFFFFFFFFFFFFFFFFFFFFFFFFFF1A
:10A65000FFFFFFFFFFFFFFFFFFFFFFFFFFFFFFFF0A
:10A66000FFFFFFFFFFFFFFFFFFFFFFFFFFFFFFFFFA
:10A67000FFFFFFFFFFFFFFFFFFFFFFFFFFFFFFFFEA
:10A68000FFFFFFFFFFFFFFFFFFFFFFFFFFFFFFFFDA
:10A69000FFFFFFFFFFFFFFFFFFFFFFFFFFFFFFFFCA
:10A6A000FFFFFFFFFFFFFFFFFFFFFFFFFFFFFFFFBA
:10A6B000FFFFFFFFFFFFFFFFFFFFFFFFFFFFFFFFAA
:10A6C000FFFFFFFFFFFFFFFFFFFFFFFFFFFFFFFF9A
:10A6D000FFFFFFFFFFFFFFFFFFFFFFFFFFFFFFFF8A
:10A6E000FFFFFFFFFFFFFFFFFFFFFFFFFFFFFFFF7A
:10A6F000FFFFFFFFFFFFFFFFFFFFFFFFFFFFFFFF6A
:10A70000FFFFFFFFFFFFFFFFFFFFFFFFFFFFFFFF59
:10A71000FFFFFFFFFFFFFFFFFDFBDAB191877A72BA
:10A720007375787A7B7A7A797875726F6B68625F05
:10A73000585E69768FB2D7E3EBF3F8FCFFFFFFFFBB
:10A74000FFFFFFFFFFFFFFFFFFFFFFFFFFFFFFFF19
:10A75000FFFFFFFFFFFFFFFFFFFFFFFFFFFFFFFF09
:10A76000FFFFFFFFFFFFFFFFFFFFFFFFFFFFFFFFF9
:10A77000FFFFFFFFFFFFFFFFFFFFFFFFFFFFFFFFE9
:10A78000FFFFFFFFFFFFFFFFFFFFFFFFFFFFFFFFD9
:10A79000FFFFFFFFFFFFFFFFFFFFFFFFFFFFFFFFC9
:10A7A000FFFFFFFFFFFFFFFFFFFFFFFFFFFFFFFFB9
:10A7B000FFFFFFFFFFFFFFFFFFFFFFFFFFFFFFFFA9
:10A7C000FFFFFFFFFFFFFFFFFFFFFFFFFFFFFFFF99
:10A7D000FFFFFFFFFFFFFFFFFFFFFFFFFFFFFFFF89
:10A7E000FFFFFFFFFFFFFFFFFFFFFFFFFFFFFFFF79
:10A7F000FFFFFFFFFFFFFFFFFFFFFFFFFFFFFFFF69
:10A80000FFFFFFFFFFFFFFFFFFFFFFFFFFFFFFFF58
:10A81000FFFFFFFFFFFFFFFFFFFFFFFFFFFFFFFF48
:10A82000FFFFFFFFFFFFFFFFFFFFFFFFFFFFFFFF38
:10A83000FFFFFFFFFFFFFFFFFFFFFFFFFFFFFFFF28
:10A84000FFFFFFFFFFFFFFFFFFFFFFFFFFFFFFFF18
:10A85000FFFFFFFFFFFFFFFFFFFFFFFEFCFAF6EF2A
:10A86000DAC4B1A3988E87848286878E96A3B1C3FB
:10A87000DBE3E7EDF1F6FAFCFFFFFFFFFFFFFFFF71
:10A88000FFFFFFFFFFFFFFFFFFFFFFFFFFFFFFFFD8
:10A89000FFFFFFFFFFFFFFFFFFFFFFFFFFFFFFFFC8
:10A8A000FFFFFFFFFFFFFFFFFFFFFFFFFFFFFFFFB8
:10A8B000FFFFFFFFFFFFFFFFFFFFFFFFFFFFFFFFA8
:10A8C000FFFFFFFFFFFFFFFFFFFFFFFFFFFFFFFF98
:10A8D000FFFFFFFFFFFFFFFFFFFFFFFFFFFFFFFF88
:10A8E000FFFFFFFFFFFFFFFFFFFFFFFFFFFFFFFF78
:10A8F000FFFFFFFFFFFFFFFFFFFFFFFFFFFFFFFF68
:10A90000FFFFFFFFFFFFFFFFFFFFFFFFFFFFFFFF57
:10A91000FFFFFFFFFFFFFFFFFFFFFFFFFFFFFFFF47
:10A92000FFFFFFFFFFFFFFFFFFFFFFFFFFFFFFFF37
:10A93000FFFFFFFFFFFFFFFFFFFFFFFFFFFFFFFF27
:10A94000FFFFFFFFFFFFFFFFFFFFFFFFFFFFFFFF17
:10A95000FFFFFFFFFFFFFFFFFFFFFFFFFFFFFFFF07
:10A96000FFFFFFFFFFFFFFFFFFFFFFFFFFFFFFFFF7
:10A97000FFFFFFFFFFFFFFFFFFFFFFFFFFFFFFFFE7
:10A98000FFFFFFFFFFFFFFFFFFFFFFFFFFFFFFFFD7
:10A99000FFFFFFFFFFFFFFFFFFFFFFFFFFFFFFFFC7
:10A9A000FEFEFCFCFCFAF9F9F7F7F9F8F8F8FAFA08
:10A9B000FCFCFEFFFFFFFFFFFFFFFFFFFFFFFFFFAE
:10A9C000FFFFFFFFFFFFFFFFFFFFFFFFFFFFFFFF97
:10A9D000FFFFFFFFFFFFFFFFFFFFFFFFFFFFFFFF87
:10A9E000FFFFFFFFFFFFFFFFFFFFFFFFFFFFFFFF77
:10A9F000FFFFFFFFFFFFFFFFFFFFFFFFFFFFFFFF67
:10CEC000FFFFFFFFFFFFFFFFFFFFFFFFFE87545441
:10CED000545456EDFD6954545454545454545455B8
:10CEE000D4BF5454BAFFFFFFFFFFDA54549DFFFF35
:10CEF000FE8754545455D4FFFFFFFE8754545456B4
:10CF0000EDFFFFFFBF545454545454546BF6FFFFCD
:10CF1000FFFFEC5F56EDFFFFFFFFFFFFFFFFFFBFCF
:10CF2000545454545454BAFFFFFFFFEC5F5454540C
:10CF300055D4FFFFFE875454545456EDFFFFFFFFB6
:10CF4000FD69545454549DFFFFFFFFFD6954545430
:10CF500056EDFFFFFD6956EDFFFFFFFFFFFE875512
:10CF6000D4BF5454545454545454BAFFBF5454541A
:10CF7000545454BAFFFFFD6955D4FFFFFFFFFFEC87
:10CF80005F56EDFFFFFFFFFFFFFFFFFFFFFFFFFF0C
:10CF9000FFFFFFFFFFFFFFFFFFFFFFFFFFFFFFFFA1
:10CFA000FFFFFFFFFFFFFFFFFFFFFFFFFFFFFFFF91
:10CFB000FFFFFFFFFFFFFFFFFFFFFFFFFFFFFFFF81
:10CFC000FFFFFFFFFFFFFFFFFFFFFFFFFFFFFFFF71
:10CFD000FFFFFFFFFFFFFFFFFFFFFFFFFFFFFFFF61
:10CFE000FFFFFFFFFFFFFFFFFFFFFFFFFFFFFFFF51
:10CFF000FFFFFFFFFFFFFFFFFFFFFFFFFFFFFFFF41
:10D00000FFFFFFFFFFFFFFFFFFFFFFEC5F545454E4
:10D0100054545456EB695454545454545454545521
:10D02000D4BF54547FFFFFFFFFFFA354549DFFFF65
:10D03000A3545454545454BAFFFFA3545454545456
:10D0400056EDFFFFBF545454545454546BF6FFFF35
:10D05000FFEC5F5456EDFFFFFFFFFFFFFFFFFFBF39
:10D060005454545454545456EDFFFFEC5F545454EC
:10D0700055D4FFEC5F54545454545456EDFFFFBF45
:10D08000545454545454547FFFFFBF545454545474
:10D0900054549DFFFFA354BAFFFFFFFFFFEC5F6BEB
:10D0A000F6BF5454545454545454BAFFBF545454B7
:10D0B000545454549DFFFFEC5F6BF6FFFFFFFFA33A
:10D0C00055D4FFFFFFFFFFFFFFFFFFFFFFFFFFFF45
:10D0D000FFFFFFFFFFFFFFFFFFFFFFFFFFFFFFFF60
:10D0E000FFFFFFFFFFFFFFFFFFFFFFFFFFFFFFFF50
:10D0F000FFFFFFFFFFFFFFFFFFFFFFFFFFFFFFFF40
:10D10000FFFFFFFFFFFFFFFFFFFFFFFFFFFFFFFF2F
:10D11000FFFFFFFFFFFFFFFFFFFFFFFFFFFFFFFF1F
:10D12000FFFFFFFFFFFFFFFFFFFFFFFFFFFFFFFF0F
:10D13000FFFFFFFFFFFFFFFFFFFFFFFFFFFFFFFFFF
:10D14000FFFFFFFFFFFFFFFFFFFFFE87547FFFFF93
:10D15000FFFFDA56EDFFFFFFFFDA549DFFFFFFFFF1
:10D16000FFBF547455D4FFFFFFEC5F92549DFFFF47
:10D17000A3BAFFFFFE87547FFFFFA3BAFFFFFD693D
:10D18000549DFFFFBF54BAFFFFFFFFFFFFFFFFFFEC
:10D19000FD696A7D56EDFFFFFFFFFFFFFFFFFFBF49
:10D1A00054BAFFFFFFDA545456EDFFFFFFDA549DE7
:10D1B000FFFFFE87547FFFFFFFFFDA56EDFFDA54D3
:10D1C000547FFFFFFFFFBF7FFFDA54549DFFFFFF37
:10D1D000BF5454BAFFDA547FFFFFFFFFFFBF549DD7
:10D1E000FFBF54BAFFFFFFFFFFFFFFFFBF54BAFFAF
:10D1F000FFFFDA5455D4FFFFA354BAFFFFFFDA5400
:10D200007FFFFFFFFFFFFFFFFFFFFFFFFFFFFFFFAE
:10D21000FFFFFFFFFFFFFFFFFFFFFFFFFFFFFFFF1E
:10D22000FFFFFFFFFFFFFFFFFFFFFFFFFFFFFFFF0E
:10D23000FFFFFFFFFFFFFFFFFFFFFFFFFFFFFFFFFE
:10D24000FFFFFFFFFFFFFFFFFFFFFFFFFFFFFFFFEE
:10D25000FFFFFFFFFFFFFFFFFFFFFFFFFFFFFFFFDE
:10D26000FFFFFFFFFFFFFFFFFFFFFFFFFFFFFFFFCE
:10D27000FFFFFFFFFFFFFFFFFFFFFFFFFFFFFFFFBE
:10D28000FFFFFFFFFFFFFFFFFFFFEC5F56EDFFFF1C
:10D29000FFFFFFFFFFFFFFFFFFDA549DFFFFFFFFD0
:10D2A000FFBF54B8697FFFFFFFA356C9549DFFFF1E
:10D2B000FFFFFFFFFFEC5F6BF6FFFFFFFFFFFFDAF3
:10D2C000547FFFFFBF54BAFFFFFFFFFFFFFFFFFECA
:10D2D0008756EC8756EDFFFFFFFFFFFFFFFFFFBF05
:10D2E00054BAFFFFFFFFFE87547FFFFFFFDA549D14
:10D2F000FFFFEC5F56EDFFFFFFFFFFFFFFFE8754D0
:10D300009DFFFFFFFFFFFFFFFE87549DFFFFFFFF15
:10D31000FFBF546BF6FD696BF6FFFFFFFE8756ED0E
:10D32000FFBF54BAFFFFFFFFFFFFFFFFBF54BAFF6D
:10D33000FFFFFE8755D4FFFFFD6956EDFFFE8756C0
:10D34000EDFFFFFFFFFFFFFFFFFFFFFFFFFFFFFFFF
:10D35000FFFFFFFFFFFFFFFFFFFFFFFFFFFFFFFFDD
:10D36000FFFFFFFFFFFFFFFFFFFFFFFFFFFFFFFFCD
:10D37000FFFFFFFFFFFFFFFFFFFFFFFFFFFFFFFFBD
:10D38000FFFFFFFFFFFFFFFFFFFFFFFFFFFFFFFFAD
:10D39000FFFFFFFFFFFFFFFFFFFFFFFFFFFFFFFF9D
:10D3A000FFFFFFFFFFFFFFFFFFFFFFFFFFFFFFFF8D
:10D3B000FFFFFFFFFFFFFFFFFFFFFFFFFFFFFFFF7D
:10D3C000FFFFFFFFFFFFFFFFFFFFFD6956EDFFFFC0
:10D3D000FFFFFFFFFFFFFFFFFFDA549DFFFFFFFF8F
:10D3E000FFBF54BAA355D4FFFD699DDA549DFFFFDA
:10D3F000FFFFFFFFFFDA549DFFFFFFFFFFFFFFDA94
:10D40000547FFFFFBF54BAFFFFFFFFFFFFFFFE8700
:10D4100056EDFE8756EDFFFFFFFFFFFFFFFFFFBF4B
:10D4200054BAFFFFFFFFFFEC5F56EDFFFFDA549D9C
:10D43000FFFFFD6956EDFFFFFFFFFFFFFFEC5F56AB
:10D44000EDFFFFFFFFFFFFFFEC5F56EDFFFFFFFF6C
:10D45000FFFD6955D4FFA355D4FFFFFFEC5F7FFFAD
:10D46000FFBF54BAFFFFFFFFFFFFFFFFBF54BAFF2C
:10D47000FFFFFE8755D4FFFFFFBF549DFFBF549DA4
:10D48000FFFFFFFFFFFFFFFFFFFFFFFFFFFFFFFFAC
:10D49000FFFFFFFFFFFFFFFFFFFFFFFFFFFFFFFF9C
:10D4A000FFFFFFFFFFFFFFFFFFFFFFFFFFFFFFFF8C
:10D4B000FFFFFFFFFFFFFFFFFFFFFFFFFFFFFFFF7C
:10D4C000FFFFFFFFFFFFFFFFFFFFFFFFFFFFFFFF6C
:10D4D000FFFFFFFFFFFFFFFFFFFFFFFFFFFFFFFF5C
:10D4E000FFFFFFFFFFFFFFFFFFFFFFFFFFFFFFFF4C
:10D4F000FFFFFFFFFFFFFFFFFFFFFFFFFFFFFFFF3C
:10D50000FFFFFFFFFFFFFFFFFFFFFE875456EDFF0A
:10D51000FFFFFFFFFFFFFFFFFFDA549DFFFFFFFF4D
:10D52000FFBF54BAEC5F9DFFBF56EDDA549DFFFF7D
:10D53000FFFFFFFFFD6956EDFFFFFFFFFFFFFFA3AA
:10D5400054BAFFFFBF54BAFFFFFFFFFFFFFFA35511
:10D55000D4FFFE8756EDFFFFFFFFFFFFFFFFFFBF7A
:10D5600054BAFFFFFFFFFFFE8755D4FFFFDA549D3B
:10D57000FFFFFE875456EDFFFFFFFFFFFFDA547FEA
:10D58000FFFFFFFFFFFFFFFFDA547FFFFFFFFFFFFB
:10D59000FFFFA354BAFFDA549DFFFFFFDA54BAFF2E
:10D5A000FFBF5454545454545456EDFFBF54BAFF63
:10D5B000FFFFA3546BF6FFFFFFFE8755D2696BF6A2
:10D5C000FFFFFFFFFFFFFFFFFFFFFFFFFFFFFFFF6B
:10D5D000FFFFFFFFFFFFFFFFFFFFFFFFFFFFFFFF5B
:10D5E000FFFFFFFFFFFFFFFFFFFFFFFFFFFFFFFF4B
:10D5F000FFFFFFFFFFFFFFFFFFFFFFFFFFFFFFFF3B
:10D60000FFFFFFFFFFFFFFFFFFFFFFFFFFFFFFFF2A
:10D61000FFFFFFFFFFFFFFFFFFFFFFFFFFFFFFFF1A
:10D62000FFFFFFFFFFFFFFFFFFFFFFFFFFFFFFFF0A
:10D63000FFFFFFFFFFFFFFFFFFFFFFFFFFFFFFFFFA
:10D64000FFFFFFFFFFFFFFFFFFFFFFFD6954545483
:10D65000547FFFFFFFFFFFFFFFDA549DFFFFFFFF37
:10D66000FFBF54BAFFA356EB697FFFDA549DFFFF5B
:10D67000FFFFDA5454BAFFFFFFFFFFFFFFFFEC5F2D
:10D680006BF6FFFFBF545454545454549DBF54BAC6
:10D69000FFFFFE8756EDFFFFFFFFFFFFFFFFFFBF0E
:10D6A00054BAFFFFFFFFFFFFA354BAFFFFDA549DF8
:10D6B000FFFFFFFD69545454547FFFFFFFBF549D8B
:10D6C000FFFFFFFFFFFFFFFFDA547FFFFFFFFFFFBA
:10D6D000FFFFA354BAFFFD696BF6FFFFA356EDFFF2
:10D6E000FFBF5454545454545456EDFFBF54545433
:10D6F00054545456EDFFFFFFFFFFDA545455D4FF46
:10D70000FFFFFFFFFFFFFFFFFFFFFFFFFFFFFFFF29
:10D71000FFFFFFFFFFFFFFFFFFFFFFFFFFFFFFFF19
:10D72000FFFFFFFFFFFFFFFFFFFFFFFFFFFFFFFF09
:10D73000FFFFFFFFFFFFFFFFFFFFFFFFFFFFFFFFF9
:10D74000FFFFFFFFFFFFFFFFFFFFFFFFFFFFFFFFE9
:10D75000FFFFFFFFFFFFFFFFFFFFFFFFFFFFFFFFD9
:10D76000FFFFFFFFFFFFFFFFFFFFFFFFFFFFFFFFC9
:10D77000FFFFFFFFFFFFFFFFFFFFFFFFFFFFFFFFB9
:10D78000FFFFFFFFFFFFFFFFFFFFFFFFFFFE8754CD
:10D790005454549DFFFFFFFFFFDA549DFFFFFFFF2E
:10D7A000FFBF54BAFFEC5F7455D4FFDA549DFFFFFE
:10D7B000FFFFDA54545455D4FFFFFFFFFFFE875597
:10D7C000D4FFFFFFBF545454545454549DA3545495
:10D7D0005454545454549DEC5F54545456EDFFBF6C
:10D7E00054BAFFFFFFFFFFFFA354BAFFFFDA549DB7
:10D7F000FFFFFFFFFFFE87545454549DFFBF549D0D
:10D80000FFFFFFFFFFFFFFFFDA547FFFFFFFFFFF78
:10D81000FFFFA354BAFFFFA355D4FFFD697FFFFFAD
:10D82000FFBF54BAFFFFFFFFFFFFFFFFBF54545479
:10D830005454BAFFFFFFFFFFFFFFFFA3547FFFFF1A
:10D84000FFFFFFFFFFFFFFFFFFFFFFFFFFFFFFFFE8
:10D85000FFFFFFFFFFFFFFFFFFFFFFFFFFFFFFFFD8
:10D86000FFFFFFFFFFFFFFFFFFFFFFFFFFFFFFFFC8
:10D87000FFFFFFFFFFFFFFFFFFFFFFFFFFFFFFFFB8
:10D88000FFFFFFFFFFFFFFFFFFFFFFFFFFFFFFFFA8
:10D89000FFFFFFFFFFFFFFFFFFFFFFFFFFFFFFFF98
:10D8A000FFFFFFFFFFFFFFFFFFFFFFFFFFFFFFFF88
:10D8B000FFFFFFFFFFFFFFFFFFFFFFFFFFFFFFFF78
:10D8C000FFFFFFFFFFFFFFFFFFFFFFFFFFFFFFFF68
:10D8D000FFDA5455D4FFFFFFFFDA549DFFFFFFFF2F
:10D8E000FFBF54BAFFFE87547FFFFFDA549DFFFF4E
:10D8F000FFFFFFFFFFBF546BF6FFFFFFFE8754BA29
:10D90000FFFFFFFFBF54BAFFFFFFFFFFFFA3545409
:10D910005454545454549DEC5F54545456EDFFBF2A
:10D9200054BAFFFFFFFFFFFE8755D4FFFFDA549D77
:10D93000FFFFFFFFFFFFFFFFFFDA5455D4DA547FEC
:10D94000FFFFFFFFFFFFFFFFDA547FFFFFFFFFFF37
:10D95000FFFFA354BAFFFFDA549DFFDA54BAFFFF6A
:10D96000FFBF54BAFFFFFFFFFFFFFFFFBF54BAFF27
:10D97000EC5F55D4FFFFFFFFFFFFFFBF549DFFFF8C
:10D98000FFFFFFFFFFFFFFFFFFFFFFFFFFFFFFFFA7
:10D99000FFFFFFFFFFFFFFFFFFFFFFFFFFFFFFFF97
:10D9A000FFFFFFFFFFFFFFFFFFFFFFFFFFFFFFFF87
:10D9B000FFFFFFFFFFFFFFFFFFFFFFFFFFFFFFFF77
:10D9C000FFFFFFFFFFFFFFFFFFFFFFFFFFFFFFFF67
:10D9D000FFFFFFFFFFFFFFFFFFFFFFFFFFFFFFFF57
:10D9E000FFFFFFFFFFFFFFFFFFFFFFFFFFFFFFFF47
:10D9F000FFFFFFFFFFFFFFFFFFFFFFFFFFFFFFFF37
:10DA0000FFFFFFFFFFFFFFFFFFFFFFFFFFFFFFFF26
:10DA1000FFFFBF549DFFFFFFFFDA549DFFFFFFFF95
:10DA2000FFBF54BAFFFFDA55D4FFFFDA549DFFFF62
:10DA3000FFFFFFFFFFFD6956EDFFFFFFA354BAFF95
:10DA4000FFFFFFFFBF54BAFFFFFFFFFFFFFFFFFF16
:10DA5000FFFFFE8756EDFFFFFFFFFFFFFFFFFFBF4A
:10DA600054BAFFFFFFFFFFEC5F56EDFFFFDA549D56
:10DA7000FFFFFFFFFFFFFFFFFFFFBF549DEC5F565F
:10DA8000EDFFFFFFFFFFFFFFEC5F56EDFFFFFFFF26
:10DA9000FFFD6955D4FFFFFD696BF6A356EDFFFF4F
:10DAA000FFBF54BAFFFFFFFFFFFFFFFFBF54BAFFE6
:10DAB000FFDA546BF6FFFFFFFFFFFFBF549DFFFF30
:10DAC000FFFFFFFFFFFFFFFFFFFFFFFFFFFFFFFF66
:10DAD000FFFFFFFFFFFFFFFFFFFFFFFFFFFFFFFF56
:10DAE000FFFFFFFFFFFFFFFFFFFFFFFFFFFFFFFF46
:10DAF000FFFFFFFFFFFFFFFFFFFFFFFFFFFFFFFF36
:10DB0000FFFFFFFFFFFFFFFFFFFFFFFFFFFFFFFF25
:10DB1000FFFFFFFFFFFFFFFFFFFFFFFFFFFFFFFF15
:10DB2000FFFFFFFFFFFFFFFFFFFFFFFFFFFFFFFF05
:10DB3000FFFFFFFFFFFFFFFFFFFFFFFFFFFFFFFFF5
:10DB4000FFFFFFFFFFFFFFFFFFFFFFFFFFFFFFFFE5
:10DB5000FFFFA3549DFFFFFFFFDA549DFFFFFFFF70
:10DB6000FFBF54BAFFFFFFFFFFFFFFDA549DFFFF27
:10DB7000FFFFFFFFFFFD6956EDFFFE8754BAFFFF71
:10DB8000FFFFFFFFBF54BAFFFFFFFFFFFFFFFFFFD5
:10DB9000FFFFFE8756EDFFFFFFFFFFFFFFFFFFBF09
:10DBA00054BAFFFFFFFFFE87549DFFFFFFDA549D2D
:10DBB000FFFFFFFFFFFFFFFFFFFFA3549DFE875402
:10DBC0009DFFFFFFFFFFFFFFFE87549DFFFFFFFF4D
:10DBD000FFBF546BF6FFFFFFA355D2697FFFFFFF26
:10DBE000FFBF54BAFFFFFFFFFFFFFFFFBF54BAFFA5
:10DBF000FFFFA3547FFFFFFFFFFFFFBF549DFFFF09
:10DC0000FFFFFFFFFFFFFFFFFFFFFFFFFFFFFFFF24
:10DC1000FFFFFFFFFFFFFFFFFFFFFFFFFFFFFFFF14
:10DC2000FFFFFFFFFFFFFFFFFFFFFFFFFFFFFFFF04
:10DC3000FFFFFFFFFFFFFFFFFFFFFFFFFFFFFFFFF4
:10DC4000FFFFFFFFFFFFFFFFFFFFFFFFFFFFFFFFE4
:10DC5000FFFFFFFFFFFFFFFFFFFFFFFFFFFFFFFFD4
:10DC6000FFFFFFFFFFFFFFFFFFFFFFFFFFFFFFFFC4
:10DC7000FFFFFFFFFFFFFFFFFFFFFFFFFFFFFFFFB4
:10DC8000FFFFFFFFFFFFFFFFFFFFEC60D4FFFFFF81
:10DC9000FFDA5455D4FFFFFFFFDA549DFFFFFFFF6B
:10DCA000FFBF54BAFFFFFFFFFFFFFFDA549DFFFDE8
:10DCB0006BEDFFFFFE87547FFFFE8754BAFFFFFF27
:10DCC000FFFFFFFFBF54BAFFFFFFFFFFFFFFFFFF94
:10DCD000FFFFFE8756EDFFFFFFFFFFFFFFFFFFBFC8
:10DCE00054BAFFFFFFEC5F5456EDFFFFFFDA549D7F
:10DCF000FFFFEC60D4FFFFFFFFDA5455D4FFDA5486
:10DD0000547FFFFFFFFFBF7FFFDA54549DFFFFFFEB
:10DD1000BF5454BAFFFFFFFFDA547454BAFFFFFF39
:10DD2000FFBF54BAFFFFFFFFFFFFFFFFBF54BAFF63
:10DD3000FFFFFE8754BAFFFFFFFFFFBF549DFFFFA9
:10DD4000FFFFFFFFFFFFFFFFFFFFFFFFFFFFFFFFE3
:10DD5000FFFFFFFFFFFFFFFFFFFFFFFFFFFFFFFFD3
:10DD6000FFFFFFFFFFFFFFFFFFFFFFFFFFFFFFFFC3
:10DD7000FFFFFFFFFFFFFFFFFFFFFFFFFFFFFFFFB3
:10DD8000FFFFFFFFFFFFFFFFFFFFFFFFFFFFFFFFA3
:10DD9000FFFFFFFFFFFFFFFFFFFFFFFFFFFFFFFF93
:10DDA000FFFFFFFFFFFFFFFFFFFFFFFFFFFFFFFF83
:10DDB000FFFFFFFFFFFFFFFFFFFFFFFFFFFFFFFF73
:10DDC000FFFFFFFFFFFFFFFFFFFFEC5F54545454C2
:10DDD0005454549DFFFFFFFFFFDA549DFFFFFFFFE8
:10DDE000FFBF54BAFFFFFFFFFFFFFFDA549DFFFDA7
:10DDF00069545454545455D4FFFD695454545454E4
:10DE00005455D4FFBF54BAFFFFFFFFFFFFFFFFFFD2
:10DE1000FFFFFE8756EDFFFFFFFFFFFFFFFFFFBF86
:10DE20005454545454545456EDFFFFEC5F5454541E
:10DE300055D4EC5F545454545454549DFFFFFFBFC9
:10DE4000545454545454547FFFFFBF5454545454A6
:10DE500054549DFFFFFFFFFFFD695456EDFFFFFF88
:10DE6000FFBF5454545454545454BAFFBF54BAFFCF
:10DE7000FFFFFFEC5F55D4FFFFFFFFBF549DFFFF87
:10DE8000FFFFFFFFFFFFFFFFFFFFFFFFFFFFFFFFA2
:10DE9000FFFFFFFFFFFFFFFFFFFFFFFFFFFFFFFF92
:10DEA000FFFFFFFFFFFFFFFFFFFFFFFFFFFFFFFF82
:10DEB000FFFFFFFFFFFFFFFFFFFFFFFFFFFFFFFF72
:10DEC000FFFFFFFFFFFFFFFFFFFFFFFFFFFFFFFF62
:10DED000FFFFFFFFFFFFFFFFFFFFFFFFFFFFFFFF52
:10DEE000FFFFFFFFFFFFFFFFFFFFFFFFFFFFFFFF42
:10DEF000FFFFFFFFFFFFFFFFFFFFFFFFFFFFFFFF32
:10DF0000FFFFFFFFFFFFFFFFFFFFFFFD69545454BA
:10DF10005456EDFFFFFFFFFFFFDA549DFFFFFFFFA9
:10DF2000FFBF54BAFFFFFFFFFFFFFFDA549DFFFF63
:10DF3000EC5F5454546BF6FFFFFD69545454545431
:10DF40005455D4FFBF54BAFFFFFFFFFFFFFFFFFF91
:10DF5000FFFFFE8756EDFFFFFFFFFFFFFFFFFFBF45
:10DF6000545454545454BAFFFFFFFFEC5F545454BC
:10DF700055D4FFFD695454545456EDFFFFFFFFFF85
:10DF8000FD6954545454BAFFFFFFFFFD69545454C3
:10DF900056EDFFFFFFFFFFFFFFA3547FFFFFFFFFD3
:10DFA000FFBF5454545454545454BAFFBF54BAFF8E
:10DFB000FFFFFFFFDA5455D4FFFFFFBF549DFFFF63
:10DFC000FFFFFFFFFFFFFFFFFFFFFFFFFFFFFFFF61
:10DFD000FFFFFFFFFFFFFFFFFFFFFFFFFFFFFFFF51
:10DFE000FFFFFFFFFFFFFFFFFFFFFFFFFFFFFFFF41
:10DFF000FFFFFFFFFFFFFFFFFFFFFFFFFFFFFFFF31
:10ECD000FFA355D4FFFFFFFFBF549DFFFFFFFFECD5
:10ECE0005F7FFFBF5454545454545454BAFFA35438
:10ECF0005454545454BAFFFFFFFFFFFFFFFFFFFFC0
:10ED0000FFFFFD69545454549DFFFFFFFFFE8754DD
:10ED10006BF6FFFFFFFFBF5454BAFFFFFFFFFFDAA0
:10ED200054549DFFFFBF5454545454545454BAFF88
:10ED3000BF545454545454BAFFFFFFFFFFFFFE87E3
:10ED4000546BF6FFFFFFFFFFFFFFFFFD69545454B4
:10ED500054545454545455D4BF5454545454545487
:10ED600054BAFFFFFE875454545456EDFD69545471
:10ED70005454545454545455D4FFFFFFFFFFFFFF25
:10ED8000FFFFFFFFFFFFFFFFFFFFFFFFFFFFFFFF93
:10ED9000FFFFFFFFFFFFFFFFFFFFFFFFFFFFFFFF83
:10EDA000FFFFFFFFFFFFFFFFFFFFFFFFFFFFFFFF73
:10EDB000FFFFFFFFFFFFFFFFFFFFFFFFFFFFFFFF63
:10EDC000FFFFFFFFFFFFFFFFFFFFFFFFFFFFFFFF53
:10EDD000FFFFFFFFFFFFFFFFFFFFFFFFFFFFFFFF43
:10EDE000FFFFFFFFFFFFFFFFFFFFFFFFFFFFFFFF33
:10EDF000FFFFFFFFFFFFFFFFFFFFFFFFFFFFFFFF23
:10EE0000FFFFFFFFFFFFFFFFFFFFFFFFFFFFFFFF12
:10EE1000FFDA549DFFFFFFFFA3546BF6FFFFFFDAFD
:10EE200054BAFFBF5454545454545454BAFFA354C6
:10EE30005454545454549DFFFFFFFFFFFFFFFFFF46
:10EE4000FFBF545454545454547FFFFFFFEC5F549D
:10EE500055D4FFFFFFFFBF54547FFFFFFFFFFFA309
:10EE600054549DFFFFBF5454545454545454BAFF47
:10EE7000BF545454545454549DFFFFFFFFFFEC5FA4
:10EE80005455D4FFFFFFFFFFFFFFFFFD69545454AB
:10EE900054545454545455D4BF5454545454545446
:10EEA00054BAFFEC5F54545454545456EB695454C0
:10EEB0005454545454545455D4FFFFFFFFFFFFFFE4
:10EEC000FFFFFFFFFFFFFFFFFFFFFFFFFFFFFFFF52
:10EED000FFFFFFFFFFFFFFFFFFFFFFFFFFFFFFFF42
:10EEE000FFFFFFFFFFFFFFFFFFFFFFFFFFFFFFFF32
:10EEF000FFFFFFFFFFFFFFFFFFFFFFFFFFFFFFFF22
:10EF0000FFFFFFFFFFFFFFFFFFFFFFFFFFFFFFFF11
:10EF1000FFFFFFFFFFFFFFFFFFFFFFFFFFFFFFFF01
:10EF2000FFFFFFFFFFFFFFFFFFFFFFFFFFFFFFFFF1
:10EF3000FFFFFFFFFFFFFFFFFFFFFFFFFFFFFFFFE1
:10EF4000FFFFFFFFFFFFFFFFFFFFFFFFFFFFFFFFD1
:10EF5000FFEC5F7FFFFFFFFD695456EDFFFFFFA34E
:10EF600055D4FFBF54BAFFFFFFFFFFFFFFFFA355BC
:10EF7000D4FFFFFFBF546BF6FFFFFFFFFFFFFFFF54
:10EF8000DA54547FFFFFFFFFBF7FFFFFFFBF55AE87
:10EF9000549DFFFFFFFFBF547455D4FFFFFFEC5F8C
:10EFA00092549DFFFFBF54BAFFFFFFFFFFFFFFFF1B
:10EFB000BF54BAFFFFFFDA5455D4FFFFFFFFBF5520
:10EFC000AE549DFFFFFFFFFFFFFFFFFFFFFFFFFFAF
:10EFD000DA549DFFFFFFFFFFBF54BAFFFFFFFFFFA3
:10EFE000FFFFFE87547FFFFFFFFFDA56EDFFFFFFB5
:10EFF000FFDA549DFFFFFFFFFFFFFFFFFFFFFFFF53
:10F00000FFFFFFFFFFFFFFFFFFFFFFFFFFFFFFFF10
:10F01000FFFFFFFFFFFFFFFFFFFFFFFFFFFFFFFF00
:10F02000FFFFFFFFFFFFFFFFFFFFFFFFFFFFFFFFF0
:10F03000FFFFFFFFFFFFFFFFFFFFFFFFFFFFFFFFE0
:10F04000FFFFFFFFFFFFFFFFFFFFFFFFFFFFFFFFD0
:10F05000FFFFFFFFFFFFFFFFFFFFFFFFFFFFFFFFC0
:10F06000FFFFFFFFFFFFFFFFFFFFFFFFFFFFFFFFB0
:10F07000FFFFFFFFFFFFFFFFFFFFFFFFFFFFFFFFA0
:10F08000FFFFFFFFFFFFFFFFFFFFFFFFFFFFFFFF90
:10F09000FFFE8756EDFFFFEC60AE54BAFFFFFE8720
:10F0A0006BF6FFBF54BAFFFFFFFFFFFFFFFFA35543
:10F0B000D4FFFFFFFD6956EDFFFFFFFFFFFFFFFEDF
:10F0C00087549DFFFFFFFFFFFFFFFFFFFE876BF4ED
:10F0D000696BF6FFFFFFBF54B8697FFFFFFFA356C0
:10F0E000C9549DFFFFBF54BAFFFFFFFFFFFFFFFFA3
:10F0F000BF54BAFFFFFFFE8755D4FFFFFFFE876BAB
:10F10000F4696BF6FFFFFFFFFFFFFFFFFFFFFFFF4D
:10F11000DA549DFFFFFFFFFFBF54BAFFFFFFFFFF61
:10F12000FFFFEC5F56EDFFFFFFFFFFFFFFFFFFFF5D
:10F13000FFDA549DFFFFFFFFFFFFFFFFFFFFFFFF11
:10F14000FFFFFFFFFFFFFFFFFFFFFFFFFFFFFFFFCF
:10F15000FFFFFFFFFFFFFFFFFFFFFFFFFFFFFFFFBF
:10F16000FFFFFFFFFFFFFFFFFFFFFFFFFFFFFFFFAF
:10F17000FFFFFFFFFFFFFFFFFFFFFFFFFFFFFFFF9F
:10F18000FFFFFFFFFFFFFFFFFFFFFFFFFFFFFFFF8F
:10F19000FFFFFFFFFFFFFFFFFFFFFFFFFFFFFFFF7F
:10F1A000FFFFFFFFFFFFFFFFFFFFFFFFFFFFFFFF6F
:10F1B000FFFFFFFFFFFFFFFFFFFFFFFFFFFFFFFF5F
:10F1C000FFFFFFFFFFFFFFFFFFFFFFFFFFFFFFFF4F
:10F1D000FFFFA355D4FFFFBF56EB699DFFFFEC5F18
:10F1E0007FFFFFBF54BAFFFFFFFFFFFFFFFFA355E5
:10F1F000D4FFFFFFEC5F6BF6FFFFFFFFFFFFFFECAD
:10F200005F56EDFFFFFFFFFFFFFFFFFFEC5F9DFF7E
:10F21000A355D4FFFFFFBF54BAA355D4FFFD699D8A
:10F22000DA549DFFFFBF54BAFFFFFFFFFFFFFFFF50
:10F23000BF54BAFFFFFFFE8755D4FFFFFFEC5F9D71
:10F24000FFA355D4FFFFFFFFFFFFFFFFFFFFFFFFFF
:10F25000DA549DFFFFFFFFFFBF54BAFFFFFFFFFF20
:10F26000FFFFFD6956EDFFFFFFFFFFFFFFFFFFFF01
:10F27000FFDA549DFFFFFFFFFFFFFFFFFFFFFFFFD0
:10F28000FFFFFFFFFFFFFFFFFFFFFFFFFFFFFFFF8E
:10F29000FFFFFFFFFFFFFFFFFFFFFFFFFFFFFFFF7E
:10F2A000FFFFFFFFFFFFFFFFFFFFFFFFFFFFFFFF6E
:10F2B000FFFFFFFFFFFFFFFFFFFFFFFFFFFFFFFF5E
:10F2C000FFFFFFFFFFFFFFFFFFFFFFFFFFFFFFFF4E
:10F2D000FFFFFFFFFFFFFFFFFFFFFFFFFFFFFFFF3E
:10F2E000FFFFFFFFFFFFFFFFFFFFFFFFFFFFFFFF2E
:10F2F000FFFFFFFFFFFFFFFFFFFFFFFFFFFFFFFF1E
:10F30000FFFFFFFFFFFFFFFFFFFFFFFFFFFFFFFF0D
:10F31000FFFFDA549DFFFFA37FFE877FFFFFDA54D4
:10F32000BAFFFFBF5454545454545456EDFFA355E0
:10F33000D4FFFFFFA354BAFFFFFFFFFFFFFFFFDA79
:10F34000547FFFFFFFFFFFFFFFFFFFFFBF55D4FF0D
:10F35000DA549DFFFFFFBF54BAEC5F9DFFBF56ED2F
:10F36000DA549DFFFFBF5454545454545456EDFF87
:10F37000BF54BAFFFFFFA3546BF6FFFFFFBF55D486
:10F38000FFDA549DFFFFFFFFFFFFFFFFFFFFFFFFBF
:10F39000DA549DFFFFFFFFFFBF545454545454549C
:10F3A00056EDFE875456EDFFFFFFFFFFFFFFFFFF07
:10F3B000FFDA549DFFFFFFFFFFFFFFFFFFFFFFFF8F
:10F3C000FFFFFFFFFFFFFFFFFFFFFFFFFFFFFFFF4D
:10F3D000FFFFFFFFFFFFFFFFFFFFFFFFFFFFFFFF3D
:10F3E000FFFFFFFFFFFFFFFFFFFFFFFFFFFFFFFF2D
:10F3F000FFFFFFFFFFFFFFFFFFFFFFFFFFFFFFFF1D
:10F40000FFFFFFFFFFFFFFFFFFFFFFFFFFFFFFFF0C
:10F41000FFFFFFFFFFFFFFFFFFFFFFFFFFFFFFFFFC
:10F42000FFFFFFFFFFFFFFFFFFFFFFFFFFFFFFFFEC
:10F43000FFFFFFFFFFFFFFFFFFFFFFFFFFFFFFFFDC
:10F44000FFFFFFFFFFFFFFFFFFFFFFFFFFFFFFFFCC
:10F45000FFFFEC5F7FFFFD699DFFBF56EDFFBF55CE
:10F46000D4FFFFBF5454545454545456EDFFA35486
:10F470005454545455D4FFFFFFFFFFFFFFFFFFBF5D
:10F48000549DFFFFFFFFFFFFFFFFFFFE876BF6FFAF
:10F49000FD696BF6FFFFBF54BAFFA356EB697FFF10
:10F4A000DA549DFFFFBF5454545454545456EDFF46
:10F4B000BF54545454545456EDFFFFFFFE876BF66F
:10F4C000FFFD696BF6FFFFFFFFFFFFFFFFFFFFFF81
:10F4D000DA549DFFFFFFFFFFBF545454545454545B
:10F4E00056EDFFFD69545454547FFFFFFFFFFFFFAB
:10F4F000FFDA549DFFFFFFFFFFFFFFFFFFFFFFFF4E
:10F50000FFFFFFFFFFFFFFFFFFFFFFFFFFFFFFFF0B
:10F51000FFFFFFFFFFFFFFFFFFFFFFFFFFFFFFFFFB
:10F52000FFFFFFFFFFFFFFFFFFFFFFFFFFFFFFFFEB
:10F53000FFFFFFFFFFFFFFFFFFFFFFFFFFFFFFFFDB
:10F54000FFFFFFFFFFFFFFFFFFFFFFFFFFFFFFFFCB
:10F55000FFFFFFFFFFFFFFFFFFFFFFFFFFFFFFFFBB
:10F56000FFFFFFFFFFFFFFFFFFFFFFFFFFFFFFFFAB
:10F57000FFFFFFFFFFFFFFFFFFFFFFFFFFFFFFFF9B
:10F58000FFFFFFFFFFFFFFFFFFFFFFFFFFFFFFFF8B
:10F59000FFFFFE876BF6EC5FBAFFDA55D4FE876B90
:10F5A000F6FFFFBF54BAFFFFFFFFFFFFFFFFA354AB
:10F5B0005454545454547FFFEC5F54545456EDBF8C
:10F5C000549DFFFFFFFFFFFFFFFFFFEC5F9DFFFF6D
:10F5D000FFA355D4FFFFBF54BAFFEC5F7455D4FFAF
:10F5E000DA549DFFFFBF54BAFFFFFFFFFFFFFFFF8D
:10F5F000BF5454545454BAFFFFFFFFFFEC5F9DFF0C
:10F60000FFFFA355D4FFFFFFFFFFFFFFFFFFFFFF3B
:10F61000DA549DFFFFFFFFFFBF54BAFFFFFFFFFF5C
:10F62000FFFFFFFFFFFE87545454549DFFFFFFFF71
:10F63000FFDA549DFFFFFFFFFFFFFFFFFFFFFFFF0C
:10F64000FFFFFFFFFFFFFFFFFFFFFFFFFFFFFFFFCA
:10F65000FFFFFFFFFFFFFFFFFFFFFFFFFFFFFFFFBA
:10F66000FFFFFFFFFFFFFFFFFFFFFFFFFFFFFFFFAA
:10F67000FFFFFFFFFFFFFFFFFFFFFFFFFFFFFFFF9A
:10F68000FFFFFFFFFFFFFFFFFFFFFFFFFFFFFFFF8A
:10F69000FFFFFFFFFFFFFFFFFFFFFFFFFFFFFFFF7A
:10F6A000FFFFFFFFFFFFFFFFFFFFFFFFFFFFFFFF6A
:10F6B000FFFFFFFFFFFFFFFFFFFFFFFFFFFFFFFF5A
:10F6C000FFFFFFFFFFFFFFFFFFFFFFFFFFFFFFFF4A
:10F6D000FFFFFFA355D4DA56EDFFFD699DFD697F5D
:10F6E000FFFFFFBF54BAFFFFFFFFFFFFFFFFA35560
:10F6F000D4FFFFFFFD6954BAEC5F54545456EDDA61
:10F70000547FFFFFFFFFFFFFFFFFFFBF5454545420
:10F710005454549DFFFFBF54BAFFFE87547FFFFF30
:10F72000DA549DFFFFBF54BAFFFFFFFFFFFFFFFF4B
:10F73000BF54BAFFEC5F55D4FFFFFFFFBF545454D2
:10F74000545454549DFFFFFFFFFFFFFFFFFFFFFFD7
:10F75000DA549DFFFFFFFFFFBF54BAFFFFFFFFFF1B
:10F76000FFFFFFFFFFFFFFFFFFDA5455D4FFFFFF4E
:10F77000FFDA549DFFFFFFFFFFFFFFFFFFFFFFFFCB
:10F78000FFFFFFFFFFFFFFFFFFFFFFFFFFFFFFFF89
:10F79000FFFFFFFFFFFFFFFFFFFFFFFFFFFFFFFF79
:10F7A000FFFFFFFFFFFFFFFFFFFFFFFFFFFFFFFF69
:10F7B000FFFFFFFFFFFFFFFFFFFFFFFFFFFFFFFF59
:10F7C000FFFFFFFFFFFFFFFFFFFFFFFFFFFFFFFF49
:10F7D000FFFFFFFFFFFFFFFFFFFFFFFFFFFFFFFF39
:10F7E000FFFFFFFFFFFFFFFFFFFFFFFFFFFFFFFF29
:10F7F000FFFFFFFFFFFFFFFFFFFFFFFFFFFFFFFF19
:10F80000FFFFFFFFFFFFFFFFFFFFFFFFFFFFFFFF08
:10F81000FFFFFFDA54BAA36BF6FFFE877FDA54BA14
:10F82000FFFFFFBF54BAFFFFFFFFFFFFFFFFA3551E
:10F83000D4FFFFFFFFBF549DFFFFFFFFFFFFFFEC63
:10F840005F56EDFFFFFFFFFFFFFFFE875454545448
:10F850005454546BF6FFBF54BAFFFFDA55D4FFFF80
:10F86000DA549DFFFFBF54BAFFFFFFFFFFFFFFFF0A
:10F87000BF54BAFFFFDA546BF6FFFFFE87545454AF
:10F88000545454546BF6FFFFFFFFFFFFFFFFFFFFD1
:10F89000DA549DFFFFFFFFFFBF54BAFFFFFFFFFFDA
:10F8A000FFFFFFFFFFFFFFFFFFFFBF549DFFFFFFB5
:10F8B000FFDA549DFFFFFFFFFFFFFFFFFFFFFFFF8A
:10F8C000FFFFFFFFFFFFFFFFFFFFFFFFFFFFFFFF48
:10F8D000FFFFFFFFFFFFFFFFFFFFFFFFFFFFFFFF38
:10F8E000FFFFFFFFFFFFFFFFFFFFFFFFFFFFFFFF28
:10F8F000FFFFFFFFFFFFFFFFFFFFFFFFFFFFFFFF18
:10F90000FFFFFFFFFFFFFFFFFFFFFFFFFFFFFFFF07
:10F91000FFFFFFFFFFFFFFFFFFFFFFFFFFFFFFFFF7
:10F92000FFFFFFFFFFFFFFFFFFFFFFFFFFFFFFFFE7
:10F93000FFFFFFFFFFFFFFFFFFFFFFFFFFFFFFFFD7
:10F94000FFFFFFFFFFFFFFFFFFFFFFFFFFFFFFFFC7
:10F95000FFFFFFEC5F7E879DFFFFFFA356AD55D4F1
:10F96000FFFFFFBF54BAFFFFFFFFFFFFFFFFA355DD
:10F97000D4FFFFFFFFBF549DFFFFFFFFFFFFFFFE10
:10F9800087549DFFFFFFFFFFFFFFEC5F7FFFFFFF3F
:10F99000FFFE8755D4FFBF54BAFFFFFFFFFFFFFFF5
:10F9A000DA549DFFFFBF54BAFFFFFFFFFFFFFFFFC9
:10F9B000BF54BAFFFFFFA3547FFFFFEC5F7FFFFF41
:10F9C000FFFFFE8755D4FFFFFFFFFFFFFFFFFFFF95
:10F9D000DA549DFFFFFFFFFFBF54BAFFFFFFFFFF99
:10F9E000FFFFFFFFFFFFFFFFFFFFA3549DFFFFFF90
:10F9F000FFDA549DFFFFFFFFFFFFFFFFFFFFFFFF49
:10FA0000FFFFFFFFFFFFFFFFFFFFFFFFFFFFFFFF06
:10FA1000FFFFFFFFFFFFFFFFFFFFFFFFFFFFFFFFF6
:10FA2000FFFFFFFFFFFFFFFFFFFFFFFFFFFFFFFFE6
:10FA3000FFFFFFFFFFFFFFFFFFFFFFFFFFFFFFFFD6
:10FA4000FFFFFFFFFFFFFFFFFFFFFFFFFFFFFFFFC6
:10FA5000FFFFFFFFFFFFFFFFFFFFFFFFFFFFFFFFB6
:10FA6000FFFFFFFFFFFFFFFFFFFFFFFFFFFFFFFFA6
:10FA7000FFFFFFFFFFFFFFFFFFFFFFFFFFFFFFFF96
:10FA8000FFFFFFFFFFFFFFFFFFFFFFFFFFFFFFFF86
:10FA9000FFFFFFFE875454BAFFFFFFDA55736BF682
:10FAA000FFFFFFBF54BAFFFFFFFFFFFFFFFFA3559C
:10FAB000D4FFFFFFDA5454BAFFFFFFFFFFFFFFFF41
:10FAC000DA54547FFFFFFFFFBF7FBF54BAFFFFFF31
:10FAD000FFFFBF549DFFBF54BAFFFFFFFFFFFFFFB3
:10FAE000DA549DFFFFBF54BAFFFFFFFFFFFFFFFF88
:10FAF000BF54BAFFFFFFFE8754BAFFBF54BAFFFFDF
:10FB0000FFFFFFBF549DFFFFFFFFFFFFFFFFFFFF52
:10FB1000DA549DFFFFFFFFFFBF54BAFFFFFFFFFF57
:10FB2000FFFFEC60D4FFFFFFFFDA5455D4FFFFFF67
:10FB3000FFDA549DFFFFFFFFFFFFFFFFFFFFFFFF07
:10FB4000FFFFFFFFFFFFFFFFFFFFFFFFFFFFFFFFC5
:10FB5000FFFFFFFFFFFFFFFFFFFFFFFFFFFFFFFFB5
:10FB6000FFFFFFFFFFFFFFFFFFFFFFFFFFFFFFFFA5
:10FB7000FFFFFFFFFFFFFFFFFFFFFFFFFFFFFFFF95
:10FB8000FFFFFFFFFFFFFFFFFFFFFFFFFFFFFFFF85
:10FB9000FFFFFFFFFFFFFFFFFFFFFFFFFFFFFFFF75
:10FBA000FFFFFFFFFFFFFFFFFFFFFFFFFFFFFFFF65
:10FBB000FFFFFFFFFFFFFFFFFFFFFFFFFFFFFFFF55
:10FBC000FFFFFFFFFFFFFFFFFFFFFFFFFFFFFFFF45
:10FBD000FFFFFFFFA35455D4FFFFFFEC5F547FFFEF
:10FBE000FFFFFFBF5454545454545454BAFFA35409
:10FBF0005454545454547FFFFFFFFFFFFFFFFFFF97
:10FC0000FFBF545454545454547E8756EDFFFFFFA5
:10FC1000FFFFEC5F6BF6BF54BAFFFFFFFFFFFFFF74
:10FC2000DA549DFFFFBF5454545454545454BAFFF3
:10FC3000BF54BAFFFFFFFFEC5F55D38756EDFFFFC0
:10FC4000FFFFFFEC5F6BF6FFFFFFFFFFFFFFFFFF14
:10FC5000DA549DFFFFFFFFFFBF54545454545454D3
:10FC600054BAEC5F545454545454549DFFFFFFFF56
:10FC7000FFDA549DFFFFFFFFFFFFFFFFFFFFFFFFC6
:10FC8000FFFFFFFFFFFFFFFFFFFFFFFFFFFFFFFF84
:10FC9000FFFFFFFFFFFFFFFFFFFFFFFFFFFFFFFF74
:10FCA000FFFFFFFFFFFFFFFFFFFFFFFFFFFFFFFF64
:10FCB000FFFFFFFFFFFFFFFFFFFFFFFFFFFFFFFF54
:10FCC000FFFFFFFFFFFFFFFFFFFFFFFFFFFFFFFF44
:10FCD000FFFFFFFFFFFFFFFFFFFFFFFFFFFFFFFF34
:10FCE000FFFFFFFFFFFFFFFFFFFFFFFFFFFFFFFF24
:10FCF000FFFFFFFFFFFFFFFFFFFFFFFFFFFFFFFF14
:10FD0000FFFFFFFFFFFFFFFFFFFFFFFFFFFFFFFF03
:10FD1000FFFFFFFFDA546BF6FFFFFFFE87549DFFE6
:10FD2000FFFFFFBF5454545454545454BAFFA354C7
:10FD30005454545455D4FFFFFFFFFFFFFFFFFFFF54
:10FD4000FFFFFD6954545454BAEC5F7FFFFFFFFF7F
:10FD5000FFFFFE8755D4BF54BAFFFFFFFFFFFFFF31
:10FD6000DA549DFFFFBF5454545454545454BAFFB2
:10FD7000BF54BAFFFFFFFFFFDA5454547FFFFFFF69
:10FD8000FFFFFFFE8755D4FFFFFFFFFFFFFFFFFFD1
:10FD9000DA549DFFFFFFFFFFBF5454545454545492
:10FDA00054BAFFFD695454545456EDFFFFFFFFFF52
:10FDB000FFDA549DFFFFFFFFFFFFFFFFFFFFFFFF85
:10FDC000FFFFFFFFFFFFFFFFFFFFFFFFFFFFFFFF43
:10FDD000FFFFFFFFFFFFFFFFFFFFFFFFFFFFFFFF33
:10FDE000FFFFFFFFFFFFFFFFFFFFFFFFFFFFFFFF23
:10FDF000FFFFFFFFFFFFFFFFFFFFFFFFFFFFFFFF13
:020000040801F1
:100D0000FFFFFFFFFFFFFFFF7F7F7F7F7F7F7F7FF3
:100D10007F7F7F7F7F7F7F7F7F7F7F7F7F7F7F7FE3
:100D20007F7F7F7F7F7F7F7F7F7F7F7F7F7F7F7FD3
:100D30007F7F7F7F7F7F7F7F7F7F7F7F7F7F7F7FC3
:100D40007F7F7F7F7F7F7F7F7F7F7F7F7F7F7F7FB3
:101340007F7F7F7F7F7F7F7F4C4C4C4C4C4C4C4C45
:101350004C4C4C4C4C4C4C4C4C4C4C4C4C4C4C4CCD
:101360004C4C4C4C4C4C4C4C4C4C4C4C4C4C4C4CBD
:101370004C4C4C4C4C4C4C4C4C4C4C4C4C4C4C4CAD
:101380004C4C4C4C4C4C4C4C4C4C4C4C4C4C4C4C9D
:101390004C4C4C4C4C4C4C4C4C4C4C4C4C4C4C4C8D
:1013A0004C4C4C4C4C4C4C4C4C4C4C4C4C4C4C4C7D
:1013B0007F7F7F7F7F969696969696969696969640
:1013C00096969696969696969696969696969696BD
:1013D00096969696969696969696969696969696AD
:1013E000969696969696969696969696969696969D
:1013F000969696969696969696969696969696968D
:10140000969696969696969696969696969696967C
:10141000969696969696969696967F7F7F7F7F1D58
:101420001D1D1D1D1D1D1D1D1D1D1D1D1D1D1D1DEC
:101430001D1D1D1D1D1D1D1D1D1D1D1D1D1D1D1DDC
:101440001D1D1D1D1D1D1D1D1D1D1D1D1D1D1D1DCC
:101450001D1D1D1D1D1D1D1D1D1D1D1D1D1D1D1DBC
:101460001D1D1D1D1D1D1D1D1D1D1D1D1D1D1D1DAC
:101470001D1D1D1D1D1D1D1D1D1D1D1D1D1D1D1D9C
:101480001D1D1D1D1D1D1D1D4C4C4C4C4C4C4C4C14
:101490004C4C4C4C4C4C4C4C4C4C4C4C4C4C4C4C8C
:1014A0004C4C4C4C4C4C4C4C4C4C4C4C4C4C4C4C7C
:1014B0004C4C4C4C4C4C4C4C4C4C4C4C4C4C4C4C6C
:1014C0004C4C4C4C4C4C4C4C4C4C4C4C4C4C4C4C5C
:1014D0004C4C4C4C4C4C4C4C4C4C4C4C4C4C4C4C4C
:1014E0004C4C4C4C4C4C4C4C4C4C4C4C4C4C4C4C3C
:1014F0007F7F7F7F7F9696969696969696969696FF
:10150000969696969696969696969696969696967B
:10151000969696969696969696969696969696966B
:10152000969696969696969696969696969696965B
:10153000969696969696969696969696969696964B
:10154000969696969696969696969696969696963B
:10155000969696969696969696967F7F7F7F7F1D17
:101560001D1D1D1D1D1D1D1D1D1D1D1D1D1D1D1DAB
:101570001D1D1D1D1D1D1D1D1D1D1D1D1D1D1D1D9B
:101580001D1D1D1D1D1D1D1D1D1D1D1D1D1D1D1D8B
:101590001D1D1D1D1D1D1D1D1D1D1D1D1D1D1D1D7B
:1015A0001D1D1D1D1D1D1D1D1D1D1D1D1D1D1D1D6B
:1015B0001D1D1D1D1D1D1D1D1D1D1D1D1D1D1D1D5B
:1015C0001D1D1D1D1D1D1D1D4C4C4C4C4C4C4C4CD3
:1015D0004C4C4C4C4C4C4C4C4C4C4C4C4C4C4C4C4B
:1015E0004C4C4C4C4C4C4C4C4C4C4C4C4C4C4C4C3B
:1015F0004C4C4C4C4C4C4C4C4C4C4C4C4C4C4C4C2B
:101600004C4C4C4C4C4C4C4C4C4C4C4C4C4C4C4C1A
:101610004C4C4C4C4C4C4C4C4C4C4C4C4C4C4C4C0A
:101620004C4C4C4C4C4C4C4C4C4C4C4C4C4C4C4CFA
:101630007F7F7F7F7F9696969696969696969696BD
:10164000969696969696969696969696969696963A
:10165000969696969696969696969696969696962A
:10166000969696969696969696969696969696961A
:10167000969696969696969696969696969696960A
:1016800096969696969696969696969696969696FA
:10169000969696969696969696967F7F7F7F7F1DD6
:1016A0001D1D1D1D1D1D1D1D1D1D1D1D1D1D1D1D6A
:1016B0001D1D1D1D1D1D1D1D1D1D1D1D1D1D1D1D5A
:1016C0001D1D1D1D1D1D1D1D1D1D1D1D1D1D1D1D4A
:1016D0001D1D1D1D1D1D1D1D1D1D1D1D1D1D1D1D3A
:1016E0001D1D1D1D1D1D1D1D1D1D1D1D1D1D1D1D2A
:1016F0001D1D1D1D1D1D1D1D1D1D1D1D1D1D1D1D1A
:101700001D1D1D1D1D1D1D1D4C4C4C4C4C4C4C4C91
:101710004C4C4C4C4C4C4C4C4C4C4C4C4C4C4C4C09
:101720004C4C4C4C4C4C4C4C4C4C4C4C4C4C4C4CF9
:101730004C4C4C4C4C4C4C4C4C4C4C4C4C4C4C4CE9
:101740004C4C4C4C4C4C4C4C4C4C4C4C4C4C4C4CD9
:101750004C4C4C4C4C4C4C4C4C4C4C4C4C4C4C4CC9
:101760004C4C4C4C4C4C4C4C4C4C4C4C4C4C4C4CB9
:101770007F7F7F7F7F96969696969696969696967C
:1017800096969696969696969696969696969696F9
:1017900096969696969696969696969696969696E9
:1017A00096969696969696969696969696969696D9
:1017B00096969696969696969696969696969696C9
:1017C00096969696969696969696969696969696B9
:1017D000969696969696969696967F7F7F7F7F1D95
:1017E0001D1D1D1D1D1D1D1D1D1D1D1D1D1D1D1D29
:1017F0001D1D1D1D1D1D1D1D1D1D1D1D1D1D1D1D19
:101800001D1D1D1D1D1D1D1D1D1D1D1D1D1D1D1D08
:101810001D1D1D1D1D1D1D1D1D1D1D1D1D1D1D1DF8
:101820001D1D1D1D1D1D1D1D1D1D1D1D1D1D1D1DE8
:101830001D1D1D1D1D1D1D1D1D1D1D1D1D1D1D1DD8
:101840001D1D1D1D1D1D1D1D4C4C4C4C4C4C4C4C50
:101850004C4C4C4C4C4C4C4C4C4C4C4C4C4C4C4CC8
:101860004C4C4C4C4C4C4C4C4C4C4C4C4C4C4C4CB8
:101870004C4C4C4C4C4C4C4C4C4C4C4C4C4C4C4CA8
:101880004C4C4C4C4C4C4C4C4C4C4C4C4C4C4C4C98
:101890004C4C4C4C4C4C4C4C4C4C4C4C4C4C4C4C88
:1018A0004C4C4C4C4C4C4C4C4C4C4C4C4C4C4C4C78
:1018B0007F7F7F7F7F96969696969696969696963B
:1018C00096969696969696969696969696969696B8
:1018D00096969696969696969696969696969696A8
:1018E0009696969696969696969696969696969698
:1018F0009696969696969696969696969696969688
:101900009696969696969696969696969696969677
:10191000969696969696969696967F7F7F7F7F1D53
:101920001D1D1D1D1D1D1D1D1D1D1D1D1D1D1D1DE7
:101930001D1D1D1D1D1D1D1D1D1D1D1D1D1D1D1DD7
:101940001D1D1D1D1D1D1D1D1D1D1D1D1D1D1D1DC7
:101950001D1D1D1D1D1D1D1D1D1D1D1D1D1D1D1DB7
:101960001D1D1D1D1D1D1D1D1D1D1D1D1D1D1D1DA7
:101970001D1D1D1D1D1D1D1D1D1D1D1D1D1D1D1D97
:101980001D1D1D1D1D1D1D1D4C4C4C4C4C4C4C4C0F
:101990004C4C4C4C4C4C4C4C4C4C4C4C4C4C4C4C87
:1019A0004C4C4C4C4C4C4C4C4C4C4C4C4C4C4C4C77
:1019B0004C4C4C4C4C4C4C4C4C4C4C4C4C4C4C4C67
:1019C0004C4C4C4C4C4C4C4C4C4C4C4C4C4C4C4C57
:1019D0004C4C4C4C4C4C4C4C4C4C4C4C4C4C4C4C47
:1019E0004C4C4C4C4C4C4C4C4C4C4C4C4C4C4C4C37
:1019F0007F7F7F7F7F9696969696969696969696FA
:101A00009696969696969696969696969696969676
:101A10009696969696969696969696969696969666
:101A20009696969696969696969696969696969656
:101A30009696969696969696969696969696969646
:101A40009696969696969696969696969696969636
:101A5000969696969696969696967F7F7F7F7F1D12
:101A60001D1D1D1D1D1D1D1D1D1D1D1D1D1D1D1DA6
:101A70001D1D1D1D1D1D1D1D1D1D1D1D1D1D1D1D96
:101A80001D1D1D1D1D1D1D1D1D1D1D1D1D1D1D1D86
:101A90001D1D1D1D1D1D1D1D1D1D1D1D1D1D1D1D76
:101AA0001D1D1D1D1D1D1D1D1D1D1D1D1D1D1D1D66
:101AB0001D1D1D1D1D1D1D1D1D1D1D1D1D1D1D1D56
:101AC0001D1D1D1D1D1D1D1D4C4C4C4C4C4C4C4CCE
:101AD0004C4C4C4C4C4C4C4C4C4C4C4C4C4C4C4C46
:101AE0004C4C4C4C4C4C4C4C4C4C4C4C4C4C4C4C36
:101AF0004C4C4C4C4C4C4C4C4C4C4C4C4C4C4C4C26
:101B00004C4C4C4C4C4C4C4C4C4C4C4C4C4C4C4C15
:101B10004C4C4C4C4C4C4C4C4C4C4C4C4C4C4C4C05
:101B20004C4C4C4C4C4C4C4C4C4C4C4C4C4C4C4CF5
:101B30007F7F7F7F7F9696969696969696969696B8
:101B40009696969696969696969696969696969635
:101B50009696969696969696969696969696969625
:101B60009696969696969696969696969696969615
:101B70009696969696969696969696969696969605
:101B800096969696969696969696969696969696F5
:101B9000969696969696969696967F7F7F7F7F1DD1
:101BA0001D1D1D1D1D1D1D1D1D1D1D1D1D1D1D1D65
:101BB0001D1D1D1D1D1D1D1D1D1D1D1D1D1D1D1D55
:101BC0001D1D1D1D1D1D1D1D1D1D1D1D1D1D1D1D45
:101BD0001D1D1D1D1D1D1D1D1D1D1D1D1D1D1D1D35
:101BE0001D1D1D1D1D1D1D1D1D1D1D1D1D1D1D1D25
:101BF0001D1D1D1D1D1D1D1D1D1D1D1D1D1D1D1D15
:101C00001D1D1D1D1D1D1D1D4C4C4C4C4C4C4C4C8C
:101C10004C4C4C4C4C4C4C4C4C4C4C4C4C4C4C4C04
:101C20004C4C4C4C4C4C4C4C4C4C4C4C4C4C4C4CF4
:101C30004C4C4C4C4C4C4C4C4C4C4C4C4C4C4C4CE4
:101C40004C4C4C4C4C4C4C4C4C4C4C4C4C4C4C4CD4
:101C50004C4C4C4C4C4C4C4C4C4C4C4C4C4C4C4CC4
:101C60004C4C4C4C4C4C4C4C4C4C4C4C4C4C4C4CB4
:101C70007F7F7F7F7F969696969696969696969677
:101C800096969696969696969696969696969696F4
:101C900096969696969696969696969696969696E4
:101CA00096969696969696969696969696969696D4
:101CB00096969696969696969696969696969696C4
:101CC00096969696969696969696969696969696B4
:101CD000969696969696969696967F7F7F7F7F1D90
:101CE0001D1D1D1D1D1D1D1D1D1D1D1D1D1D1D1D24
:101CF0001D1D1D1D1D1D1D1D1D1D1D1D1D1D1D1D14
:101D00001D1D1D1D1D1D1D1D1D1D1D1D1D1D1D1D03
:101D10001D1D1D1D1D1D1D1D1D1D1D1D1D1D1D1DF3
:101D20001D1D1D1D1D1D1D1D1D1D1D1D1D1D1D1DE3
:101D30001D1D1D1D1D1D1D1D1D1D1D1D1D1D1D1DD3
:101D40001D1D1D1D1D1D1D1D4C4C4C4C4C4C4C4C4B
:101D50004C4C4C4C4C4C4C4C4C4C4C4C4C4C4C4CC3
:101D60004C4C4C4C4C4C4C4C4C4C4C4C4C4C4C4CB3
:101D70004C4C4C4C4C4C4C4C4C4C4C4C4C4C4C4CA3
:101D80004C4C4C4C4C4C4C4C4C4C4C4C4C4C4C4C93
:101D90004C4C4C4C4C4C4C4C4C4C4C4C4C4C4C4C83
:101DA0004C4C4C4C4C4C4C4C4C4C4C4C4C4C4C4C73
:101DB0007F7F7F7F7F969696969696969696969636
:101DC00096969696969696969696969696969696B3
:101DD00096969696969696969696969696969696A3
:101DE0009696969696969696969696969696969693
:101DF0009696969696969696969696969696969683
:101E00009696969696969696969696969696969672
:101E1000969696969696969696967F7F7F7F7F1D4E
:101E20001D1D1D1D1D1D1D1D1D1D1D1D1D1D1D1DE2
:101E30001D1D1D1D1D1D1D1D1D1D1D1D1D1D1D1DD2
:101E40001D1D1D1D1D1D1D1D1D1D1D1D1D1D1D1DC2
:101E50001D1D1D1D1D1D1D1D1D1D1D1D1D1D1D1DB2
:101E60001D1D1D1D1D1D1D1D1D1D1D1D1D1D1D1DA2
:101E70001D1D1D1D1D1D1D1D1D1D1D1D1D1D1D1D92
:101E80001D1D1D1D1D1D1D1D4C4C4C4C4C4C4C4C0A
:101E90004C4C4C4C4C4C4C4C4C4C4C4C4C4C4C4C82
:101EA0004C4C4C4C4C4C4C4C4C4C4C4C4C4C4C4C72
:101EB0004C4C4C4C4C4C4C4C4C4C4C4C4C4C4C4C62
:101EC0004C4C4C4C4C4C4C4C4C4C4C4C4C4C4C4C52
:101ED0004C4C4C4C4C4C4C4C4C4C4C4C4C4C4C4C42
:101EE0004C4C4C4C4C4C4C4C4C4C4C4C4C4C4C4C32
:101EF0007F7F7F7F7F9696969696969696969696F5
:101F00009696969696969696969696969696969671
:101F10009696969696969696969696969696969661
:101F20009696969696969696969696969696969651
:101F30009696969696969696969696969696969641
:101F40009696969696969696969696969696969631
:101F5000969696969696969696967F7F7F7F7F1D0D
:101F60001D1D1D1D1D1D1D1D1D1D1D1D1D1D1D1DA1
:101F70001D1D1D1D1D1D1D1D1D1D1D1D1D1D1D1D91
:101F80001D1D1D1D1D1D1D1D1D1D1D1D1D1D1D1D81
:101F90001D1D1D1D1D1D1D1D1D1D1D1D1D1D1D1D71
:101FA0001D1D1D1D1D1D1D1D1D1D1D1D1D1D1D1D61
:101FB0001D1D1D1D1D1D1D1D1D1D1D1D1D1D1D1D51
:101FC0001D1D1D1D1D1D1D1D4C4C4C4C4C4C4C4CC9
:101FD0004C4C4C4C4C4C4C4C4C4C4C4C4C4C4C4C41
:101FE0004C4C4C4C4C4C4C4C4C4C4C4C4C4C4C4C31
:101FF0004C4C4C4C4C4C4C4C4C4C4C4C4C4C4C4C21
:102000004C4C4C4C4C4C4C4C4C4C4C4C4C4C4C4C10
:102010004C4C4C4C4C4C4C4C4C4C4C4C4C4C4C4C00
:102020004C4C4C4C4C4C4C4C4C4C4C4C4C4C4C4CF0
:102030007F7F7F7F7F9696969696969696969696B3
:102040009696969696969696969696969696969630
:102050009696969696969696969696969696969620
:102060009696969696969696969696969696969610
:102070009696969696969696969696969696969600
:1020800096969696969696969696969696969696F0
:10209000969696969696969696967F7F7F7F7F1DCC
:1020A0001D1D1D1D1D1D1D1D1D1D1D1D1D1D1D1D60
:1020B0001D1D1D1D1D1D1D1D1D1D1D1D1D1D1D1D50
:1020C0001D1D1D1D1D1D1D1D1D1D1D1D1D1D1D1D40
:1020D0001D1D1D1D1D1D1D1D1D1D1D1D1D1D1D1D30
:1020E0001D1D1D1D1D1D1D1D1D1D1D1D1D1D1D1D20
:1020F0001D1D1D1D1D1D1D1D1D1D1D1D1D1D1D1D10
:102100001D1D1D1D1D1D1D1D4C4C4C4C4C4C4C4C87
:102110004C4C4C4C4C4C4C4C4C4C4C4C4C4C4C4CFF
:102120004C4C4C4C4C4C4C4C4C4C4C4C4C4C4C4CEF
:102130004C4C4C4C4C4C4C4C4C4C4C4C4C4C4C4CDF
:102140004C4C4C4C4C4C4C4C4C4C4C4C4C4C4C4CCF
:102150004C4C4C4C4C4C4C4C4C4C4C4C4C4C4C4CBF
:102160004C4C4C4C4C4C4C4C4C4C4C4C4C4C4C4CAF
:102170007F7F7F7F7F969696969696969696969672
:1021800096969696969696969696969696969696EF
:1021900096969696969696969696969696969696DF
:1021A00096969696969696969696969696969696CF
:1021B00096969696969696969696969696969696BF
:1021C00096969696969696969696969696969696AF
:1021D000969696969696969696967F7F7F7F7F1D8B
:1021E0001D1D1D1D1D1D1D1D1D1D1D1D1D1D1D1D1F
:1021F0001D1D1D1D1D1D1D1D1D1D1D1D1D1D1D1D0F
:102200001D1D1D1D1D1D1D1D1D1D1D1D1D1D1D1DFE
:102210001D1D1D1D1D1D1D1D1D1D1D1D1D1D1D1DEE
:102220001D1D1D1D1D1D1D1D1D1D1D1D1D1D1D1DDE
:102230001D1D1D1D1D1D1D1D1D1D1D1D1D1D1D1DCE
:102240001D1D1D1D1D1D1D1D4C4C4C4C4C4C4C4C46
:102250004C4C4C4C4C4C4C4C4C4C4C4C4C4C4C4CBE
:102260004C4C4C4C4C4C4C4C4C4C4C4C4C4C4C4CAE
:102270004C4C4C4C4C4C4C4C4C4C4C4C4C4C4C4C9E
:102280004C4C4C4C4C4C4C4C4C4C4C4C4C4C4C4C8E
:102290004C4C4C4C4C4C4C4C4C4C4C4C4C4C4C4C7E
:1022A0004C4C4C4C4C4C4C4C4C4C4C4C4C4C4C4C6E
:1022B0007F7F7F7F7F969696969696969696969631
:1022C00096969696969696969696969696969696AE
:1022D000969696969696969696969696969696969E
:1022E000969696969696969696969696969696968E
:1022F000969696969696969696969696969696967E
:10230000969696969696969696969696969696966D
:10231000969696969696969696967F7F7F7F7F1D49
:102320001D1D1D1D1D1D1D1D1D1D1D1D1D1D1D1DDD
:102330001D1D1D1D1D1D1D1D1D1D1D1D1D1D1D1DCD
:102340001D1D1D1D1D1D1D1D1D1D1D1D1D1D1D1DBD
:102350001D1D1D1D1D1D1D1D1D1D1D1D1D1D1D1DAD
:102360001D1D1D1D1D1D1D1D1D1D1D1D1D1D1D1D9D
:102370001D1D1D1D1D1D1D1D1D1D1D1D1D1D1D1D8D
:102380001D1D1D1D1D1D1D1D4C4C4C4C4C4C4C4C05
:102390004C4C4C4C4C4C4C4C4C4C4C4C4C4C4C4C7D
:1023A0004C4C4C4C4C4C4C4C4C4C4C4C4C4C4C4C6D
:1023B0004C4C4C4C4C4C4C4C4C4C4C4C4C4C4C4C5D
:1023C0004C4C4C4C4C4C4C4C4C4C4C4C4C4C4C4C4D
:1023D0004C4C4C4C4C4C4C4C4C4C4C4C4C4C4C4C3D
:1023E0004C4C4C4C4C4C4C4C4C4C4C4C4C4C4C4C2D
:1023F0007F7F7F7F7F9696969696969696969696F0
:10240000969696969696969696969696969696966C
:10241000969696969696969696969696969696965C
:10242000969696969696969696969696969696964C
:10243000969696969696969696969696969696963C
:10244000969696969696969696969696969696962C
:10245000969696969696969696967F7F7F7F7F1D08
:102460001D1D1D1D1D1D1D1D1D1D1D1D1D1D1D1D9C
:102470001D1D1D1D1D1D1D1D1D1D1D1D1D1D1D1D8C
:102480001D1D1D1D1D1D1D1D1D1D1D1D1D1D1D1D7C
:102490001D1D1D1D1D1D1D1D1D1D1D1D1D1D1D1D6C
:1024A0001D1D1D1D1D1D1D1D1D1D1D1D1D1D1D1D5C
:1024B0001D1D1D1D1D1D1D1D1D1D1D1D1D1D1D1D4C
:1024C0001D1D1D1D1D1D1D1D4C4C4C4C4C4C4C4CC4
:1024D0004C4C4C4C4C4C4C4C4C4C4C4C4C4C4C4C3C
:1024E0004C4C4C4C4C4C4C4C4C4C4C4C4C4C4C4C2C
:1024F0004C4C4C4C4C4C4C4C4C4C4C4C4C4C4C4C1C
:102500004C4C4C4C4C4C4C4C4C4C4C4C4C4C4C4C0B
:102510004C4C4C4C4C4C4C4C4C4C4C4C4C4C4C4CFB
:102520004C4C4C4C4C4C4C4C4C4C4C4C4C4C4C4CEB
:102530007F7F7F7F7F9696969696969696969696AE
:10254000969696969696969696969696969696962B
:10255000969696969696969696969696969696961B
:10256000969696969696969696969696969696960B
:1025700096969696969696969696969696969696FB
:1025800096969696969696969696969696969696EB
:10259000969696969696969696967F7F7F7F7F1DC7
:1025A0001D1D1D1D1D1D1D1D1D1D1D1D1D1D1D1D5B
:1025B0001D1D1D1D1D1D1D1D1D1D1D1D1D1D1D1D4B
:1025C0001D1D1D1D1D1D1D1D1D1D1D1D1D1D1D1D3B
:1025D0001D1D1D1D1D1D1D1D1D1D1D1D1D1D1D1D2B
:1025E0001D1D1D1D1D1D1D1D1D1D1D1D1D1D1D1D1B
:1025F0001D1D1D1D1D1D1D1D1D1D1D1D1D1D1D1D0B
:102600001D1D1D1D1D1D1D1D4C4C4C4C4C4C4C4C82
:102610004C4C4C4C4C4C4C4C4C4C4C4C4C4C4C4CFA
:102620004C4C4C4C4C4C4C4C4C4C4C4C4C4C4C4CEA
:102630004C4C4C4C4C4C4C4C4C4C4C4C4C4C4C4CDA
:102640004C4C4C4C4C4C4C4C4C4C4C4C4C4C4C4CCA
:102650004C4C4C4C4C4C4C4C4C4C4C4C4C4C4C4CBA
:102660004C4C4C4C4C4C4C4C4C4C4C4C4C4C4C4CAA
:102670007F7F7F7F7F96969696969696969696966D
:1026800096969696969696969696969696969696EA
:1026900096969696969696969696969696969696DA
:1026A00096969696969696969696969696969696CA
:1026B00096969696969696969696969696969696BA
:1026C00096969696969696969696969696969696AA
:1026D000969696969696969696967F7F7F7F7F1D86
:1026E0001D1D1D1D1D1D1D1D1D1D1D1D1D1D1D1D1A
:1026F0001D1D1D1D1D1D1D1D1D1D1D1D1D1D1D1D0A
:102700001D1D1D1D1D1D1D1D1D1D1D1D1D1D1D1DF9
:102710001D1D1D1D1D1D1D1D1D1D1D1D1D1D1D1DE9
:102720001D1D1D1D1D1D1D1D1D1D1D1D1D1D1D1DD9
:102730001D1D1D1D1D1D1D1D1D1D1D1D1D1D1D1DC9
:102740001D1D1D1D1D1D1D1D4C4C4C4C4C4C4C4C41
:102750004C4C4C4C4C4C4C4C4C4C4C4C4C4C4C4CB9
:102760004C4C4C4C4C4C4C4C4C4C4C4C4C4C4C4CA9
:102770004C4C4C4C4C4C4C4C4C4C4C4C4C4C4C4C99
:102780004C4C4C4C4C4C4C4C4C4C4C4C4C4C4C4C89
:102790004C4C4C4C4C4C4C4C4C4C4C4C4C4C4C4C79
:1027A0004C4C4C4C4C4C4C4C4C4C4C4C4C4C4C4C69
:1027B0007F7F7F7F7F96969696969696969696962C
:1027C00096969696969696969696969696969696A9
:1027D0009696969696969696969696969696969699
:1027E0009696969696969696969696969696969689
:1027F0009696969696969696969696969696969679
:102800009696969696969696969696969696969668
:10281000969696969696969696967F7F7F7F7F1D44
:102820001D1D1D1D1D1D1D1D1D1D1D1D1D1D1D1DD8
:102830001D1D1D1D1D1D1D1D1D1D1D1D1D1D1D1DC8
:102840001D1D1D1D1D1D1D1D1D1D1D1D1D1D1D1DB8
:102850001D1D1D1D1D1D1D1D1D1D1D1D1D1D1D1DA8
:102860001D1D1D1D1D1D1D1D1D1D1D1D1D1D1D1D98
:102870001D1D1D1D1D1D1D1D1D1D1D1D1D1D1D1D88
:102880001D1D1D1D1D1D1D1D4C4C4C4C4C4C4C4C00
:102890004C4C4C4C4C4C4C4C4C4C4C4C4C4C4C4C78
:1028A0004C4C4C4C4C4C4C4C4C4C4C4C4C4C4C4C68
:1028B0004C4C4C4C4C4C4C4C4C4C4C4C4C4C4C4C58
:1028C0004C4C4C4C4C4C4C4C4C4C4C4C4C4C4C4C48
:1028D0004C4C4C4C4C4C4C4C4C4C4C4C4C4C4C4C38
:1028E0004C4C4C4C4C4C4C4C4C4C4C4C4C4C4C4C28
:1028F0007F7F7F7F7F9696969696969696969696EB
:102900009696969696969696969696969696969667
:102910009696969696969696969696969696969657
:102920009696969696969696969696969696969647
:102930009696969696969696969696969696969637
:102940009696969696969696969696969696969627
:10295000969696969696969696967F7F7F7F7F1D03
:102960001D1D1D1D1D1D1D1D1D1D1D1D1D1D1D1D97
:102970001D1D1D1D1D1D1D1D1D1D1D1D1D1D1D1D87
:102980001D1D1D1D1D1D1D1D1D1D1D1D1D1D1D1D77
:102990001D1D1D1D1D1D1D1D1D1D1D1D1D1D1D1D67
:1029A0001D1D1D1D1D1D1D1D1D1D1D1D1D1D1D1D57
:1029B0001D1D1D1D1D1D1D1D1D1D1D1D1D1D1D1D47
:1029C0001D1D1D1D1D1D1D1D4C4C4C4C4C4C4C4CBF
:1029D0004C4C4C4C4C4C4C4C4C4C4C4C4C4C4C4C37
:1029E0004C4C4C4C4C4C4C4C4C4C4C4C4C4C4C4C27
:1029F0004C4C4C4C4C4C4C4C4C4C4C4C4C4C4C4C17
:102A00004C4C4C4C4C4C4C4C4C4C4C4C4C4C4C4C06
:102A10004C4C4C4C4C4C4C4C4C4C4C4C4C4C4C4CF6
:102A20004C4C4C4C4C4C4C4C4C4C4C4C4C4C4C4CE6
:102A30007F7F7F7F7F9696969696969696969696A9
:102A40009696969696969696969696969696969626
:102A50009696969696969696969696969696969616
:102A60009696969696969696969696969696969606
:102A700096969696969696969696969696969696F6
:102A800096969696969696969696969696969696E6
:102A9000969696969696969696967F7F7F7F7F1DC2
:102AA0001D1D1D1D1D1D1D1D1D1D1D1D1D1D1D1D56
:102AB0001D1D1D1D1D1D1D1D1D1D1D1D1D1D1D1D46
:102AC0001D1D1D1D1D1D1D1D1D1D1D1D1D1D1D1D36
:102AD0001D1D1D1D1D1D1D1D1D1D1D1D1D1D1D1D26
:102AE0001D1D1D1D1D1D1D1D1D1D1D1D1D1D1D1D16
:102AF0001D1D1D1D1D1D1D1D1D1D1D1D1D1D1D1D06
:102B00001D1D1D1D1D1D1D1D4C4C4C4C4C4C4C4C7D
:102B10004C4C4C4C4C4C4C4C4C4C4C4C4C4C4C4CF5
:102B20004C4C4C4C4C4C4C4C4C4C4C4C4C4C4C4CE5
:102B30004C4C4C4C4C4C4C4C4C4C4C4C4C4C4C4CD5
:102B40004C4C4C4C4C4C4C4C4C4C4C4C4C4C4C4CC5
:102B50004C4C4C4C4C4C4C4C4C4C4C4C4C4C4C4CB5
:102B60004C4C4C4C4C4C4C4C4C4C4C4C4C4C4C4CA5
:102B70007F7F7F7F7F969696969696969696969668
:102B800096969696969696969696969696969696E5
:102B900096969696969696969696969696969696D5
:102BA00096969696969696969696969696969696C5
:102BB00096969696969696969696969696969696B5
:102BC00096969696969696969696969696969696A5
:102BD000969696969696969696967F7F7F7F7F1D81
:102BE0001D1D1D1D1D1D1D1D1D1D1D1D1D1D1D1D15
:102BF0001D1D1D1D1D1D1D1D1D1D1D1D1D1D1D1D05
:102C00001D1D1D1D1D1D1D1D1D1D1D1D1D1D1D1DF4
:102C10001D1D1D1D1D1D1D1D1D1D1D1D1D1D1D1DE4
:102C20001D1D1D1D1D1D1D1D1D1D1D1D1D1D1D1DD4
:102C30001D1D1D1D1D1D1D1D1D1D1D1D1D1D1D1DC4
:102C40001D1D1D1D1D1D1D1D4C4C4C4C4C4C4C4C3C
:102C50004C4C4C4C4C4C4C4C4C4C4C4C4C4C4C4CB4
:102C60004C4C4C4C4C4C4C4C4C4C4C4C4C4C4C4CA4
:102C70004C4C4C4C4C4C4C4C4C4C4C4C4C4C4C4C94
:102C80004C4C4C4C4C4C4C4C4C4C4C4C4C4C4C4C84
:102C90004C4C4C4C4C4C4C4C4C4C4C4C4C4C4C4C74
:102CA0004C4C4C4C4C4C4C4C4C4C4C4C4C4C4C4C64
:102CB0007F7F7F7F7F969696969696969696969627
:102CC00096969696969696969696969696969696A4
:102CD0009696969696969696969696969696969694
:102CE0009696969696969696969696969696969684
:102CF0009696969696969696969696969696969674
:102D00009696969696969696969696969696969663
:102D1000969696969696969696967F7F7F7F7F1D3F
:102D20001D1D1D1D1D1D1D1D1D1D1D1D1D1D1D1DD3
:102D30001D1D1D1D1D1D1D1D1D1D1D1D1D1D1D1DC3
:102D40001D1D1D1D1D1D1D1D1D1D1D1D1D1D1D1DB3
:102D50001D1D1D1D1D1D1D1D1D1D1D1D1D1D1D1DA3
:102D60001D1D1D1D1D1D1D1D1D1D1D1D1D1D1D1D93
:102D70001D1D1D1D1D1D1D1D1D1D1D1D1D1D1D1D83
:102D80001D1D1D1D1D1D1D1D80808080808080805B
:102D90008080808080808080808080808080808033
:102DA0008080808080808080808080808080808023
:102DB0008080808080808080808080808080808013
:102DC0008080808080808080808080808080808003
:103950008080808080808080808080808081808165
:10396000808180818081808180818081808180814F
:103970008081808180808080808080808080808045
:103980008080808080808080808080808080808037
:103990008080808080808080808080808080808027
:1039A0008080808080808080808080808080808017
:1039B0008080808080808080808080808080808007
:1039C00080808080808080808080808080808080F7
:1039D00080808080808080808080808080808080E7
:1039E00080808080808080808080808080808080D7
:1039F00080808080808080808080808080808080C7
:103A000080808080808080808080808080808080B6
:103A100080808080808080808080808080808080A6
:103A20008080808080808080808080808080808096
:103A30008080808080808080808080808080808086
:103A40008080808080808080808080808080808076
:103A50008080808080808080808080808080808066
:103A60008080808080808080808080808080808056
:103A70008080808080808080808080808080808046
:103A80008080808080808080808080808080808036
:103A90008080808080808080808180818081808122
:103AA000808180818081808180818081808180810E
:103AB0008081808180818081808180808080808001
:103AC00080808080808080808080808080808080F6
:103AD00080808080808080808080808080808080E6
:103AE00080808080808080808080808080808080D6
:103AF00080808080808080808080808080808080C6
:103B000080808080808080808080808080808080B5
:103B100080808080808080808080808080808080A5
:103B20008080808080808080808080808080808095
:103B30008080808080808080808080808080808085
:103B40008080808080808080808080808080808075
:103B50008080808080808080808080808080808065
:103B60008080808080808080808080808080808055
:103B70008080808080808080808080808080808045
:103B80008080808080808080808080808080808035
:103B90008080808080808080808080808080808025
:103BA0008080808080808080808080808080808015
:103BB0008080808080808080808080808080808005
:103BC00080808080808080808080808080808080F5
:103BD00080808080808180818081808180818081DF
:103BE00080818081808180818081808180818081CD
:103BF00080818081808180818081808180818081BD
:103C000080808080808080808080808080808080B4
:103C100080808080808080808080808080808080A4
:103C20008080808080808080808080808080808094
:103C30008080808080808080808080808080808084
:103C40008080808080808080808080808080808074
:103C50008080808080808080808080808080808064
:103C60008080808080808080808080808080808054
:103C70008080808080808080808080808080808044
:103C80008080808080808080808080808080808034
:103C90008080808080808080808080808080808024
:103CA0008080808080808080808080808080808014
:103CB0008080808080808080808080808080808004
:103CC00080808080808080808080808080808080F4
:103CD00080808080808080808080808080808080E4
:103CE00080808080808080808080808080808080D4
:103CF00080808080808080808080808080808080C4
:103D000080808080808080808080808080808080B3
:103D1000808180818081808180818081808180819B
:103D2000808180818081808180818081808180818B
:103D3000808180818081808180818081808180817B
:103D40008081808080808080808080808080808072
:103D50008080808080808080808080808080808063
:103D60008080808080808080808080808080808053
:103D70008080808080808080808080808080808043
:103D80008080808080808080808080808080808033
:103D90008080808080808080808080808080808023
:103DA0008080808080808080808080808080808013
:103DB0008080808080808080808080808080808003
:103DC00080808080808080808080808080808080F3
:103DD00080808080808080808080808080808080E3
:103DE00080808080808080808080808080808080D3
:103DF00080808080808080808080808080808080C3
:103E000080808080808080808080808080808080B2
:103E100080808080808080808080808080808080A2
:103E20008080808080808080808080808080808092
:103E30008080808080808080808080808080808082
:103E40008080808080808080808080808080808171
:103E5000808180818081808180818081808180815A
:103E6000808180818081808180818081808180814A
:103E7000808180818081808180818081808180813A
:103E80008081808180808080808080808080808030
:103E90008080808080808080808080808080808022
:103EA0008080808080808080808080808080808012
:103EB0008080808080808080808080808080808002
:103EC00080808080808080808080808080808080F2
:103ED00080808080808080808080808080808080E2
:103EE00080808080808080808080808080808080D2
:103EF00080808080808080808080808080808080C2
:103F000080808080808080808080808080808080B1
:103F100080808080808080808080808080808080A1
:103F20008080808080808080808080808080808091
:103F30008080808080808080808080808080808081
:103F40008080808080808080808080808080808071
:103F50008080808080808080808080808080808061
:103F60008080808080808080808080808080808051
:103F70008080808080808080808080808080808041
:103F8000808080808080808080808081808180812E
:103F9000808180818081808080818081808180811A
:103FA000808180818081808180818081808080810A
:103FB00080818081808180818081808180818081F9
:103FC00080818081808180808080808080808080EE
:103FD00080808080808080808080808080808080E1
:103FE00080808080808080808080808080808080D1
:103FF00080808080808080808080808080808080C1
:1040000080808080808080808080808080808080B0
:1040100080808080808080808080808080808080A0
:104020008080808080808080808080808080808090
:104030008080808080808080808080808080808080
:104040008080808080808080808080808080808070
:104050008080808080808080808080808080808060
:104060008080808080808080808080808080808050
:104070008080808080808080808080808080808040
:104080008080808080808080808080808080808030
:104090008080808080808080808080808080808020
:1040A0008080808080808080808080808080808010
:1040B0008080808080808080808080808080808000
:1040C00080808080808080808081808180818081EC
:1040D000808180817F8080818080808180818080DC
:1040E00080818080808080818081808180818081CA
:1040F00080818081808180818081808180818081B8
:1041000080818081808180818081808080808080AA
:10411000808080808080808080808080808080809F
:10412000808080808080808080808080808080808F
:10413000808080808080808080808080808080807F
:10414000808080808080808080808080808080806F
:10415000808080808080808080808080808080805F
:10416000808080808080808080808080808080804F
:10417000808080808080808080808080808080803F
:10418000808080808080808080808080808080802F
:10419000808080808080808080808080808080801F
:1041A000808080808080808080808080808080800F
:1041B00080808080808080808080808080808080FF
:1041C00080808080808080808080808080808080EF
:1041D00080808080808080808080808080808080DF
:1041E00080808080808080808080808080808080CF
:1041F00080808080808080808080808080808080BF
:1042000080808080808080818081808180818081A9
:104210008080808180818081808180808081808198
:104220008081808080818081808180818081808187
:104230008081808180818081808180818081808176
:104240008081808180828081808180818080808067
:10425000808080808080808080808080808080805E
:10426000808080808080808080808080808080804E
:10427000808080808080808080808080808080803E
:10428000808080808080808080808080808080802E
:10429000808080808080808080808080808080801E
:1042A000808080808080808080808080808080800E
:1042B00080808080808080808080808080808080FE
:1042C00080808080808080808080808080808080EE
:1042D00080808080808080808080808080808080DE
:1042E00080808080808080808080808080808080CE
:1042F00080808080808080808080808080808080BE
:1043000080808080808080808080808080808080AD
:10431000808080808080808080808080808080809D
:10432000808080808080808080808080808080808D
:10433000808080808080808080808080808080807D
:104340008080808080818081808180818081808068
:104350008081808180818081808080818080808058
:104360008081808180818080808180818081808146
:104370008081808180818081808180818081808135
:104380008081808280818081808280818080808025
:10439000808080808080808080808080808080801D
:1043A000808080808080808080808080808080800D
:1043B00080808080808080808080808080808080FD
:1043C00080808080808080808080808080808080ED
:1043D00080808080808080808080808080808080DD
:1043E00080808080808080808080808080808080CD
:1043F00080808080808080808080808080808080BD
:1044000080808080808080808080808080808080AC
:10441000808080808080808080808080808080809C
:10442000808080808080808080808080808080808C
:10443000808080808080808080808080808080807C
:10444000808080808080808080808080808080806C
:10445000808080808080808080808080808080805C
:10446000808080808080808080808080808080804C
:10447000808080808080808080808080808080803C
:104480008080808080818081808180818081808126
:104490008081808080818080808180808080808019
:1044A0008080808080808081808180818081808107
:1044B00080818081808180818081808180818081F4
:1044C00080818081808280818082808280818080E2
:1044D00080808080808080808080808080808080DC
:1044E00080808080808080808080808080808080CC
:1044F00080808080808080808080808080808080BC
:1045000080808080808080808080808080808080AB
:10451000808080808080808080808080808080809B
:10452000808080808080808080808080808080808B
:10453000808080808080808080808080808080807B
:10454000808080808080808080808080808080806B
:10455000808080808080808080808080808080805B
:10456000808080808080808080808080808080804B
:10457000808080808080808080808080808080803B
:10458000808080808080808080808080808080802B
:10459000808080808080808080808080808080801B
:1045A000808080808080808080808080808080800B
:1045B00080808080808080808080808080808080FB
:1045C00080808081808180818081808180818081E4
:1045D00080818081808180808081808080808080D7
:1045E00080818080808180808081808180808080C7
:1045F00080808081808180818081808180818081B4
:1046000080828081808180818081808280818081A0
:10461000808080808080808080808080808080809A
:10462000808080808080808080808080808080808A
:10463000808080808080808080808080808080807A
:10464000808080808080808080808080808080806A
:10465000808080808080808080808080808080805A
:10466000808080808080808080808080808080804A
:10467000808080808080808080808080808080803A
:10468000808080808080808080808080808080802A
:10469000808080808080808080808080808080801A
:1046A000808080808080808080808080808080800A
:1046B00080808080808080808080808080808080FA
:1046C00080808080808080808080808080808080EA
:1046D00080808080808080808080808080808080DA
:1046E00080808080808080808080808080808080CA
:1046F00080808080808080808080808080808080BA
:1047000080808081808180818081808180818081A2
:104710008080808180818080808080808080808097
:104720008080808180808080808080818081808185
:104730008081808080808081808180818081808173
:104740008081808180818081808180828081808160
:104750008080808080808080808080808080808059
:104760008080808080808080808080808080808049
:104770008080808080808080808080808080808039
:104780008080808080808080808080808080808029
:104790008080808080808080808080808080808019
:1047A0008080808080808080808080808080808009
:1047B00080808080808080808080808080808080F9
:1047C00080808080808080808080808080808080E9
:1047D00080808080808080808080808080808080D9
:1047E00080808080808080808080808080808080C9
:1047F00080808080808080808080808080808080B9
:1048000080808080808080808080808080808080A8
:104810008080808080808080808080808080808098
:104820008080808080808080808080808080808088
:104830008080808080808080808080808080808078
:104840008081808180818081808180818080808062
:104850008081808080808080808080808080808057
:104860008080808080808080808080808081808047
:104870008081808180818081808180818081808130
:104880008081808180818081808180818081808120
:104890008081808080808080808080808080808017
:1048A0008080808080808080808080808080808008
:1048B00080808080808080808080808080808080F8
:1048C00080808080808080808080808080808080E8
:1048D00080808080808080808080808080808080D8
:1048E00080808080808080808080808080808080C8
:1048F00080808080808080808080808080808080B8
:1049000080808080808080808080808080808080A7
:104910008080808080808080808080808080808097
:104920008080808080808080808080808080808087
:104930008080808080808080808080808080808077
:104940008080808080808080808080808080808067
:104950008080808080808080808080808080808057
:104960008080808080808080808080808080808047
:104970008080808080808080808080808080808136
:104980008081808180818081808180818080808021
:104990008080808080818080808080808080808016
:1049A0008080808080808080808180808080808105
:1049B00080818081808180818081808180818081EF
:1049C00080818081808180818082808280818082DC
:1049D00080818080808080808080808080808080D6
:1049E00080808080808080808080808080808080C7
:1049F00080808080808080808080808080808080B7
:104A000080808080808080808080808080808080A6
:104A10008080808080808080808080808080808096
:104A20008080808080808080808080808080808086
:104A30008080808080808080808080808080808076
:104A40008080808080808080808080808080808066
:104A50008080808080808080808080808080808056
:104A60008080808080808080808080808080808046
:104A70008080808080808080808080808080808036
:104A80008080808080808080808080808080808026
:104A90008080808080808080808080808080808016
:104AA0008080808080808080808080808080808006
:104AB00080808080808080808080808080808081F5
:104AC00080818081808180818081808180808080E0
:104AD00080818080808080808080808080808080D5
:104AE00080808080808180818080808180808081C2
:104AF00080818081808180818081808180818081AE
:104B0000808180818081808180818081808280829B
:104B10008081808180808080808080808080808093
:104B20008080808080808080808080808080808085
:104B30008080808080808080808080808080808075
:104B40008080808080808080808080808080808065
:104B50008080808080808080808080808080808055
:104B60008080808080808080808080808080808045
:104B70008080808080808080808080808080808035
:104B80008080808080808080808080808080808025
:104B90008080808080808080808080808080808015
:104BA0008080808080808080808080808080808005
:104BB00080808080808080808080808080808080F5
:104BC00080808080808080808080808080808080E5
:104BD00080808080808080808080808080808080D5
:104BE00080808080808080808080808080808080C5
:104BF00080808080808080808080808080818081B3
:104C0000808180818081808080818081808080819E
:104C10008080808080818080808080808080808093
:104C20008080808080808080808180818080808082
:104C3000808080818081808180818081808180816D
:104C4000808180818081808180818081808280825A
:104C50008081808180808080808080808080808052
:104C60008080808080808080808080808080808044
:104C70008080808080808080808080808080808034
:104C80008080808080808080808080808080808024
:104C90008080808080808080808080808080808014
:104CA0008080808080808080808080808080808004
:104CB00080808080808080808080808080808080F4
:104CC00080808080808080808080808080808080E4
:104CD00080808080808080808080808080808080D4
:104CE00080808080808080808080808080808080C4
:104CF00080808080808080808080808080808080B4
:104D000080808080808080808080808080808080A3
:104D10008080808080808080808080808080808093
:104D20008080808080808080808080808080808083
:104D30008080808080808080808080808081808171
:104D40008081808180818081808080818080668375
:104D5000668466807F808080808080808080808084
:104D60008080808080808080808080818081808041
:104D7000808180818081808180818081808180812B
:104D80008081808180818081808180828081808219
:104D90008082808180808080808080808080808010
:104DA0008080808080808080808080808080808003
:104DB00080808080808080808080808080808080F3
:104DC00080808080808080808080808080808080E3
:104DD00080808080808080808080808080808080D3
:104DE00080808080808080808080808080808080C3
:104DF00080808080808080808080808080808080B3
:104E000080808080808080808080808080808080A2
:104E10008080808080808080808080808080808092
:104E20008080808080808080808080808080808082
:104E30008080808080808080808080808080808072
:104E40008080808080808080808080808080808062
:104E50008080808080808080808080808080808052
:104E60008080808080808080808080808080808042
:104E7000808080808080808080808080808180822F
:104E80008081808180818081808180817580407E69
:104E9000487D4484478381808080808080808080BA
:104EA0008080808080808080808180808080808100
:104EB00080818081808180818081808180818081EA
:104EC00080818081808180828081808280828082D6
:104ED00080828081808080808080808080808080CF
:104EE00080808080808080808080808080808080C2
:104EF00080808080808080808080808080808080B2
:104F000080808080808080808080808080808080A1
:104F10008080808080808080808080808080808091
:104F20008080808080808080808080808080808081
:104F30008080808080808080808080808080808071
:104F40008080808080808080808080808080808061
:104F50008080808080808080808080808080808051
:104F60008080808080808080808080808080808041
:104F70008080808080808080808080808080808031
:104F80008080808080808080808080808080808021
:104F90008080808080808080808080808080808011
:104FA0008080808080808080808080808080808001
:104FB00080808080808080808080808080818081EF
:104FC000808180818080817E817D817E817E817FE4
:104FD000747F607D5C7D8081808080808080808027
:104FE00080808080808080818080808180818081BD
:104FF00080808081808180818081808180818081AA
:105000008081808180818081808180818082808296
:10501000808280818081808080808080808080808C
:105020008080808080808080808080808080808080
:105030008080808080808080808080808080808070
:105040008080808080808080808080808080808060
:105050008080808080808080808080808080808050
:105060008080808080808080808080808080808040
:105070008080808080808080808080808080808030
:105080008080808080808080808080808080808020
:105090008080808080808080808080808080808010
:1050A0008080808080808080808080808080808000
:1050B00080808080808080808080808080808080F0
:1050C00080808080808080808080808080808080E0
:1050D00080808080808080808080808080808080D0
:1050E00080808080808080808080808080808080C0
:1050F00080808080808080808080808080818081AE
:105100008081817F817D817D827D817D817E817EA7
:105110008180808181818081808180818080808088
:10512000808080808081808180818080808080817B
:105130008081808180818081808180818081808167
:105140008081808180818081808180828082808254
:10515000808280818081808080808080808080804B
:10516000808080808080808080808080808080803F
:10517000808080808080808080808080808080802F
:10518000808080808080808080808080808080801F
:10519000808080808080808080808080808080800F
:1051A00080808080808080808080808080808080FF
:1051B00080808080808080808080808080808080EF
:1051C00080808080808080808080808080808080DF
:1051D00080808080808080808080808080808080CF
:1051E00080808080808080808080808080808080BF
:1051F00080808080808080808080808080808080AF
:10520000808080808080808080808080808080809E
:10521000808080808080808080808080808080808E
:10522000808080808080808080808080808080807E
:10523000808080808080808080808081808180816B
:10524000817F817E817D817D817D827D817E817F67
:10525000818080808080808180818080808080814A
:10526000808080808080808180808081808180813A
:105270008081808180818081808180818081808225
:105280008081808180818081808180818082808214
:10529000808280818081808080808080808080800A
:1052A00080808080808080808080808080808080FE
:1052B00080808080808080808080808080808080EE
:1052C00080808080808080808080808080808080DE
:1052D00080808080808080808080808080808080CE
:1052E00080808080808080808080808080808080BE
:1052F00080808080808080808080808080808080AE
:10530000808080808080808080808080808080809D
:10531000808080808080808080808080808080808D
:10532000808080808080808080808080808080807D
:10533000808080808080808080808080808080806D
:10534000808080808080808080808080808080805D
:10535000808080808080808080808080808080804D
:10536000808080808080808080808080808080803D
:10537000808080808080808080808081808180802B
:10538000817F817E817E817D817D827D817E817F25
:10539000808080808080808080808080808080800D
:1053A00080818081808180808080808080818081F8
:1053B00080818081808180818081808180818081E5
:1053C00080818082808180818081808180828082D2
:1053D0007F828082808180808080808080808080C9
:1053E00080808080808080808080808080808080BD
:1053F00080808080808080808080808080808080AD
:10540000808080808080808080808080808080809C
:10541000808080808080808080808080808080808C
:10542000808080808080808080808080808080807C
:10543000808080808080808080808080808080806C
:10544000808080808080808080808080808080805C
:10545000808080808080808080808080808080804C
:10546000808080808080808080808080808080803C
:10547000808080808080808080808080808080802C
:10548000808080808080808080808080808080801C
:10549000808080808080808080808080808080800C
:1054A00080808080808080808080808080808080FC
:1054B0008080808080808080808080818081807FEB
:1054C000807F817E817E817E817E817D817D817FE5
:1054D0008080808080808080817F818080808080CB
:1054E00080818081808080818080808180818081B6
:1054F00080818081808080818081808180818081A5
:105500008081808180818081808180828082808290
:105510008082808280818080808080808080808086
:10552000808080808080808080808080808080807B
:10553000808080808080808080808080808080806B
:10554000808080808080808080808080808080805B
:10555000808080808080808080808080808080804B
:10556000808080808080808080808080808080803B
:10557000808080808080808080808080808080802B
:10558000808080808080808080808080808080801B
:10559000808080808080808080808080808080800B
:1055A00080808080808080808080808080808080FB
:1055B00080808080808080808080808080808080EB
:1055C00080808080808080808080808080808080DB
:1055D00080808080808080808080808080808080CB
:1055E00080808080808080808080808080808080BB
:1055F00080808080808080808080808180818080A9
:10560000817F80808080848186828581858182807F
:10561000808080808080817F817F817F817F818089
:105620008081808080818081808180818081808173
:105630008081808180818081808180818081808162
:105640008081808180818081808280818081808250
:105650008082808180818080808080808080808046
:10566000808080808080808080808080808080803A
:10567000808080808080808080808080808080802A
:10568000808080808080808080808080808080801A
:10569000808080808080808080808080808080800A
:1056A00080808080808080808080808080808080FA
:1056B00080808080808080808080808080808080EA
:1056C00080808080808080808080808080808080DA
:1056D00080808080808080808080808080808080CA
:1056E00080808080808080808080808080808080BA
:1056F00080808080808080808080808080808080AA
:105700008080808080808080808080808080808099
:105710008080808080808080808080808080808089
:105720008080808080808080808080808080808079
:105730008080808080808080808080818080807F69
:10574000808080808481898385818782868186812B
:105750008481817F817F817E817F817F817F818044
:105760008080808180808081808180808081808134
:105770008081808180818081808180818081808121
:105780008081808180818081808180818082808110
:105790008082808180818080808080808080808005
:1057A00080808080808080808080808080808080F9
:1057B00080808080808080808080808080808080E9
:1057C00080808080808080808080808080808080D9
:1057D00080808080808080808080808080808080C9
:1057E00080808080808080808080808080808080B9
:1057F00080808080808080808080808080808080A9
:105800008080808080808080808080808080808098
:105810008080808080808080808080808080808088
:105820008080808080808080808080808080808078
:105830008080808080808080808080808080808068
:105840008080808080808080808080808080808058
:105850008080808080808080808080808080808048
:105860008080808080808080808080808080808038
:105870008080808080808080808080808080808127
:10588000808080808882878289828B828B838882D5
:1058900086818381817E817D817E817E817F818001
:1058A00080808081808080818081808180818081F2
:1058B00080818081808180818081808180818081E0
:1058C00080818082808180818081808180828082CD
:1058D00080828081808180808080808080808080C4
:1058E00080808080808080808080808080808080B8
:1058F00080808080808080808080808080808080A8
:105900008080808080808080808080808080808097
:105910008080808080808080808080808080808087
:105920008080808080808080808080808080808077
:105930008080808080808080808080808080808067
:105940008080808080808080808080808080808057
:105950008080808080808080808080808080808047
:105960008080808080808080808080808080808037
:105970008080808080808080808080808080808027
:105980008080808080808080808080808080808017
:105990008080808080808080808080808080808007
:1059A00080808080808080808080808080808080F7
:1059B00080808080808080808080808080808080E7
:1059C00080808281868288828B838D838D838A8288
:1059D000878285828280817D817E817F817F8180B7
:1059E00080808081808180818081808180818080B1
:1059F000808180818081808180818081808180819F
:105A0000808180818081808180818081808280828C
:105A10008081808180818080808080808080808083
:105A20008080808080808080808080808080808076
:105A30008080808080808080808080808080808066
:105A40008080808080808080808080808080808056
:105A50008080808080808080808080808080808046
:105A60008080808080808080808080808080808036
:105A70008080808080808080808080808080808026
:105A80008080808080808080808080808080808016
:105A90008080808080808080808080808080808006
:105AA00080808080808080808080808080808080F6
:105AB00080808080808080808080808080808080E6
:105AC00080808080808080808080808080808080D6
:105AD00080808080808080808080808080808080C6
:105AE00080808080808080808080808080808080B6
:105AF00080808080808080808080808080808080A6
:105B000080808481878289828B838D838C838A8243
:105B1000878284818382827F817E817E8180808072
:105B2000808180818081808180818081808180816D
:105B3000808180818081808180818081808280815C
:105B40008081808280818081808280828082808248
:105B50008082808180818080808080808080808041
:105B60008080808080808080808080808080808035
:105B70008080808080808080808080808080808025
:105B80008080808080808080808080808080808015
:105B90008080808080808080808080808080808005
:105BA00080808080808080808080808080808080F5
:105BB00080808080808080808080808080808080E5
:105BC00080808080808080808080808080808080D5
:105BD00080808080808080808080808080808080C5
:105BE00080808080808080808080808080808080B5
:105BF00080808080808080808080808080808080A5
:105C00008080808080808080808080808080808094
:105C10008080808080808080808080808080808084
:105C20008080808080808080808080808080808074
:105C3000808080808080808080808080807F808065
:105C40008080838187828A828A828B838B83898208
:105C50008681858184818280807F807F8081808031
:105C6000808180818081808180818081808180812C
:105C7000808180818081808180818081808180811C
:105C80008081808180818081808180828082808308
:105C90008081808180808080808080808080808002
:105CA00080808080808080808080808080808080F4
:105CB00080808080808080808080808080808080E4
:105CC00080808080808080808080808080808080D4
:105CD00080808080808080808080808080808080C4
:105CE00080808080808080808080808080808080B4
:105CF00080808080808080808080808080808080A4
:105D00008080808080808080808080808080808093
:105D10008080808080808080808080808080808083
:105D20008080808080808080808080808080808073
:105D30008080808080808080808080808080808063
:105D40008080808080808080808080808080808053
:105D50008080808080808080808080808080808043
:105D60008080808080808080808080808080808033
:105D7000808080808080808080808080817F808023
:105D80008080828187828A828882898288828781D4
:105D90008781868185818381817F808080818080E9
:105DA00080818081808180818081808180818081EB
:105DB00080818081808180818081808180818081DB
:105DC00080818081808180828082808280828081C7
:105DD00080818081808080808080808080808080C1
:105DE00080808080808080808080808080808080B3
:105DF00080808080808080808080808080808080A3
:105E00008080808080808080808080808080808092
:105E10008080808080808080808080808080808082
:105E20008080808080808080808080808080808072
:105E30008080808080808080808080808080808062
:105E40008080808080808080808080808080808052
:105E50008080808080808080808080808080808042
:105E60008080808080808080808080808080808032
:105E70008080808080808080808080808080808022
:105E80008080808080808080808080808080808012
:105E90008080808080808080808080808080808002
:105EA00080808080808080808080808080808080F2
:105EB000808080808080808080808080807F807FE4
:105EC000808080808682888288828781888288829A
:105ED00087828681858184828180808180818081A2
:105EE00080818081808180818081808180828081A9
:105EF000808180818081808180818081808180819A
:105F00008081808180818081808280828082808285
:105F10008081808080808080808080808080808080
:105F20008080808080808080808080808080808071
:105F30008080808080808080808080808080808061
:105F40008080808080808080808080808080808051
:105F50008080808080808080808080808080808041
:105F60008080808080808080808080808080808031
:105F70008080808080808080808080808080808021
:105F80008080808080808080808080808080808011
:105F90008080808080808080808080808080808001
:105FA00080808080808080808080808080808080F1
:105FB00080808080808080808080808080808080E1
:105FC00080808080808080808080808080808080D1
:105FD00080808080808080808080808080808080C1
:105FE00080808080808080808080808080808080B1
:105FF0008080808080808080808080808080817FA1
:1060000080808080838187828B8388828882888257
:106010008782868184818382818180818081808161
:106020008081808180818081808180828081808167
:106030008081808180818081808180818081808158
:106040008081808180818082808280828082808144
:10605000808180808080808080808080808080803F
:106060008080808080808080808080808080808030
:106070008080808080808080808080808080808020
:106080008080808080808080808080808080808010
:106090008080808080808080808080808080808000
:1060A00080808080808080808080808080808080F0
:1060B00080808080808080808080808080808080E0
:1060C00080808080808080808080808080808080D0
:1060D00080808080808080808080808080808080C0
:1060E00080808080808080808080808080808080B0
:1060F00080808080808080808080808080808080A0
:10610000808080808080808080808080808080808F
:10611000808080808080808080808080808080807F
:10612000808080808080808080808080808080806F
:106130008080808080808080808080808080817E60
:10614000807F80808180868289828A83888287821C
:106150008681858184818282818080818081808224
:106160008082808180828081808180828081808124
:106170008081808180818082808180818082808115
:106180008081808180828082808280828081808103
:1061900080818080808080808080808080808080FE
:1061A00080808080808080808080808080808080EF
:1061B00080808080808080808080808080808080DF
:1061C00080808080808080808080808080808080CF
:1061D00080808080808080808080808080808080BF
:1061E00080808080808080808080808080808080AF
:1061F000808080808080808080808080808080809F
:10620000808080808080808080808080808080808E
:10621000808080808080808080808080808080807E
:10622000808080808080808080808080808080806E
:10623000808080808080808080808080808080805E
:10624000808080808080808080808080808080804E
:10625000808080808080808080808080808080803E
:10626000808080808080808080808080808080802E
:10627000808080808080808080808080808080801E
:10628000817F8080808082818782888289828681E6
:106290008581848182818281818080817F818081EA
:1062A00080828082808280818081808180818081E3
:1062B00080818081808180818081808180818081D6
:1062C0007F818082808280828082808180818081C3
:1062D00080808080808080808080808080808080BE
:1062E00080808080808080808080808080808080AE
:1062F000808080808080808080808080808080809E
:10630000808080808080808080808080808080808D
:10631000808080808080808080808080808080807D
:10632000808080808080808080808080808080806D
:10633000808080808080808080808080808080805D
:10634000808080808080808080808080808080804D
:10635000808080808080808080808080808080803D
:10636000808080808080808080808080808080802D
:10637000808080808080808080808080808080801D
:10638000808080808080808080808080808080800D
:1063900080808080808080808080808080808080FD
:1063A00080808080808080808080808080808080ED
:1063B00080808080808080808080808080808080DD
:1063C000817F807F808080808181858286828682B5
:1063D00084818381828182808080808180818081AC
:1063E00080828082808280818081808180818081A2
:1063F0008081808180818081808180818082808194
:106400008082808280828082808280818081808080
:10641000808080808080808080808080808080807C
:10642000808080808080808080808080808080806C
:10643000808080808080808080808080808080805C
:10644000808080808080808080808080808080804C
:10645000808080808080808080808080808080803C
:10646000808080808080808080808080808080802C
:10647000808080808080808080808080808080801C
:10648000808080808080808080808080808080800C
:1064900080808080808080808080808080808080FC
:1064A00080808080808080808080808080808080EC
:1064B00080808080808080808080808080808080DC
:1064C00080808080808080808080808080808080CC
:1064D00080808080808080808080808080808080BC
:1064E00080808080808080808080808080808080AC
:1064F000808080808080808080808080808080809C
:106500008080818080808080808080808281848281
:10651000838183818281818080808080808180816D
:106520008081808280818081808180818081808162
:106530008081808180818081808180818081808252
:106540008082808280828082808180818081808040
:10655000808080808080808080808080808080803B
:10656000808080808080808080808080808080802B
:10657000808080808080808080808080808080801B
:10658000808080808080808080808080808080800B
:1065900080808080808080808080808080808080FB
:1065A00080808080808080808080808080808080EB
:1065B00080808080808080808080808080808080DB
:1065C00080808080808080808080808080808080CB
:1065D00080808080808080808080808080808080BB
:1065E00080808080808080808080808080808080AB
:1065F000808080808080808080808080808080809B
:10660000808080808080808080808080808080808A
:10661000808080808080808080808080808080807A
:10662000808080808080808080808080808080806A
:10663000808080808080808080808080808080805A
:10664000808080808080808080808080808080804A
:10665000808180818180817F818081818081808231
:106660008081808180818081808180828081808220
:10667000808180818081808180818081808280830F
:106680008082808280838081808180808080808001
:1066900080808080808080808080808080808080FA
:1066A00080808080808080808080808080808080EA
:1066B00080808080808080808080808080808080DA
:1066C00080808080808080808080808080808080CA
:1066D00080808080808080808080808080808080BA
:1066E00080808080808080808080808080808080AA
:1066F000808080808080808080808080808080809A
:106700008080808080808080808080808080808089
:106710008080808080808080808080808080808079
:106720008080808080808080808080808080808069
:106730008080808080808080808080808080808059
:106740008080808080808080808080808080808049
:106750008080808080808080808080808080808039
:106760008080808080808080808080808080808029
:106770008080808080808080808080808080808019
:106780008080808080818081808080808080808007
:10679000807F8180817F817F8180808080818081F6
:1067A00080818081808180828081808180818081E0
:1067B00080818081808180828081808280828082CD
:1067C00080828083808180818081808080808080C1
:1067D00080808080808080808080808080808080B9
:1067E00080808080808080808080808080808080A9
:1067F0008080808080808080808080808080808099
:106800008080808080808080808080808080808088
:106810008080808080808080808080808080808078
:106820008080808080808080808080808080808068
:106830008080808080808080808080808080808058
:106840008080808080808080808080808080808048
:106850008080808080808080808080808080808038
:106860008080808080808080808080808080808028
:106870008080808080808080808080808080808018
:106880008080808080808080808080808080808008
:1068900080808080808080808080808080808080F8
:1068A00080808080808080808080808080808080E8
:1068B00080808080808080808080808080808080D8
:1068C0008080808080808080808180808080807FC8
:1068D000817F817F817F80808080808180818081B5
:1068E000808180818082808180818081808180819F
:1068F000808180818082808280818082808280828B
:106900008082808180818081808080808080808082
:106910008080808080808080808080808080808077
:106920008080808080808080808080808080808067
:106930008080808080808080808080808080808057
:106940008080808080808080808080808080808047
:106950008080808080808080808080808080808037
:106960008080808080808080808080808080808027
:106970008080808080808080808080808080808017
:106980008080808080808080808080808080808007
:1069900080808080808080808080808080808080F7
:1069A00080808080808080808080808080808080E7
:1069B00080808080808080808080808080808080D7
:1069C00080808080808080808080808080808080C7
:1069D00080808080808080808080808080808080B7
:1069E00080808080808080808080808080808080A7
:1069F0008080808080808080808080808080808097
:106A00008080808080808080808080818081808084
:106A1000807F818081808080808180818081808171
:106A2000808180818081808180818081808280825C
:106A30008082808280828082808280828082808246
:106A40008082808180818080808080808080808042
:106A50008080808080808080808080808080808036
:106A60008080808080808080808080808080808026
:106A70008080808080808080808080808080808016
:106A80008080808080808080808080808080808006
:106A900080808080808080808080808080808080F6
:106AA00080808080808080808080808080808080E6
:106AB00080808080808080808080808080808080D6
:106AC00080808080808080808080808080808080C6
:106AD00080808080808080808080808080808080B6
:106AE00080808080808080808080808080808080A6
:106AF0008080808080808080808080808080808096
:106B00008080808080808080808080808080808085
:106B10008080808080808080808080808080808075
:106B20008080808080808080808080808080808065
:106B30008080808080808080808080808080808055
:106B40008080808080808080808080808081808143
:106B5000808180818081808180818082808280822A
:106B60008082808280818082808280828082808216
:106B70008082808280828082808380828081808106
:106B80008081808180808080808080808080808003
:106B900080808080808080808080808080808080F5
:106BA00080808080808080808080808080808080E5
:106BB00080808080808080808080808080808080D5
:106BC00080808080808080808080808080808080C5
:106BD00080808080808080808080808080808080B5
:106BE00080808080808080808080808080808080A5
:106BF0008080808080808080808080808080808095
:106C00008080808080808080808080808080808084
:106C10008080808080808080808080808080808074
:106C20008080808080808080808080808080808064
:106C30008080808080808080808080808080808054
:106C40008080808080808080808080808080808044
:106C50008080808080808080808080808080808034
:106C60008080808080808080808080808080808024
:106C70008080808080808080808080808080808014
:106C80008080808080808080808080808080808103
:106C900080818081808180828082808280828082E7
:106CA00080828082808280828082808280838082D3
:106CB00080828082808280838082808180818081C6
:106CC00080818081808080808080808080808080C2
:106CD00080808080808080808080808080808080B4
:106CE00080808080808080808080808080808080A4
:106CF0008080808080808080808080808080808094
:106D00008080808080808080808080808080808083
:106D10008080808080808080808080808080808073
:106D20008080808080808080808080808080808063
:106D30008080808080808080808080808080808053
:106D40008080808080808080808080808080808043
:106D50008080808080808080808080808080808033
:106D60008080808080808080808080808080808023
:106D70008080808080808080808080808080808013
:106D80008080808080808080808080808080808003
:106D900080808080808080808080808080808080F3
:106DA00080808080808080808080808080808080E3
:106DB00080808080808080808080808080808080D3
:106DC00080808080808080808080808080808080C3
:106DD00080808080808180818081808180828082AB
:106DE0008082808280838082808280828082808292
:106DF000808280818081808280818081808180808A
:106E00008080808080818080808080808080808081
:106E10008080808080808080808080808080808072
:106E20008080808080808080808080808080808062
:106E30008080808080808080808080808080808052
:106E40008080808080808080808080808080808042
:106E50008080808080808080808080808080808032
:106E60008080808080808080808080808080808022
:106E70008080808080808080808080808080808012
:106E80008080808080808080808080808080808002
:106E900080808080808080808080808080808080F2
:106EA00080808080808080808080808080808080E2
:106EB00080808080808080808080808080808080D2
:106EC00080808080808080808080808080808080C2
:106ED00080808080808080808080808080808080B2
:106EE00080808080808080808080808080808080A2
:106EF0008080808080808080808080808080808092
:106F00008080808080808080808080818080808080
:106F1000808080808080808180818081808180816C
:106F20008082808180828082808180828081808155
:106F3000808180818081808180808080808080804D
:106F4000808180808081808180808080808080803E
:106F50008080808080808080808080808080808031
:106F60008080808080808080808080808080808021
:106F70008080808080808080808080808080808011
:106F80008080808080808080808080808080808001
:106F900080808080808080808080808080808080F1
:106FA00080808080808080808080808080808080E1
:106FB00080808080808080808080808080808080D1
:106FC00080808080808080808080808080808080C1
:106FD00080808080808080808080808080808080B1
:106FE00080808080808080808080808080808080A1
:106FF0008080808080808080808080808080808091
:107000008080808080808080808080808080808080
:107010008080808080808080808080808080808070
:107020008080808080808080808080808080808060
:107030008080808080808080808080808080808050
:107040008080808080808080808080808080808040
:10705000808080808080808080808080808080812F
:107060008080808180818081808180818081808119
:10707000808180808080808080808080808080800F
:1070800080808080808080818080808080808080FF
:1070900080808080808080808080808080808080F0
:1070A00080808080808080808080808080808080E0
:1070B00080808080808080808080808080808080D0
:1070C00080808080808080808080808080808080C0
:1070D00080808080808080808080808080808080B0
:1070E00080808080808080808080808080808080A0
:1070F0008080808080808080808080808080808090
:10710000808080808080808080808080808080807F
:10711000808080808080808080808080808080806F
:10712000808080808080808080808080808080805F
:10713000808080808080808080808080808080804F
:10714000808080808080808080808080808080803F
:10715000808080808080808080808080808080802F
:10716000808080808080808080808080808080801F
:10717000808080808080808080808080808080800F
:1071800080808080808080808080808080808080FF
:1071900080808080808080808080808080808080EF
:1071A00080808080808080808080808080808080DF
:1071B00080808080808080808080808080808080CF
:1071C00080808080808180808081808080808080BD
:1071D00080808080808080808080808080808080AF
:1071E000808080808080808080808080808080809F
:1071F000808080808080808080808080808080808F
:10720000808080808080808080808080808080807E
:10721000808080808080808080808080808080806E
:10722000808080808080808080808080808080805E
:10723000808080808080808080808080808080804E
:10724000808080808080808080808080808080803E
:10725000808080808080808080808080808080802E
:10726000808080808080808080808080808080801E
:10727000808080808080808080808080808080800E
:1072800080808080808080808080808080808080FE
:1072900080808080808080808080808080808080EE
:1072A00080808080808080808080808080808080DE
:1072B00080808080808080808080808080808080CE
:1072C00080808080808080808080808080808080BE
:1072D00080808080808080808080808080808080AE
:1072E000808080808080808080808080808080809E
:1072F000808080808080808080808080808080808E
:10730000808080808081808180818080808080807A
:10731000808080808080808080808080808080806D
:10732000808080808080808080808080808080805D
:10733000808080808080808080808080808080804D
:10734000808080808080808080808080808080803D
:10735000808080808080808080808080808080802D
:10736000808080808080808080808080808080801D
:10737000808080808080808080808080808080800D
:1073800080808080808080808080808080808080FD
:1073900080808080808080808080808080808080ED
:1073A00080808080808080808080808080808080DD
:1073B00080808080808080808080808080808080CD
:1073C00080808080808080808080808080808080BD
:1073D00080808080808080808080808080808080AD
:1073E000808080808080808080808080808080809D
:1073F000808080808080808080808080808080808D
:10740000808080808080808080808080808080807C
:10741000808080808080808080808080808080806C
:10742000808080808080808080808080808080805C
:10743000808080808080808080808080808080804C
:107440008080808080808081808180818080808039
:10745000808080808080808080808080808080802C
:10746000808080808080808080808080808080801C
:10747000808080808080808080808080808080800C
:1074800080808080808080808080808080808080FC
:1074900080808080808080808080808080808080EC
:1074A00080808080808080808080808080808080DC
:1074B00080808080808080808080808080808080CC
:1074C00080808080808080808080808080808080BC
:1074D00080808080808080808080808080808080AC
:1074E000808080808080808080808080808080809C
:1074F000808080808080808080808080808080808C
:10750000808080808080808080808080808080807B
:10751000808080808080808080808080808080806B
:10752000808080808080808080808080808080805B
:10753000808080808080808080808080808080804B
:10754000808080808080808080808080808080803B
:10755000808080808080808080808080808080802B
:10756000808080808080808080808080808080801B
:10757000808080808080808080808080808080800B
:1075800080808080808080808081808180808080F9
:1075900080808080808080808080808080808080EB
:1075A00080808080808080808080808080808080DB
:1075B00080808080808080808080808080808080CB
:1075C00080808080808080808080808080808080BB
:1075D00080808080808080808080808080808080AB
:1075E000808080808080808080808080808080809B
:1075F000808080808080808080808080808080808B
:10760000808080808080808080808080808080807A
:10761000808080808080808080808080808080806A
:10762000808080808080808080808080808080805A
:10763000808080808080808080808080808080804A
:10764000808080808080808080808080808080803A
:10765000808080808080808080808080808080802A
:10766000808080808080808080808080808080801A
:10767000808080808080808080808080808080800A
:1076800080808080808180808080808080808080F9
:1076900080808080808080808080808080808080EA
:1076A00080808080808080808080808080808080DA
:1076B00080808080808080808080808080808080CA
:1076C00080808080808080808081808180808080B8
:1076D00080808080808080808080808080808080AA
:1076E000808080808080808080808080808080809A
:1076F000808080808080808080808080808080808A
:107700008080808080808080808080808080808079
:107710008080808080808080808080808080808069
:107720008080808080808080808080808080808059
:107730008080808080808080808080808080808049
:107740008080808080808080808080808080808039
:107750008080808080808080808080808080808029
:107760008080808080808080808080808080808019
:107770008080808080808080808080808080808009
:1077800080808080808080808080808080808080F9
:1077900080808080808080808080808080808080E9
:1077A00080808080808080808080808080808080D9
:1077B00080808080808080808080808080808080C9
:1077C00080808080808080818080808080808080B8
:1077D00080808080808080808080808080808080A9
:1077E0008080808080808080808080808080808099
:1077F0008080808080808080808080808080808089
:107800008080808080808080808180808080808077
:107810008080808080808080808080808080808068
:107820008080808080808080808080808080808058
:107830008080808080808080808080808080808048
:107840008080808080808080808080808080808038
:107850008080808080808080808080808080808028
:107860008080808080808080808080808080808018
:107870008080808080808080808080808080808008
:1078800080808080808080808080808080808080F8
:1078900080808080808080808080808080808080E8
:1078A00080808080808080808080808080808080D8
:1078B00080808080808080808080808080808080C8
:1078C00080808080808080808080808080808080B8
:1078D00080808080808080808080808080808080A8
:1078E0008080808080808080808080808080808098
:1078F0008080808080808080808080808080808088
:107900008080808080808080808080808080808077
:107910008080808080808080808080808080808067
:107920008080808080808080808080808080808057
:107930008080808080808080808080808080808047
:107940008080808080808081808180808080808035
:107950008080808080808080808080808080808027
:107960008080808080808080808080808080808017
:107970008080808080808080808080808080808007
:1079800080808080808080808080808080808080F7
:1079900080808080808080808080808080808080E7
:1079A00080808080808080808080808080808080D7
:1079B00080808080808080808080808080808080C7
:1079C00080808080808080808080808080808080B7
:1079D00080808080808080808080808080808080A7
:1079E0008080808080808080808080808080808097
:1079F0008080808080808080808080808080808087
:107A00008080808080808080808080808080808076
:107A10008080808080808080808080808080808066
:107A20008080808080808080808080808080808056
:107A30008080808080808080808080808080808046
:107A40008080808080808080808180808080808035
:107A50008080808080808080808080808080808026
:107A60008080808080808080808080808080808016
:107A70008080808080808080808080808080808006
:107A800080808080808080808080808080808080F6
:107A900080808080808080808080808080808080E6
:107AA00080808080808080808080808080808080D6
:107AB00080808080808080808080808080808080C6
:107AC00080808080808080808080808080808080B6
:107AD00080808080808080808080808080808080A6
:107AE0008080808080808080808080808080808096
:107AF0008080808080808080808080808080808086
:107B00008080808080808080808080808080808075
:107B10008080808080808080808080808080808065
:107B20008080808080808080808080808080808055
:107B30008080808080808080808080808080808045
:107B40008080808080808080808080808080808035
:107B50008080808080808080808080808080808025
:107B60008080808080808080808080808080808015
:107B70008080808080808080808080808080808005
:107B800080808080808080808080808180808080F4
:107B900080808080808080808080808080808080E5
:107BA00080808080808080808080808080808080D5
:107BB00080808080808080808080808080808080C5
:107BC00080808081808180808080808080808080B3
:107BD00080808080808080808080808080808080A5
:107BE0008080808080808080808080808080808095
:107BF0008080808080808080808080808080808085
:107C00008080808080808080808080808080808074
:107C10008080808080808080808080808080808064
:107C20008080808080808080808080808080808054
:107C30008080808080808080808080808080808044
:107C40008080808080808080808080808080808034
:107C50008080808080808080808080808080808024
:107C60008080808080808080808080808080808014
:107C70008080808080808080808080808080808004
:107C800080808080808080808080808080808080F4
:107C900080808080808080808080808080808080E4
:107CA00080808080808080808080808080808080D4
:107CB00080808080808080808080808080808080C4
:107CC00080808080808080808080808080818081B2
:107CD00080808080808080808080808080808080A4
:107CE0008080808080808080808080808080808094
:107CF0008080808080808080808080808081808182
:107D00008081808180808080808080808080808071
:107D10008080808080808080808080808080808063
:107D20008080808080808080808080808080808053
:107D30008080808080808080808080808080808043
:107D40008080808080808080808080808080808033
:107D50008080808080808080808080808080808023
:107D60008080808080808080808080808080808013
:107D70008080808080808080808080808080808003
:107D800080808080808080808080808080808080F3
:107D900080808080808080808080808080808080E3
:107DA00080808080808080808080808080808080D3
:107DB00080808080808080808080808080808080C3
:107DC00080808080808080808080808080808080B3
:107DD00080808080808080808080808080808080A3
:107DE0008080808080808080808080808080808093
:107DF0008080808080808080808080808080808083
:107E00008080808080808080808080808080808072
:107E1000808180818081808180808080808080805E
:107E20008080808080808080808080808080808052
:107E30008080808080808080808080818081808040
:107E40008080808080808080808080808080808032
:107E50008080808080808080808080808080808022
:107E60008080808080808080808080808080808012
:107E70008080808080808080808080808080808002
:107E800080808080808080808080808080808080F2
:107E900080808080808080808080808080808080E2
:107EA00080808080808080808080808080808080D2
:107EB00080808080808080808080808080808080C2
:107EC00080808080808080808080808080808080B2
:107ED00080808080808080808080808080808080A2
:107EE0008080808080808080808080808080808092
:107EF0008080808080808080808080808080808082
:107F00008080808080808080808080808080808071
:107F10008080808080808080808080808080808061
:107F20008080808080808080808080808080808051
:107F30008080808080808080808080808080808041
:107F40008080808080808080808080808080808031
:107F5000808080808081808180818081808180811B
:107F60008081808080808080808080808080808010
:107F700080808080808180808081808180808080FE
:107F800080808080808080808080808080808080F1
:107F900080808080808080808080808080808080E1
:107FA00080808080808080808080808080808080D1
:107FB00080808080808080808080808080808080C1
:107FC00080808080808080808080808080808080B1
:107FD00080808080808080808080808080808080A1
:107FE0008080808080808080808080808080808091
:107FF0008080808080808080808080808080808081
:108000008080808080808080808080808080808070
:108010008080808080808080808080808080808060
:108020008080808080808080808080808080808050
:108030008080808080808080808080808080808040
:108040008080808080808080808080808080808030
:108050008080808080808080808080808080808020
:108060008080808080808080808080808080808010
:108070008080808080808080808080808080808000
:1080800080808080808080808080808080808080F0
:1080900080808080808080808080808080818081DE
:1080A00080818081808180818081808180818081C8
:1080B00080818080808080808080808080808080BF
:1080C00080808080808080808080808080808080B0
:1080D00080808080808080808080808080808080A0
:1080E0008080808080808080808080808080808090
:1080F0008080808080808080808080808080808080
:10944000808080808080808080807F84A483BB6DCA
:10945000BB6DB2689784BB6DBB6DBB6DBB6DBD6DE5
:10946000907BBB6D966780808080A386B45E808091
:109470009B89BB6DBC6D9D6680809B89BB6DBD6DFE
:1094800095698080A386BB6DBB6DBB6DA06380803A
:109490007F84A981A5648080808080808080858F82
:1094A000BB6DBB6DBB6DA86B82777F88B879BB6DD8
:1094B000AA627F84A483BB6DBB6DB2688277838808
:1094C000A87DBB6DBB6DA76180809083B878BB6DB4
:1094D000B0688B738F8EAA61808080807E84B5791E
:1094E0008C80BB6DBB6DBB6DBB6D9169A386BB6D85
:1094F000BB6DB5678B738A8BB168817B8080848BF1
:10950000B36D827780808080808080808080808042
:10951000808080808080808080808080808080804B
:10952000808080808080808080808080808080803B
:10953000808080808080808080808080808080802B
:10954000808080808080808080808080808080801B
:10955000808080808080808080808080808080800B
:1095600080808080808080808080808080808080FB
:1095700080808080808080808080808080808080EB
:1095800080808080808080808080948CAF5F8080AD
:1095900080809183827780808190B45E808080809B
:1095A000858FB068AF698080848BAA78B45E808034
:1095B0008E7C8080878BB964817B8E7C80808A8F53
:1095C000B65C8080A38691698080808080807F8067
:1095D000A388A276A5648080808080808080858F2B
:1095E000AF6080808088A57EAF5F80808190B45E10
:1095F0008080948CAF5F8080808091838177A68506
:10960000A76180808080907A888FB7658B73808017
:10961000948AB5627F84B86A817B80808A8EAC61CF
:10962000858FAF608080808080808080A3869169F4
:109630008080978AAA6280809E899B667F80A885A9
:109640009069808080808080808080808080808021
:10965000808080808080808080808080808080800A
:1096600080808080808080808080808080808080FA
:1096700080808080808080808080808080808080EA
:1096800080808080808080808080808080808080DA
:1096900080808080808080808080808080808080CA
:1096A00080808080808080808080808080808080BA
:1096B00080808080808080808080808080808080AA
:1096C00080808080808080808080928DB268827768
